:020000040800F2
:10000000982900204D020008154300083F3C0008D5
:1000100061410008FD170008E54E000800000000DF
:10002000000000000000000000000000B501000812
:10003000031A000800000000F901000871490008D7
:1000400067020008670200086702000867020008EC
:1000500067020008670200086702000867020008DC
:1000600067020008670200086702000867020008CC
:100070006702000867020008C1190008CD190008CE
:1000800067020008670200086702000867020008AC
:10009000670200086702000867020008670200089C
:1000A000670200086702000867020008670200088C
:1000B0006702000867020008054A00086702000896
:1000C000670200086702000867020008670200086C
:1000D00067020008D94E000867020008670200089E
:1000E00067020008670200086702000800F002F8D3
:1000F00000F050F80AA090E8000C82448344AAF172
:100100000107DA4501D100F045F8AFF2090EBAE86F
:100110000F0013F0010F18BFFB1A43F0010318473B
:100120004073000060730000103A24BF78C878C1A3
:10013000FAD8520724BF30C830C144BF04680C60ED
:10014000704700000023002400250026103A28BF35
:1001500078C1FBD8520728BF30C148BF0B60704739
:10016000662906F09185642900F00881782900F05D
:100170004181732900F06385002070471FB500F0AE
:1001800095FD04000020002106F074FBE0601FBD17
:1001900010B510BD00F08AFE1146FFF7EFFF04F026
:1001A000F3FE00F0A8FE03B4FFF7F2FF03BC00F07B
:1001B000EBFE0000224B19680868B0E8F00F80F3EE
:1001C0000988BFF36F8F4FF0000080F311884EF065
:1001D0000D0E70470000000006480068006880F3BC
:1001E000088862B661B6BFF34F8FBFF36F8F00DF31
:1001F00000BF00BF08ED00E0EFF30980BFF36F8F91
:100200000F4B1A6820E9F00F106008B54FF050004E
:1002100080F31188BFF34F8FBFF36F8F05F022FE7D
:100220004FF0000080F31188BDE8084019680868A5
:10023000B0E8F00F80F30988BFF36F8F704700BFFD
:1002400034000020EFF30580704700000948804724
:1002500009480047FEE7FEE7FEE7FEE7FEE7FEE7A8
:10026000FEE7FEE7FEE7FEE704480549054A064BC0
:1002700070470000034A0008ED00000898230020A2
:10028000982900209825002098250020B2F120030D
:100290000AD5C2F1200320FA02F001FA03F321FA91
:1002A00002F140EA0300704721FA03F04FF0000129
:1002B000704700000FB41CB5074B06AA7B44694683
:1002C0000090059800F091FC0020694600F0A0FC29
:1002D0001CBC5DF814FB00005109000070B5044619
:1002E00085690068C10601D5302600E02026C007D8
:1002F00007D070BDD4E9012130469047206A401CE8
:1003000020626D1EF6D570BD70B504468569007813
:10031000C00707D170BDD4E9012120209047206A91
:10032000401C20626D1EF6D570BD70B50C460546AA
:10033000012A05D02878800600D5EA69002302E06A
:10034000012305E05B1C934202D2E05C0028F9D156
:10035000A869E618C01AA861286A184428622846C5
:10036000FFF7BCFF04E0D5E9012114F8010B904729
:10037000B442F8D32846FFF7C7FF70BD2DE9F0411E
:100380000646002410687529314616A510D0AFF333
:100390000080002802DA404213A507E031688A078E
:1003A00001D512A502E0490704D511A5012401E0F9
:1003B000AFF3008000210A2206F1240709E0B0FB18
:1003C000F2FCB0FBF2F302FB1C003030785418460C
:1003D000491C0028F3D123462A463046BDE8F041A7
:1003E00000F095B9000000002D0000002B00000077
:1003F0002000000070B504460D4621461068AFF39A
:1004000000802188090502D50F4A7A4402E00E4A8D
:100410007A440E32002104F1240305E000F00F06B7
:100420000009965D5E54491C0028F7D1207800230E
:10043000000704D5702D02D009B1022311322046E5
:10044000BDE8704000F063B9766F00002DE9F05F01
:10045000894604464FF0000ADFF824B1FB44C0F897
:1004600020A02046E168884700287DD0252806D0B6
:10047000D4E901219047206A401C2062F1E7002561
:100480005F462046E16888472028064607DB312E74
:1004900005D2B81910F8200C08B10543F1E7A807F8
:1004A00001D525F00405C4F81CA00027C4F818A045
:1004B0002A2E09D0304604F053FD38B304EB8708E8
:1004C000303EC8F8186019E059F8041B204604EBC8
:1004D00087029161E1688847012F064618D1E069DB
:1004E000002820DA25F020051DE0D8F8180000EBE0
:1004F000800006EB40003038C8F818002046E1685C
:100500008847064604F02CFD0028EED1012F0AD0C2
:100510002E2E08D12046E16888477F1C0646022F10
:1005200045F02005C4DBA069002803DA404245F00D
:100530000105A061E80701D025F01005A6B1A6F1DC
:100540004100192802D8203645F400654A46314654
:10055000204625604D46FFF703FE60B1012807D015
:10056000ED1D25F0070000E007E000F1080978E73D
:1005700005F1040975E730467AE7206ABDE8F09F87
:100580004C6F000040EA010310B59B070FD1042A0D
:100590000DD310C808C9121F9C42F8D020BA19BA4E
:1005A000884201D9012010BD4FF0FF3010BD1AB1B3
:1005B000D30703D0521C07E0002010BD10F8013B08
:1005C00011F8014B1B1B07D110F8013B11F8014B2F
:1005D0001B1B01D1921EF1D1184610BD032A40F217
:1005E000308010F0030C00F0158011F8013BBCF1D5
:1005F000020F624498BF11F801CB00F8013B38BFED
:1006000011F8013BA2F1040298BF00F801CB38BFFA
:1006100000F8013B11F0030300F01583083AC0F025
:10062000088051F8043B083A51F804CBA0E80810C0
:10063000F5E7121D5CBF51F8043B40F8043BAFF3F3
:100640000080D20724BF11F8013B11F801CB48BF4D
:1006500011F8012B24BF00F8013B00F801CB48BF83
:1006600000F8012B704702F0FF0343EA032242EA3D
:10067000024200F002B84FF000020429C0F01280DC
:1006800010F0030C00F01B80CCF1040CBCF1020F45
:1006900018BF00F8012BA8BF20F8022BA1EB0C011A
:1006A00000F00DB85FEAC17C24BF00F8012B00F810
:1006B000012B48BF00F8012B70474FF0000200B536
:1006C000134694469646203922BFA0E80C50A0E875
:1006D0000C50B1F12001BFF4F7AF090728BFA0E823
:1006E0000C5048BF0CC05DF804EB890028BF40F8EF
:1006F000042B08BF704748BF20F8022B11F0804F31
:1007000018BF00F8012B70477047704770472DE9FC
:10071000F0470D4699469246044600F124080168C8
:10072000880604D5E06921F01001216000E0012075
:10073000A84201DD471B00E00027A1697A1902EBFE
:100740000900081AA0612078C00602D42046FFF7ED
:10075000C5FD002608E0D4E901211AF806009047FB
:10076000206A401C761C20624E45F4DB2078C006CF
:100770000AD52046FFF7B2FD06E0D4E9012130207A
:100780009047206A401C2062381EA7F10107F4DC64
:1007900007E0D4E9012118F805009047206A401CC1
:1007A0002062281EA5F10105F3DC2046FFF7ACFD11
:1007B0002078000602D50220BDE8F0870120FBE783
:1007C00070472DE9FF4F0C461E464FF0FF378BB0A8
:1007D000D2E90001DDF860800A908A46C1F30A552B
:1007E00005B93D46002108464FF00000BAF1000F60
:1007F00000F4400005DA00EB80004FF4400101EA0C
:1008000050004FEA9059B9F1010F00DDB9460A983E
:1008100050EA4A000ED044F61050A5F2FF35454389
:100820002F14B8F1000F1ED07542291E1EDDC9F12C
:1008300000021CE0B8F1010F4FF0000001D03021A0
:1008400003E0F24305E02154401CB042FBDB30469C
:100850000022002121540B99C1F80880C1E9002031
:100860000FB0BDE8F08FBD1B6D1CDEE74A4600DA15
:10087000694206A800F0A4FA06AB93E8070003ABB0
:1008800083E8070050460A9900F085FB8DE80700D1
:10089000A0F500501F3800900398002D0ADD42F2A9
:1008A0001F014A460844002303A90390684600F04C
:1008B000EEFD09E0A0F500504A461F38002303A9C9
:1008C0000390684600F0F8FD8DE807000004000C76
:1008D00003D04FF0FF30410800E01046B8F1000FA0
:1008E00003D00022009215461EE0751E05D400F0CC
:1008F000E1F9303262556D1EF9D5B3460122084345
:1009000002D000227F1C04E02078302801D1002290
:100910007F1E002A099784D01DE0112D07DA00F010
:10092000C9F9303262556D1C50EA0102F5D1084315
:1009300002D00098C8B10EE00021681E05E0235CDB
:10094000625C63542254401E491C8142F7DBAB4673
:10095000A81B401E0990002004F80B000B98099A70
:10096000C0F80880C0E9002B7AE711264FF0000894
:1009700057E72DE9F04F88460446D21D22F00701C3
:1009800091B0D1E90001CDE90A0104F0C5FA0246AF
:100990000B98C00F01D02D2007E02068810701D5FA
:1009A0002B2002E0202101EAC000032A099001D097
:1009B000072A05DB03464146204600F0C1F90BE15A
:1009C0002078800601D5E06900E00620B8F1650FC7
:1009D000814606D0B8F1660F18D0B8F1670F70D114
:1009E00031E00020B9F1110F009001DB112301E08B
:1009F00009F101030AAA01A90CA8FFF7E2FEDDE94B
:100A00000C70002609F10105834647E001204B46A2
:100A100000904FF000470AAA01A90CA8FFF7D1FEE9
:100A2000DDE90DB00C995D46002610B909F1010011
:100A30000D18B9EB050003D4C0F1FF3609F101052B
:100A4000A5EB09002BE0B9F1010F01DA4FF0010924
:100A50000020B9F1110F0090484601DD112300E09C
:100A600003460AAA01A90CA8FFF7ABFEDDE90C704A
:100A70004D4600268346207800070AD4AB4500DAAD
:100A80005D4601A8012D04DD411911F8011C302932
:100A900007D04F4502DA17F1040F04DA012082462D
:100AA0000FE06D1EEEE7002F02DCED1B3E4403E07D
:100AB000781CA84200DD7D1CB81B00F1010A4FF034
:100AC00000472078000703D4AA4501DB4FF0FF3A26
:100AD0000021B7F1004F0DF143088DF8431024D0E9
:100AE00002202B23002F01DA7F422D230A21021E30
:100AF000A0F1010000DC5FB197FBF1FC97FBF1F284
:100B000001FB1C7C17460CF1300C08F801CDEEE718
:100B1000A8F1010003702188090501D5452100E0F5
:100B20006521A0F1010800F8011C09980FA9A1EBAB
:100B30000807FF1D00B10120411901EBEA70A1690E
:100B40003844081A401EA0612078C00602D420460E
:100B5000FFF7C4FB099828B1D4E901219047206A26
:100B6000401C20622078C00622D52046FFF7B6FB45
:100B70001EE0002E04DBB34502DD01A8805D00E02D
:100B80003020D4E901219047206A401C2062761C65
:100B9000AAF101005FEA000A0AD100F087F8C068F4
:100BA0000168405CD4E901219047206A401C206222
:100BB000281EA5F10105DCDC07E0D4E9012118F8C5
:100BC000010B9047206A401C2062381EA7F10107E4
:100BD000F3DC2046FFF798FB032011B041E600004C
:100BE00001694A1C02610878704700B58FB0CDE9F1
:100BF00001310021059105497944CDE903101146E1
:100C00006846FFF723FC0FB000BD0000E5FFFFFFC3
:100C10000A6802F8010B0A60704710B5436913B106
:100C2000AFF3008001E0FFF780FB012010BD1278D8
:100C300000F124010A7000224A700122EDE71168D8
:100C40004FF0FF32E9E710B5203AC0F00B80B1E871
:100C50001850203AA0E81850B1E81850A0E81850F1
:100C6000BFF4F5AF5FEA027C24BFB1E81850A0E8FA
:100C7000185044BF18C918C0BDE810405FEA827C14
:100C800024BF51F8043B40F8043B08BF7047D2072B
:100C900028BF31F8023B48BF11F8012B28BF20F8CC
:100CA000023B48BF00F8012B704700000048704726
:100CB0005823002030B5B0F10A024FEA900E71F1CE
:100CC00000034EEA817EB0EB0E0061EB91014FEA2A
:100CD000101E4EEA017E10EB0E0041EB11114FEA9F
:100CE000102E4EEA016E10EB0E0041EB11214FEA7F
:100CF000104E4EEA014E10EB0E0041EB1141401830
:100D000041F100014FEAD00040EA41704FEAD101C1
:100D100010EB80054FEA810444EA907444EB01042F
:100D20006D1944EB0404521BA3414FF0000348BF6C
:100D30000A3200D530BD401C41F1000130BD000039
:100D40002DE9F0411F46044603260168072A01F4F5
:100D5000006004DB08B116A505E016A503E008B1A4
:100D600015A500E015A521F010002060A069C01EA7
:100D7000A0610FB1401EA0612046FFF7AFFA4FB14E
:100D8000D4E9012138469047206A401C2062C01CEB
:100D9000206206E0206AFAE7D4E9012115F8010B88
:100DA0009047761EF8D22046FFF7AEFABDE8F081F4
:100DB0004E414E006E616E00494E4600696E6600FF
:100DC0002DE9F047814616468AB0354878440DC86B
:100DD0008DE80D0032487844801C03AC0DC884E8CF
:100DE0000D0041F69B300844372190FBF1F290FB57
:100DF000F1F5A5F1800501FB12041B3C02D564420C
:100E0000012000E00020DFF898A080460027FA4487
:100E1000AAF1BE0A0EE0E0070AD03246684607EBA8
:100E2000470101230AEB810100F046FB8DE8070032
:100E300064107F1C002CEED1194F7F44AE3F19E0A7
:100E4000E80715D007EB04100DF1180A90E80E0022
:100E50008AE80E00C068F04201D198190890324625
:100E6000012306A903A800F027FB03AB83E80700D2
:100E70006D10641C002DE3D14FF00103324669462A
:100E8000B8F1000F03A802D000F001FB01E000F070
:100E900013FBC9E90001C9F808200AB0BDE8F087D2
:100EA0006C66000000487047382300207546FFF745
:100EB000F9FFAE4605006946534620F00700854617
:100EC00018B020B5FFF7D0F9BDE820404FF000067C
:100ED0004FF000074FF000084FF0000B21F0070122
:100EE000AC46ACE8C009ACE8C009ACE8C009ACE865
:100EF000C0098D46704710B50446AFF30080204608
:100F0000BDE81040FFF74FB94FF0013C50F8042BFB
:100F100051F8043B9A4221D1A2EB0C03934313EA0C
:100F2000CC1317D150F8042B51F8043B9A4215D139
:100F3000A2EB0C03934313EACC130BD150F8042B10
:100F400051F8043B9A4209D1A2EB0C03934313EAF4
:100F5000CC13DBD04FF00000704700BFD01A01BAAD
:100F6000B1FA81F101F0180122FA01F0CB40C1F190
:100F70002001DBB2C0B2C01A2CFA01F3D11A91439E
:100F800011EAC311E6D1704701491820ABBEFEE754
:100F90002600020070475FEA400C08BF91F0000F86
:100FA0004FEA8C234FEAC12243EA51514FEA1C50C9
:100FB00018BF00F5F0404FEA300018BF41F0004183
:100FC0005FEA6C5C00F02980BCF1FF3F08BF40F095
:100FD00080407047130C06BF12044FF0100C4FF006
:100FE000000C130E04BF12020CF1080C130F04BF07
:100FF00012010CF1040C930F04BF92000CF1020CCF
:10100000D30F04BF52000CF1010C11464FF0000247
:10101000A0F11F00A0EB0C00704711F0004F08BFBB
:10102000704731F000413FF4D5AF0B0C06BF090407
:101030004FF0100C4FF0000C0B0E04BF09020CF126
:10104000080C0B0F04BF09010CF1040C8B0F04BF3B
:1010500089000CF1020CCB0F04BF49000CF1010C0C
:10106000CCF12003A0EB0C0022FA03F302FA0CF2FD
:1010700041EA030100F10100704720F07F4C80EA53
:10108000030023F07F47ACEB070303F57C5300F02C
:10109000004003F1FF032DE980494FEA154B09B4E5
:1010A0004FEA144325EA0B4E24EA03480FF20426C4
:1010B00006EB132749083E785FEA320203FB066716
:1010C000C7F5000707FB06F64FEA54374FEAD64646
:1010D00006F1020607FB066CCCF1005C4FEA1C47E8
:1010E0002CEA074C07FB06F40CFB06F504EB15464F
:1010F0004FEA961634BF00204FF000404FEAD13738
:1011000006FB07FC4FEA1C4C0CFB0BF7D21B03FB46
:101110000CF761EB07010CFB0EF7B0EB074072EB2D
:1011200017420CFB08F734BFA2EB0742B2EB0742B1
:1011300061EB17414FEA0C444FEA910706FB07FCAD
:101140004FEA1C4C0CFB0BF7B0EBC74072EB57326D
:1011500003FB0CF734BFA2EBC742B2EBC74261EB13
:1011600057310CFB0EF7B0EBC70072EB57720CFB5C
:1011700008F734BFA2EBC702B2EBC70261EB5771AD
:10118000039F4FEA816141EA921104EBCC044FEADC
:10119000D1374FEA826206FB07FC42EA90124FEA1F
:1011A00080604FEA1C4C0CFB0BF7D21B03FB0CF7C7
:1011B00061EB07010CFB0EF7B0EB074072EB174237
:1011C0000CFB08F734BFA2EB0742B2EB074261EB1E
:1011D00017414FEA8C554FEA910704EB9C2406FB1C
:1011E00007FC4FEA1C4C0CFB0BF7B0EBC74072EB53
:1011F000573203FB0CF734BFA2EBC742B2EBC74236
:1012000061EB57310CFB0EF7B0EBC70072EB577276
:101210000CFB08F734BFA2EBC702B2EBC70261EBCD
:10122000577115EB4C254FEA816141EA92114FEA63
:1012300082624FEAD13742EA901206FB07FC44F182
:1012400000044FEA80604FEA1C4C0CFB0BF7D21BEA
:1012500003FB0CF761EB07010CFB0EF7B0EB07404B
:1012600072EB17420CFB08F734BFA2EB0742B2EB5C
:10127000074261EB174115EB1C154FEA813141EA3A
:1012800092414FEA823242EA90424FEA80304FEA7E
:101290000C7644F1000448EA03434EEA0B484FF051
:1012A000000EB2EB080C71EB030724BF624639460F
:1012B0004EEB0E0E4FF0000B0018524149414BEB24
:1012C0000B0BB2EB080C71EB03077BF1000B24BF97
:1012D000624639464EEB0E0E4FF0000B001852419D
:1012E00049414BEB0B0BB2EB080C71EB03077BF1A5
:1012F000000B24BF624639464EEB0E0E51EA020740
:1013000018BF46F0010616EB0E7655F1000254F1B7
:10131000000103D5BDE88901BDE80088BDE8890169
:10132000BDE80048B619524141EB0101A3F10103A8
:10133000704780807F7E7D7C7B7A79787776767542
:101340007473727171706F6E6E6D6C6C6B6A6A69BA
:101350006868676666656464636362616160605F54
:101360005F5E5E5D5D5C5C5B5B5A5A5959585857CD
:101370005756565555555454535352525251515035
:1013800050504F4F4F4E4E4D4D4D4C4C4C4B4B4B88
:101390004A4A4A49494948484847474747464646CE
:1013A0004545454444444443434343424242424109
:1013B0004141002B9C4630D477002BD01CB54FEA1E
:1013C000370703B44FF010004FF01001BAF1000FCF
:1013D00006D0BCF1000FDCBF40F0080040F008016F
:1013E0004FF000000FBCBDE810400BF1010BBBF14A
:1013F000010F08BF5FEA170722BF12F1010211F1C6
:1014000001014FF0004143F1000300F0004043EAC6
:1014100000007047F9D35708D0E746EA064613F1B3
:10142000400F4FEA16461FDD13F1200FDFBF1643B2
:101430000A46002120335B42BED0C3F1200746EAB2
:10144000064602FA07F74FEA164646EA0706C3F1D0
:10145000200722FA03F201FA07F721FA03F14FF00D
:10146000000342EA0702A7E746EA020646EA064602
:101470004FEA164646EA0106BCBF46EA0646360C67
:101480004FF000034FF000024FF0000194E72DE908
:10149000804C9A46934670B491E8380007C831EA08
:1014A000400C48BF34EA430C03D5FFF7E6FDFFF7D5
:1014B00080FFF0BCBDE8008C2DE9804C9A46934635
:1014C00070B491E8380007C810F0804F08BF13F0DF
:1014D000804F03D100F005F8FFF76BFFF0BCBDE8CB
:1014E000008C20F07F4780EA030023F07F4C07EB5D
:1014F0000C03A3F57C5300F00040A3F1FE0392F02F
:10150000000F00F0B38095F0000F00F077802DE918
:1015100001494FEA11404FEA144621EA004800FB16
:1015200006FC24EA064708FB06F607FB08F800FB62
:1015300007F718EB06484CEB164C4FEA124B18EB2A
:1015400007484FEA15464CEB174022EA0B4E0BFBBF
:1015500006FC25EA06470EFB06F607FB0EFE0BFB14
:1015600007F71EEB064E4CEB164C4FF000061EEB39
:10157000074E4CEB174B18EB0B0840F1000018EB33
:101580000E0B58EB000840F100008F1A4FF00001DD
:101590003CBFC943661B14BFB5EB040C00213CBF24
:1015A000C943F61B4FEA17444EEA8E0E27EA04455C
:1015B0004FEA1C4704FB07622CEA074C05FB07F7C0
:1015C0000CFB05F604FB0CFC16EB074642EB17423E
:1015D00016EB0C4642EB1C421BEB060658EB0202D4
:1015E000414146EA9E0601D5BDE80189B61952413E
:1015F00041EB0101A3F10103BDE801894FEA144564
:101600004FEA114724EA054621EA074C05FB07F497
:1016100006FB07F70CFB06F105FB0CFC11EB074181
:1016200044EB17444FEA124711EB0C4144EB1C44C6
:1016300022EA074C05FB07F206FB07F70CFB06F650
:1016400005FB0CFC16EB074642EB174216EB0C466B
:1016500042EB1C456A1854F1000148BF7047B619A7
:10166000524141EB0101A3F10103704795F0000FD6
:1016700037D04FEA11424FEA144721EA024624EAE2
:10168000074C02FB07F106FB07F70CFB06F402FB15
:101690000CFC14EB074441EB17414FEA154714EBE0
:1016A0000C4441EB1C4125EA074C02FB07F506FB05
:1016B00007F70CFB06F602FB0CFC16EB074645EBA6
:1016C000174516EB0C4645EB1C42121951F100016F
:1016D00048BF7047B619524141EB0101A3F1010324
:1016E00070474FEA14454FEA114724EA054621EABC
:1016F000074C05FB07F106FB07F70CFB06F24FF062
:10170000000605FB0CFC12EB074241EB174112EB04
:101710000C4251EB1C4148BF7047921841EB01014C
:10172000A3F101037047000070B5044600688168AA
:10173000C943C90717D1816821F00101816001F017
:1017400091F805460AE000BF01F08CF8401B022822
:1017500004D920688068C043C00706D0206880682C
:10176000C043C007F0D0002070BDA06A40F0100058
:10177000A062E06A40F00100E062012070BD00005C
:10178000F8B500260446009600688168C943C90779
:101790002DD0816841F0010181601648164900682A
:1017A000B0FBF1F000E0401E00900028FBD101F0FA
:1017B00059F8054616E000BF01F054F8401B022816
:1017C00010D920688068C043C0070BD0A06A40F0E1
:1017D0001000A062E06A40F00100E06284F824603A
:1017E0000120F8BD20688068C043C007E4D1002014
:1017F000F8BD00003000002040420F00FEE700006E
:1018000030B503464FF6FF704AF201040DE000BF09
:1018100013F8012B50400022C5074FEA500000D0BA
:101820006040521CD2B2082AF6D3491E89B2EFD2C8
:1018300030BD00002DE9F0410025DFF85480074657
:101840002C4601267821002000F0A0F8E8B92320DA
:1018500003F08EFB0221404600F0FAFF0128C4F19C
:10186000070006FA00F008D08543641CE4B2082C97
:10187000E8D33D700020BDE8F081C0B20543782177
:10188000012000F083F80028EFD00120F3E70000EA
:10189000000801402DE9FF41022500260127CDE97E
:1018A0000057DFF8E080CDE902650446694640460E
:1018B00000F0DEFE00220221404600F0CEFF1420A0
:1018C00000F012FE01220221404600F0C6FF1E2059
:1018D00003F04EFB8DE8E00069464046039500F0BA
:1018E000C7FE1E2003F044FB0221404600F0B0FF7B
:1018F00040BB7821002000F049F818BB7821012076
:1019000000F044F8F0B92046FFF794FFD0B9601C0E
:10191000FFF790FFB0B9A01CFFF78CFF90B9E01C57
:10192000FFF788FF70B9201DFFF784FF50B92178B9
:101930006078A678E5780A1873191A442379D2B228
:10194000934203D0012004B0BDE8F08101EBC10255
:1019500002EB011100EB810005F0B6F80A4F3946A1
:1019600004F0D0FFA06006EBC60000EB061005EB0C
:10197000800005F0A9F8394604F0C4FFE0600020BB
:10198000E1E70000000801400000C8422DE9F041F5
:101990000E4605460024094F08E0012003F0E8FA4E
:1019A000641CB44202D30120BDE8F0810221384614
:1019B00000F04EFFA842F0D00020F5E700080140FB
:1019C000014800F081BC000030020020014800F016
:1019D0007BBC0000EC01002030B590F840500124A1
:1019E000AC40C56B6C60046863604368102B03688F
:1019F00003D099600068C26030BD9A600068C16021
:101A000030BD704770B51848184C0025A0F86050DC
:101A10006570A5700388B0F8406001212A46B34282
:101A200002D9A0F8601061704388B0F84260B342F8
:101A300006D9B0F8603043F00203A0F86030A1701E
:101A40006678A3781E43094B1B7902D0012523B188
:101A500001E003B1E270257170BD4184E17000F0D6
:101A600001FFE061F7E70000B41B00200000002048
:101A70002DE9F041174C184F184D6078A1784FF4BC
:101A8000005608431FD000F0EDFEE169401AB0F5A2
:101A9000967F06D300F0E6FEE061E07828B10020F2
:101AA000E070E07818B1002202E00120F8E701229E
:101AB0003146384600F0D1FE09486A8C4FF4805117
:101AC0001AB1002202E0288CECE70122BDE8F041C7
:101AD00000F0C3BE0000002000100140B41B002035
:101AE000000C01402DE9F0411E4800F01DFB4FF0B5
:101AF000FF311C4800F07AFA1A4800F0B9F91A4C84
:101B000085B22846258104F0DFFF184904F0FAFE6B
:101B1000174904F0EDFF2061164C1749A58004F029
:101B2000E7FF04F0B1FFE0801448FFF7B3FE0025A3
:101B300028B1258065800120A084BDE8F0810F4E8A
:101B40000F4F3946F06804F0D3FF04F09DFF20806A
:101B50003946B06804F0CCFF04F096FF6080A5849D
:101B6000EBE70000D80000200000002000F07F45D7
:101B700033335340B41B00200000C842C80000208B
:101B80000000204172B6FEE706490020C861064801
:101B9000016941F004010161016941F04001016105
:101BA00070470000C002002000200240064A0021C9
:101BB000D16106490A6942F002020A614861086976
:101BC00040F0400008617047C00200200020024041
:101BD000044B0022DA61044A136943F001031361E4
:101BE00001807047C00200200020024014480022FB
:101BF000C168CB06134904D5CA6942F00202CA6122
:101C00001022C3685B0705D5CB6943F00103CB61A4
:101C100042F00402C369DB0707D0CB6943F0040339
:101C2000CB61C16921F00101C161A2F58071013967
:101C300001D0C2607047C16921F00101C1617047E4
:101C400000200240C002002070B5054600F00AFEE8
:101C50000646114C09E0681C07D025B100F002FED1
:101C6000801BA84201D9032070BDE068C007F2D1F3
:101C7000E068800601D52020E060E068C00605D459
:101C8000E069C00702D1E068400703D5FFF7AEFF67
:101C9000012070BD002070BD00200240F8B5002575
:101CA0000446009590F8240001280BD0012084F808
:101CB00024002046FFF738FD2046FFF761FD0600AF
:101CC00002D050E00220F8BDA06A20F4885040F015
:101CD0000200A062022001F01DF825490968B1FB4D
:101CE000F0F0400000E0401E00900028FBD120688A
:101CF000816841F00801816000F0B4FD074608E00A
:101D000000F0B0FDC01B0A2803D9206880680007D6
:101D100015D4206880680007F2D42068816841F0FB
:101D20000401816000F09EFD074612E000F09AFD7C
:101D3000C01B0A280DD920688068400709D5A06A11
:101D400020F0020040F01000A06284F8245001202E
:101D5000F8BD206880684007E8D4A06A20F002003F
:101D600040F00100A06284F824503046F8BD000025
:101D700030000020F8B50024009490F82420254677
:101D8000012A12D0012280F824204A681F23072A42
:101D90000DD20668776B521E02EB820293409F437E
:101DA0000B6893401F43776319E00220F8BD066873
:101DB0000D2A0AD2376BD21F02EB820293409F4357
:101DC0000B6893401F43376309E0F76A0D3A02EB53
:101DD000820293409F430B6893401F43F7620A6857
:101DE000072306680A2A0AD3F7680A3A02EB420276
:101DF00093409F438B6893401F43F76008E0376927
:101E000002EB420293409F438B6893401F4337612C
:101E10000A68102A01D0112A20D1124B02689A4276
:101E200017D193681B0219D4936843F4000393609D
:101E30000968102912D10C490C4A0968B1FBF2F16A
:101E400001EB8101490000E0491E00910029FBD10E
:101E500004E0816A41F020018162012480F824506D
:101E60002046F8BD002401403000002040420F0011
:101E70000068C06C704700002DE9F0414FF000078A
:101E800004003D467ED0A06A002628B9E66284F8A8
:101E90002460204600F07EF82046FFF745FCA16A4A
:101EA000C90600D420B1A06A40F01000A06269E029
:101EB000A16A21F4885141F00201A1626268E169DE
:101EC000237B0A4347EA43010A43A1684FF4807722
:101ED000B94209D0012907D05FF0000194F814C07D
:101EE000BCF1010F02D00AE03946F7E7F3B1A36A6B
:101EF00043F02003A362E36A43F00103E362236833
:101F0000D3F804C02CF4694C4CEA010CC3F804C0AB
:101F100021688B68DFF870C003EA0C0313438B6001
:101F2000A168B9420BD0012909D00CE0DFF85CC0F0
:101F3000A3690CEB43330B4343F40061DFE7218AD1
:101F40000D05A5F580152168CB6A23F470032B439A
:101F5000CB62216889680E4B1940914208D1E66234
:101F6000A16A21F0020141F00101A162BDE8F08106
:101F7000A06A20F0020040F01000A062E06A40F089
:101F80000100E0620120F1E7FDF7E1FF00E0FFFF63
:101F9000FE0E1FFF00B585B0002100910191029156
:101FA000039100680E49884218D10E48816941F4B6
:101FB00000718161816901F400710491816941F0CE
:101FC000040181618069694600F0040004902020CA
:101FD000009003200190044800F04AFB05B000BDCA
:101FE0000024014000100240000801402DE9F843A0
:101FF00000270D460446009700F034FC8046206818
:102000008168C90508D5A06A40F02000A06284F864
:1020100024700120BDE8F8834168C90503D4C06A73
:1020200010F4700F2AD0022000F074FE3B490968BA
:10203000B1FBF0F62068036939490B424FEA6101B0
:102040004FEAA1121FD1C3684FEA611C13EA0C0FBB
:1020500019D103690B4225D1C068104222D1142046
:1020600023E0681C0AD02DB100F0FCFBA0EB0800B7
:10207000A84203D920680068800725D52068006839
:102080008007EED52DE003690B4202D1C1681142F1
:1020900006D0026923490A4206D1C068084203D12A
:1020A000542002E0292000E0FC204643009816E07E
:1020B000681C11D02DB100F0D5FBA0EB0800A842A0
:1020C0000AD90098B04207D2A06A40F00400A0628A
:1020D00084F8247003209DE70098401C0090B042D3
:1020E000E6D321686FF012000860A06A40F4007027
:1020F000A06220688068C0F3424007280CD1207B92
:1021000050B9A06A20F48070A062A06AC00403D411
:10211000A06A40F00100A06200207BE730000020B0
:10212000244992244992240070B5044690F8240072
:1021300001280DD0012084F824002046FFF720FB61
:1021400002004FF0000005D084F82400104670BD56
:10215000022070BDA16A40F20123994341F48071CD
:10216000A1621F4D23681F49AB4218D10E6816F4B7
:10217000702F14D0A66A46F48016A6620E68760503
:1021800005D5A66A26F4005646F48056A662A66ACD
:10219000F6040AD5E66A26F00606E66206E0A66AB6
:1021A00026F48016A6625E68E9E7E06284F82400FF
:1021B0006FF00200186020688368C3F34243072B66
:1021C00005D1A84208D1096811F4702F04D08168A4
:1021D00041F480118160B9E7816841F4A001F9E719
:1021E000002801400424014010B590F8211000227D
:1021F000022905D00421816380F82020012010BD30
:1022000001680B6823F00E030B6001680B6823F074
:1022100001030B6090F84030C46B012101FA03F315
:10222000636080F8211080F82020104610BD000067
:1022300010B590F821100024022903D004218163F5
:1022400001243DE001680A6822F00E020A6001687C
:102250000A6822F001020A601A4A0168914201D11B
:10226000012121E0174A1432914201D110211BE0D3
:10227000144A2832914201D1891515E0114A3C32A5
:10228000914201D189140FE00E4A5032914202D19D
:102290004FF4803108E00B4A6432914202D14FF48E
:1022A000801101E04FF08071064A083A5160012127
:1022B00080F82110002180F82010416B01B188477F
:1022C000204610BD080002402DE9F05FC16B0C688C
:1022D00001680B68D0F840C0042202FA0CF2494DA4
:1022E000DFF824A1494E4A4FDFF828B1DFF828E192
:1022F00022422CD05A072AD50A68920603D40A68CB
:1023000022F004020A600168A94201D1042219E006
:10231000514501D1402215E0B14202D14FF4806213
:1023200010E0B94202D14FF480420BE0594502D18E
:102330004FF4802206E0714502D14FF4800201E0A3
:102340004FF080622F4908394A60C16A3BE04FF084
:10235000020808FA0CF818EA040F4FF000094FF0D1
:10236000010235D05FEA837832D50B689B0605D42D
:102370000B6823F00A030B6080F821200168A94252
:1023800001D1022219E0514501D1202215E0B142CC
:1023900002D14FF4007210E0B94202D14FF4005262
:1023A0000BE0594502D14FF4003206E0714502D1ED
:1023B0004FF4001201E04FF00072124908394A60F0
:1023C00080F82090816A00291AD0BDE8F05F0847A4
:1023D000082505FA0CF5254212D01B0710D50B680D
:1023E00023F00E030B6090F84010C36B02FA01F16A
:1023F0005960826380F8212080F82090016BE2E729
:10240000BDE8F09F080002401C000240300002407E
:1024100044000240580002406C00024030B528B32E
:1024200008C8134914221944B1FBF2F18900C163B1
:1024300010498163022141771A6843F6F0718A439B
:10244000D0E900142143D0E902452C43214304691B
:1024500021434469214384692143114319600021C8
:102460004163012242770177084630BD012030BD2B
:10247000F8FFFDBF0000024070B5044690F8200050
:10248000002501280CD0012084F8200094F8216058
:102490000020012E06D084F820000225284670BDB9
:1024A000022070BD022684F82160A06320680668BF
:1024B00026F0010606602046FFF78EFAE06A002843
:1024C0002068016802D041F00E0106E021F004010D
:1024D00001602068016841F00A010160206801681C
:1024E00041F001010160D9E770B5044600F0BAF986
:1024F0000546601C02D004480078044400F0B2F99C
:10250000401BA042FAD370BD240000202DE9F04703
:10251000054626480F460126017E01290FD00121DC
:10252000814601762868DFF888804CF25034022812
:1025300008D0A2462046FFF787FBA8B131E0022071
:10254000BDE8F0872046FFF77FFB08BB0120FFF7BF
:102550001BFB2046FFF778FBD8F81010064621F049
:102560000401C8F810101CE04FF0FF303860AC6870
:1025700011E02046FFF71AFB5046FFF765FBD8F83D
:102580001010060021F00201C8F8101001D03C60C4
:1025900007E004F58064D5E9020100EB8120A04248
:1025A000E7D8002189F818103046C9E7C00200209A
:1025B000002002400348016941F0800101610020D0
:1025C00070470000002002402DE9F05F07461C48DC
:1025D00088460024017E15461E46012909D00121A6
:1025E000814601764CF2503A5046FFF72DFB18B168
:1025F00022E00220BDE8F09F012F02D0022F00D080
:102600000427D346DFF83CA0220128463146FDF7D7
:102610003DFE81B208EB4400FFF7DAFA5846FFF7B7
:1026200013FBDAF8102022F00102CAF8102018B9C2
:10263000641CE4B2BC42E7D3002289F81820D9E731
:10264000C002002000200240064900200A6912064C
:1026500007D5054A4A60054A4A600969090600D556
:10266000012070470020024023016745AB89EFCD70
:102670002DE9F84FDFF8B8910024A9F1040B2346A7
:102680000F2709F1040AABF1040EC9E00125A540AA
:102690002A40AA427DD1674ED1F804C0ACEB0608AF
:1026A000B44532D014DCBCF1030F3AD009DCBCF1E4
:1026B000000F2AD0BCF1010F1CD0BCF1020F31D1A8
:1026C0001DE0BCF1110F17D0BCF1120F2AD119E097
:1026D000B8F5881F19D006DCB8F5803F15D0B8F5DD
:1026E000801F1FD111E0B8F5001F0ED0B8F5041FF0
:1026F00018D10AE0CB6815E0CB681B1D12E0CB684F
:1027000008330FE0CB680C330CE08B682BB1012B46
:102710004FF0080303D0456104E0042302E00561A3
:1027200000E00023FF2A01D8064601E000F104067C
:102730004FEA840501D9A5F12005D6F8008007FAF3
:1027400005FC28EA0C0803FA05F548EA0508C6F86E
:1027500000804D68ED0062D5374DAE6946F0010648
:10276000AE61AD6924F0030605F001050095334D17
:1027700006EB050CDCF80850A607360F07FA06F83A
:1027800025EA0805DFF8B880404503D14FF000087E
:1027900017E044E0DFF8AC80404502D14FF001087B
:1027A0000FE0DFF8A480404502D14FF0020808E0B6
:1027B000DFF89880404502D14FF0030801E04FF068
:1027C000040808FA06F848EA0508CCF808804D68BD
:1027D000D9F80060ED024D4601D5164300E096435E
:1027E0002E604D68DAF80060AD02554601D51643FB
:1027F00000E096432E604D68DBF80060AD035D4657
:1028000001D5164300E096432E604D68DEF8006067
:10281000ED03754601D5164300E096432E60641C17
:102820000D682A46E5407FF431AFBDE8F88F00001F
:102830000804014000001110001002400000014097
:1028400000080140000C014000100140001401404C
:102850008068084000D0012070470AB101617047CC
:102860000904FBE70148806870470000240000204D
:1028700070B5040025D094F83D00002520B984F8F7
:102880003C50204600F04EF9242084F83D0020689A
:10289000016821F0010101602068016841F40041F4
:1028A00001602068016821F40041016000F0B0FB84
:1028B0004D4A6168914201D84C4900E04C49884238
:1028C00001D2012070BD4B492368B0FBF1F15E6875
:1028D00026F03F060E435E606368934206D94FF4CC
:1028E000967359434FF47A73B1FBF3F12368491C93
:1028F0001E6A26F03F06314319626168914210D882
:102900004900401EB0FBF1F2521CC2F30B02042A34
:1029100001D2042022E0B0FBF1F0401CC0F30B0018
:102920001CE0A268F2B301EBC10303EB0116431EE6
:10293000B3FBF6F35B1C43F480431B0549D092B311
:1029400001EBC10202EB0111401EB0FBF1F0401C93
:10295000C0F30B0040F4804040F400402168CA6995
:102960004CF6FF739A431043C861D4E90710014342
:102970002068026822F0C00211430160D4E903011B
:1029800001432068826848F2FF339A431143816013
:10299000D4E9050108432168CA6822F0FF02104308
:1029A000C86001E00EE016E02068016841F0010116
:1029B00001602564202084F83D00256384F83E50A2
:1029C000002070BD01EB4106431EB3FBF6F35B1C18
:1029D000B3E70120C2E701EB4101401EB0FBF1F07B
:1029E000401CC0F30B00B7E7A086010080841E00E6
:1029F00000093D0040420F002DE9F84F1F46904668
:102A00008A460446DDF82890FFF72CFF054694F827
:102A10003D0020287FD119230122404920460095FE
:102A200001F0A0F9002876D194F83C00012872D07A
:102A3000012084F83C0020680168C90703D10168BF
:102A400041F0010101602068016821F4006101602A
:102A5000212084F83D00102084F83E0000262664E2
:102A6000C4F824806785608D20852D48E0622B4660
:102A70004A465146204601F0FBF890B9206841696A
:102A80008069009036E02A464946204601F010FA57
:102A900050B1206C042804D12068016841F4007111
:102AA00001600120BDE8F88F606A21680078086144
:102AB000606A401C6062618D491E6185218D491EDE
:102AC00089B2218522685369DB435B070BD451B17E
:102AD00000781061606A401C6062608D401E6085F5
:102AE000208D401E20852A464946204601F00EF9D9
:102AF0000028CED1208D0028C5D154F83D0B0168A7
:102B000041F400710160202004F81E09E677667721
:102B10000020C7E7FFE70220C4E700000200100022
:102B20000000FFFF10B586B00021009101910291D5
:102B3000039100680F4988421AD10F4CA06940F0F8
:102B40000800A061A069694600F008000490C02058
:102B5000009012200190032003900848FFF788FDA1
:102B6000E06940F40010E061E06900F400100490B6
:102B700006B010BD0054004000100240000C01409F
:102B80000248816802781144816070472400002067
:102B9000074810B5016841F010010160032000F002
:102BA000A7F80F2000F006F800F050F8002010BD44
:102BB0000020024030B505461F4887B0C16941F08A
:102BC0000401C161C06906A900F00400009001A8D9
:102BD00000F0FEF90498B0B100F01AFA400017496D
:102BE000174AB0FBF1F11748491E0260416040F2FC
:102BF000E7320021C0E903218160816100F014FC0B
:102C0000040003D015E000F003FAE8E70D4800F0F7
:102C100075FC04000DD11E2000F03CF8102D07D2E9
:102C2000002229461E2000F043F80748056000E016
:102C3000012407B0204630BD0010024040420F0082
:102C40000008004074020020280000200F4808B54A
:102C5000816941F001018161816901F00101009107
:102C6000C16941F08051C161C069002200F080500B
:102C700000900F21901E00F01BF80548416821F0DC
:102C8000E06141F00071416008BD000000100240A9
:102C900000000140002809DB00F01F0201219140E3
:102CA0004009800000F1E020C0F8001170470000EA
:102CB000F0B40E4B1B680C46C3F30223C3F10705A7
:102CC000042D00D90425191D072901D2002300E095
:102CD000DB1E012606FA05F1491E214099409E405F
:102CE000761E16403143F0BC02F02AB90CED00E02C
:102CF000064900F0070208684FF6FF03184040EA53
:102D00000220034A10430860704700000CED00E009
:102D10000000FA0510B501460020234C012922D0FD
:102D2000022939D010291DD161682268D20119D534
:102D30001E48C1F38342C903805C0AD561681B4AFF
:102D4000C1F34041921E515C194AB2FBF1F1484374
:102D500001E0184948436168490203D44000032157
:102D6000B0FBF1F010BD226AC2F30121012903D1A9
:102D7000920701D5C80310BD022905D1626A9207E6
:102D800002D549F6404010BD0329FCD121688903D2
:102D9000F9D54FF2244010BD00F04AF96168C1F343
:102DA0008131491C4900DBE700100240C46C000877
:102DB00000127A0000093D002DE9F843054600782D
:102DC000354CC00754D0E0690026C00008D4E06943
:102DD00040F08050E061E069012600F080500090F2
:102DE0002E480168C90512D40168804641F48071FB
:102DF0000160FFF737FD074605E000BFFFF732FD32
:102E0000C01B642823D8D8F80000C005F6D5206A76
:102E100010F4407021D0A98801F4407181421CD087
:102E2000206A1F49012220F440700A6000220A60D3
:102E30002062C00711D0FFF715FD074641F2883820
:102E400008E000BFFFF70EFDC11B414502D903207A
:102E5000BDE8F883206A8007F4D5206A696820F409
:102E60004070084320621EB1E06920F08050E061AC
:102E70002878800705D56068A96820F44040084399
:102E800060602878C00605D56068E96820F4800095
:102E9000084360600020DBE7001002400070004043
:102EA000400442422DE9F0470F46050061D0434EF1
:102EB000306800F00700B84209D2306820F00700FF
:102EC00038433060306800F00700B84251D12868BC
:102ED0003B4C810712D5400703D5606840F4E060A1
:102EE00060602878000703D5606840F46050606037
:102EF0006068A96820F0F000084360602878C00787
:102F000028D06868012810D02168022810D08907CD
:102F100000292EDA616821F0030101436160FFF7A7
:102F2000A1FC804641F288390DE021688903EFE772
:102F30008901EDE7FFF796FCA0EB0801494502D9AE
:102F40000320BDE8F0876068696800F00C00B0EB12
:102F5000810FEFD1306800F00700B8420BD930681C
:102F600020F0070038433060306800F00700B842B6
:102F700001D00120E5E72878400705D56068E968B9
:102F800020F4E060084360602878000706D5606898
:102F9000296920F4605040EAC100606000F058F8F0
:102FA0006168084AC1F30311515CC84006490860D2
:102FB00006480068FFF7FEFD0020C2E7002002403F
:102FC00000100240D46C00083000002028000020CF
:102FD0000F2202600C4A536803F0030343605368F6
:102FE00003F0F0038360536803F4E063C360526846
:102FF0004FF4E06303EAD20202610448006800F083
:1030000007000860704700000010024000200240E6
:103010000448054900684968044AC1F30221515C2B
:10302000C84070473000002000100240E46C0008E7
:103030000448054900684968044AC1F3C221515C4B
:10304000C84070473000002000100240E46C0008C7
:103050000E4A51680E4801F00C03042B11D0082BC6
:103060000FD10C48C1F38343C903C05C0AD5516832
:10307000084AC1F34041921E515C054A5043B0FBDF
:10308000F1F07047044948437047000000100240C7
:1030900000127A00B26C000800093D002DE9F84FDB
:1030A000040070D02078C04DC00749D06868C0F3D4
:1030B0008100012807D06868C0F38100022809D187
:1030C0006868C00306D52868800339D56068002881
:1030D000E7D035E06068B0F5803F0BD010B1B0F5B7
:1030E000A02F11D0286820F480302860286820F4B0
:1030F000802002E0286840F480302860606890B149
:10310000FFF7B0FB06460AE0286840F480202860FC
:10311000F0E700BFFFF7A6FB801B642873D8286880
:103120008003F7D50CE0FFF79DFB064605E000BFE6
:10313000FFF798FB801B6428F0D828688003F7D439
:1031400020789A4E80074FF001094FF0000839D5DA
:10315000686810F00C0F07D06868C0F3810002287F
:1031600009D16868C00306D42868800714D520698F
:10317000012808D110E02069B0B1C6F80090FFF72F
:1031800071FB074605E00AE1FFF76CFBC01B022854
:10319000C4D828688007F7D52868616920F0F8004E
:1031A00040EAC10028600DE0C6F80080FFF75AFB36
:1031B000074604E0FFF756FBC01B022823D8286807
:1031C0008007F7D4207800072CD57948A169D9B1B8
:1031D000C0F80090FFF746FB074604E0FFF742FB0C
:1031E000C01B02280FD8686A8007F7D571484FF4D2
:1031F000FA510068B0FBF1F0009000BF0098411E4A
:103200000091FAD20EE080E0C0F80080FFF72AFBC0
:10321000074604E0FFF726FBC01B022875D8686A42
:103220008007F7D42078400760D5E8690027C00000
:1032300008D4E86940F08050E861E869012700F0AF
:10324000805000905C480168C90513D4016883462A
:1032500041F480710160FFF705FB824606E000BF84
:10326000FFF700FBA0EB0A0064284ED8DBF8000053
:10327000C005F5D5E06801280AD008B1052813D0AB
:10328000286A20F001002862286A20F0040002E089
:10329000286A40F001002862E06841F2883B98B15A
:1032A000FFF7E0FA82460BE0286A40F0040028624B
:1032B000EEE700BFFFF7D6FAA0EB0A0159455AD84E
:1032C000286A8007F6D50CE0FFF7CCFA824605E0C5
:1032D000FFF7C8FAA0EB0A0159454CD8286A8007C5
:1032E000F6D41FB1E86920F08050E861E06988B346
:1032F0006968C1F38101022944D00228C6F86080C0
:1033000004D0FFF7AFFA044638E034E0FFF7AAFA3A
:10331000074604E0FFF7A6FAC01B02282BD828684E
:103320008001F7D4206AB0F5803F05D16868A168B4
:1033300020F4003008436860D4E908010843696854
:1033400021F4741108436860C6F86090FFF78AFAA8
:10335000044606E025E000BFFFF784FA001B0228C0
:1033600009D828688001F7D51BE000BFFFF77AFA7B
:10337000001B022802D90320BDE8F88F28688001CD
:10338000F4D40EE00128F7D06868226A00F4803196
:10339000914204D1616A00F47010884201D001208A
:1033A000EAE70020E8E70000001002400000424287
:1033B0008004424230000020007000407047704797
:1033C00070B590F83C20012A26D0012480F83C40BA
:1033D000022280F83D2003685A689D6822F070063A
:1033E0000A6832435A600D4B02689A4208D0B2F123
:1033F000804F05D00A4B9A4202D00A4B9A4204D120
:10340000496825F080031943916080F83D40002110
:1034100080F83C10084670BD022070BD002C0140B1
:10342000000400400008004010B5040003D094F8E8
:103430003D0010B107E0012010BD002084F83C00E1
:10344000204600F01FF8022084F83D00211D20686E
:1034500001F0DEFA012084F8460084F83E0084F88A
:103460003F0084F8400084F8410084F8420084F86A
:10347000430084F8440084F8450084F83D000020AF
:1034800010BD000008B500680649884208D106480A
:10349000C16941F00201C161C06900F00200009001
:1034A00008BD0000000400400010024090F83D10EC
:1034B000012901D001207047022180F83D100068E9
:1034C0000B49884208D0B0F1804F05D009498842A5
:1034D00002D00949884204D1816801F00701062918
:1034E00003D0016841F00101016000207047000035
:1034F000002C0140000400400008004090F83D10FE
:10350000012901D001207047022180F83D10016897
:10351000CA6842F00102CA6000680B49884208D0BC
:10352000B0F1804F05D00949884202D0084988424D
:1035300004D1816801F00701062903D0016841F038
:103540000101016000207047002C01400004004090
:103550000008004070B5044690F83C0000250128A2
:1035600017D0012684F83C60022084F83D002068D2
:10357000826822F0770222F47F4282600868502835
:1035800038D00DDC20284FD005DC90B3102811D1A5
:103590004AE0022070BD302846D040280AD13BE0E6
:1035A00060282FD070280DD0B0F5805F03D0B0F523
:1035B000005F12D0012584F83D60002084F83C00B3
:1035C000284670BDCB68D1E90121206801F05CFA82
:1035D0002068816841F0770109E0CB68D1E90121D9
:1035E000206801F051FA2068816841F480418160CF
:1035F000E1E719E0CA684968206801F057FA5021EC
:10360000206806E0CA684968206801F060FA602115
:10361000206801F043FACEE7CA684968206801F0E3
:1036200045FA40212068F4E7226801461046F0E799
:1036300070472DE9F04104460068C66805694FF0FF
:103640000007A90713D5B10711D5F91E01610120A3
:103650002077206880698007204602D0FFF7E8FFC6
:1036600004E000F07EF8204600F07CF82777680739
:1036700016D5700714D521686FF004000861022088
:1036800020772068806910F4407F204602D0FFF741
:10369000CFFF04E000F065F8204600F063F82777DC
:1036A000280715D5300713D521686FF00800086189
:1036B000042020772068C0698007204602D0FFF7E9
:1036C000B7FF04E000F04DF8204600F04BF82777F4
:1036D000E80616D5F00614D521686FF010000861D1
:1036E000082020772068C06910F4407F204602D06F
:1036F000FFF79EFF04E000F034F8204600F032F8B7
:103700002777E80708D0F00706D021686FF001009E
:103710000861204600F028F8280608D5300606D5AE
:1037200021686FF0800008612046FFF747FE6806B9
:1037300008D5700606D521686FF040000861204664
:1037400000F01CF8A8060AD5B00608D521686FF06D
:10375000200008612046BDE8F041FFF730BEBDE81B
:10376000F08170477047000000680349884201D12A
:10377000FFF706BA7047000000080040704738B5F0
:10378000044690F84200202801D0022038BD51B1F3
:103790004AB10120206300206063204601F01AFB3B
:1037A000216B012901D0012038BD21680A684968D0
:1037B000009121680C3151E8002F42F0100241E8DD
:1037C0000023002BF5D138BD0068054A904205D191
:1037D000002903D00348C180012101707047000017
:1037E000003801400000002070470000F8B5016873
:1037F00004460868CA684B6910F00F0F4FF00005C7
:1038000059D003F0010602F49077374365D0C10721
:1038100005D0D10503D5616C41F001016164410718
:1038200005D5D90703D0616C41F0020161648107BD
:1038300005D5D90703D0616C41F00401616401072B
:1038400007D502F02001314303D0616C41F008013B
:103850006164616C00293AD0800604D5900602D5D7
:10386000204601F0FAF920684069616CC0F38010CD
:10387000090700D460B3204601F0BAF92068406916
:10388000400621D52068143050E8001F21F0400187
:1038900040E80012002AF5D1E06BA8B16D49416300
:1038A000E06BFEF7C5FC002811D0E06B416B01B066
:1038B000BDE8F040084783060FD593060DD5204696
:1038C000BDE8F84001F0C9B92046FFF78DFFF8BD0B
:1038D0002046FFF789FF6564F8BD266B2023012E83
:1038E0007CD1C6067AD5D60678D508684868009097
:1038F00048694FF00206400640D5E16B0868406811
:103900000004000CE8D0A28D8242E5D9E0858869E8
:1039100020282DD020680C3050E8001F21F4807141
:1039200040E80012002AF5D12068143050E8001F4A
:1039300021F0010140E80012002AF5D1206814307E
:1039400050E8001F21F0400140E80012002AF5D1A4
:1039500084F84230256320680C3050E8001F21F0C5
:10396000100140E80012002AF5D1E06BFEF73CFCA4
:103970006663A08DE18D401A81B22AE0A08DE18DB1
:10398000401A81B2E08D0028A6D00029A4D0226878
:103990000C3252E8000F20F4907042E80007002F2C
:1039A000F5D12068143050E8002F22F0010240E8E1
:1039B0000027002FF5D184F84230256320680C30B1
:1039C00050E8002F22F0100240E80023002BF5D130
:1039D00066632046FFF7F8FEF8BDFFE705062BD526
:1039E000150629D594F841002128F5D1A068B0F535
:1039F000805F01D12069B0B1206A411C2162216839
:103A000000784860E08C401E0004000CE084E3D1A4
:103A10002068C16821F08001C1602068C16841F060
:103A20004001C160D8E7206A0088C0F30800486000
:103A3000206A801C2062E5E74006CDD55006CBD534
:103A4000CA68204622F04002CA6084F8413000F083
:103A5000F5F8C1E7F34A000870B5040004D094F803
:103A60004100002510B106E0012070BD84F84050EF
:103A7000204600F023F8242084F841002068C16823
:103A800021F40051C160204601F048F92068016925
:103A900021F4904101612068416921F02A014161CE
:103AA0002068C16841F40051C1606564202084F839
:103AB000410084F842006563002070BDF0B585B018
:103AC00000240646009401940294039400682D4952
:103AD000884254D12C48816941F4804181618169D7
:103AE00001F480410491816941F0040181618069A0
:103AF000264D00F0040004904FF400700090022066
:103B000001900320039069462846FEF7B1FD281571
:103B1000CDE90004694628460294FEF7A9FD1D4D33
:103B20001B488027C5E90004C5E902472C616C6188
:103B3000AC612846EC61FEF771FC08B1FEF722F893
:103B4000F5636E62134D12484435143801C51020D8
:103B500091C5104845F8104944306C61AC61EC6186
:103B6000FEF75CFC08B1FEF70DF8B56300220521F5
:103B700025206E62FFF79CF82520FFF78BF805B033
:103B8000F0BD000000380140001002400008014074
:103B900058000240EC010020704770472DE9F843BF
:103BA000044690F84100984616460D46202802D05B
:103BB0000220BDE8F88385B17EB100206064212039
:103BC00084F84100FEF74EFEA6848146E684A06894
:103BD0002027B0F5805F02D003E00120E9E72069EB
:103BE00010B12E4600250EE000260CE08021204674
:103BF00001F038F9A8B9C6B116F8010B2168486080
:103C0000E08C401EE084E08C4B464FF00002CDF883
:103C100000800028EAD14FF04001204601F022F94F
:103C200040B184F841700320C3E735F8020BC0F3BC
:103C30000800E3E784F841700020BAE77047FEE728
:103C400001684A69D24352050FD46FF480624A6119
:103C5000002140F8301F202242738173026942F034
:103C600004020261017301207047002070470000C8
:103C7000F8B50446C06A1E460D461746082807D008
:103C8000012805D010F5803F02D0206B122804D106
:103C90002068016841F480710160134600224FF0F2
:103CA00001112046009600F05DF840B120680068E0
:103CB000C00502D54FF4007020640320F8BD2069D0
:103CC000B0F5804F0ED00620216800EAD51040F0F4
:103CD000F000086133463A460B49204600F08AF866
:103CE00078B902E005F0FE0000E0E8B22168086162
:103CF000054933463A46891F204600F07BF80028E4
:103D0000DCD00120F8BD00000800010070B51646A7
:103D10000D4604461EE02046FFF792FF08B1012041
:103D200070BD681C16D0FEF79DFD801BA84200D810
:103D300085B920684069C04340070BD5002044F88E
:103D4000300F20216173A073216941F020012161AE
:103D50002073E4E720684069C0434007DBD40020BB
:103D600070BD00002DE9F047984617460D46044601
:103D7000C1F30746DDF820902AE000BFB8F1FF3F0D
:103D800026D0FEF76FFDA0EB0901414502D8B8F13E
:103D9000000F1DD12068012E16D0806925EA000091
:103DA0000004000C12D00020B84211D1002044F8C9
:103DB000300F20216173A073216941F0200121613E
:103DC00020730120BDE8F0874069E7E70120EBE7B9
:103DD0002068012E0AD0806925EA00000004000C4A
:103DE00006D00020B842C9D00020EBE74069F3E7D5
:103DF0000120F7E72DE9F047984616460D460446A0
:103E00004FF000094FF0200AC1F3074723E0206874
:103E10004069C043400515D42068016841F4007131
:103E2000016021686FF480604861C4F8309084F8C4
:103E30003DA084F83E90216C41F00401216484F897
:103E40003C9021E0701C06D0FEF70CFDA0EB0800B2
:103E5000B04203D816B1012F1FD021E02068012FF6
:103E600015D0806925EA00000004000C18D000BFBE
:103E700044F8309F84F80DA084F80E90216941F039
:103E80002001216184F80C900120BDE8F087406991
:103E900025EA00000004000CEAD12068406901E036
:103EA0002068806925EA00000004000CAFD1ECE72F
:103EB00070B516460D4604461EE02046FFF7C0FECC
:103EC00008B1012070BD681C16D0FEF7CBFC801B2A
:103ED000A84200D885B920684069C04300060BD5C8
:103EE000002044F8300F20216173A073216941F054
:103EF000200121612073E4E720684069C043000687
:103F0000DBD4002070BD00003EB5002411480094B1
:103F1000019402940E4984600160047304750125C4
:103F200005614FF460214460C161FDF7A5FF08B150
:103F3000FDF728FE0520CDE90005694602940548F5
:103F4000FDF718FF002801D0FDF71CFE3EBD000064
:103F500000240140D80000200D4808B5416941F017
:103F6000010141614069002200F00100009005213B
:103F70000E20FEF79DFE0E20FEF78CFE002205218E
:103F80000F20FEF795FEBDE808400F20FEF782BE29
:103F90000010024010B5044A0021044801F0EAF87C
:103FA0000349086010BD00008C6C000869490008D6
:103FB000200000202DE9F04786B000242C48009412
:103FC000019402940394816941F010018161816937
:103FD00001F010010491816941F020018161816942
:103FE00001F020010491816941F00401816181693E
:103FF00001F004010491816941F008018161806947
:10400000012200F00800DFF86C8055030490294677
:104010004046FEF722FCDFF860900022022148466D
:10402000FEF71BFC0122DFF854A017033946504667
:10403000FEF713FC0126CDE90056022569464046ED
:10404000CDE90245FEF714FBCDE900566946484626
:10405000CDE90245FEF70CFBCDE9007669465046F6
:10406000CDE90245FEF704FB06B0BDE8F08700008D
:10407000001002400010014000080140000C014007
:104080000D4810B50B4901600C49416000214FF407
:1040900080428160C0E9031241618161C1610162B6
:1040A000FEF7E6FB002803D0BDE81040FDF76ABD2F
:1040B00010BD00000054004008010020A08601004F
:1040C00010B586B00024174800940194029403941C
:1040D00004941349059401604721C0E901144FF687
:1040E000FF71C0E903148461FFF79EF908B1FDF781
:1040F00049FD4FF48050009069460A48FFF72AFABC
:1041000008B1FDF73FFD049404A906480594FFF7A4
:1041100057F9002801D0FDF735FD06B010BD0000AD
:10412000000400405C0100200C4810B50A49016001
:104130004FF416514160002181600C22C160C0E93A
:1041400004128161C161FFF787FC002803D0BDE83C
:104150001040FDF717BD10BD00380140A40100203C
:10416000FEE70000F0B520490324C1B0488842BAF8
:10417000888840BA002835D015184FF480739D42C6
:1041800030D8052505EB40059D422BD80B788DF8DE
:10419000003049788DF8011041008DF8021000219F
:1041A0006D46124F0BE0531837F81360330A2B5546
:1041B000641CA3B2EE545B1C491C9CB289B28142C0
:1041C000F1D321462846FDF71BFB2855641CA1B2FC
:1041D000000A6854491C8AB24FF0FF33694604480C
:1041E000FFF7DCFC41B0F0BDB41D0020B41B002083
:1041F000A40100201CB5124A508841BA9088FF29BA
:1042000043BA1CD8084600F021F8002817D00D4802
:1042100020F81130106800909088ADF80400062155
:104220006846FDF7EDFA8DF80600000A8DF80700E4
:104230004FF0FF33082269460348FFF7AFFC1CBD6F
:10424000B41D0020B41B0020A401002020280BD0A6
:1042500004DC102808D0112804D105E0212803D05F
:10426000312801D0002070470120704710B54FF46D
:1042700000710A48FCF7FFF9084800214FF49672D4
:1042800020F8201F41808180C18002844FF4487251
:10429000428420F8401F0121418010BDB41B002042
:1042A00070B5194D2888042827D31848184C90F861
:1042B00062002178814220D128882988204410F882
:1042C000020C214411F8011C40EA01262888801EB6
:1042D00081B22046FDF794FA86420ED16078032819
:1042E00002D0062809D105E02888082805D1FFF763
:1042F00039FF06E02888082801D0002070BDFFF7AC
:1043000079FF012070BD000006000020B41B0020D2
:10431000B41D0020FEE7000070B58EB000F03CF93F
:10432000534E0A253088B0FBF5F1B0FBF5F205FBE2
:10433000110350A101A8FBF7BDFF0024504B01AAB7
:1043400021462046009400F03FF9B6F84000B0FB4B
:10435000F5F1B0FBF5F205FB11034AA101A8FBF74B
:10436000A9FF474B01AA00214020009400F02CF93E
:104370007088B0FBF5F1B0FBF5F205FB110344A129
:1043800001A8FBF797FF3E4B01AA102100200094E3
:1043900000F01AF9B6F84200B0FBF5F1B0FBF5F207
:1043A00005FB11033DA101A8FBF784FF344B01AAD3
:1043B00010214020009400F007F9B6F860203AA1DF
:1043C00001A8FBF777FF2E4B01AA202100200094C3
:1043D00000F0FAF8F08CA8B135A236A101A8FBF7DD
:1043E00069FF274B01AA20214020009400F0ECF83F
:1043F000324D6878A978084306D031A101A8FBF7AF
:1044000059FF0AE030A2E8E7308C08B12FA200E0A3
:104410002FA230A101A8FBF74DFF194B01AA3021B3
:104420000020009400F0D0F8708C08B127A200E0C2
:1044300027A22AA101A8FBF73DFF114B01AA3021B9
:104440002820009400F0C0F8286902F02FFA0246F4
:104450000B4624A101A8FBF72DFF094B01AA30212F
:104460005020009400F0B0F800F0E0F90EB070BDFC
:10447000B41B0020543A2532642E2564000000004D
:104480007473000854483A2532642E2564000000F5
:10449000483A2532642E25640000000048483A2539
:1044A00032642E2564000000414C3A253032580019
:1044B00045520000433A2573000000000000002030
:1044C0004C3A464C410000004F4B000031000000C8
:1044D000300000004C3A257300000000423A25737A
:1044E00000000000563A25312E31660010B56420D8
:1044F000FDF7FAFFAE2000F0D1F8D52000F0CEF89D
:10450000802000F0CBF8A82000F0C8F83F2000F091
:10451000C5F8D32000F0C2F8002000F0BFF840201A
:1045200000F0BCF88D2000F0B9F8142000F0B6F8C7
:10453000202000F0B3F8022000F0B0F8A12000F035
:10454000ADF8C82000F0AAF8DA2000F0A7F8122091
:1045500000F0A4F8812000F0A1F8CF2000F09EF830
:10456000D92000F09BF8F12000F098F8DB2000F053
:1045700095F8402000F092F8A42000F08FF8A620D3
:1045800000F08CF800F008F800F050F9BDE8104099
:10459000AF2000F083B800004FF480610148FCF7C1
:1045A0006AB80000351F00203CB51C78059D203AF4
:1045B000CDE900455D68E41D5B78E408544303FBE6
:1045C000045200F0CBF83CBD2DE9FF4F1878597824
:1045D000C01DC00800254843001D83B01C46174677
:1045E00000F0FF0A2AE07819814600F07CFC5FEABF
:1045F000000826D000260AE06168484606FB0A1B30
:1046000042465946FBF7BEFFF0B1761CF6B2207A5F
:10461000B042F1D810980090E368B8F1010F20D0B3
:10462000DDE903012022FFF7BFFFE068417803982E
:104630000844C0B2039005EB080085B2785D0028FD
:10464000D1D107B0BDE8F08F10992078CDE90001F5
:104650006378DDE903010BF1040200F07FF8617873
:10466000E5E77A5DDDE90301FFF79EFFE0686D1C79
:10467000ADB2417803980844C0B20390DEE7000071
:1046800008B54FF0FF3200920B46024678210248EF
:10469000FEF7B2F908BD0000080100200249487089
:1046A00002210148FFF7ECBFB60000202DE9FC41D4
:1046B00080460720CDE9000301F00704CD08164627
:1046C00002FA04F01F46C2B223464146284600F0D3
:1046D00089F8002C0CD0601EC0B2CDE90007C4F1EF
:1046E000080026FA00F2681C0023414600F07AF820
:1046F000BDE8FC812DE9FC4301F007061446CD0816
:104700009846814601F0070106EB080204FA01F021
:10471000099F082A16D90721CDE90017C2B23346EE
:104720004946284600F05EF808EB06000938C0B29A
:10473000CDE90007C6F1080024FA00F2681C002346
:10474000494607E0521ED1B2CDE90017C2B2334646
:104750004946284600F046F8BDE8FC832DE9FF4FA6
:1047600082B01D460F989346C70800F007008846A0
:104770000026019018E0029800240BEB060A00EBDB
:1047800006090DE004FB05F0109B10F80A2008EB69
:10479000C400C1B209F0FF00FFF788FF641CE4B257
:1047A000BC42EFD3761CF6B2AE42E4D301980028A7
:1047B00015D005FB07F6002408EBC7070DE010989D
:1047C0000090311902981BF801202044F9B2C0B2C0
:1047D000019BFFF78FFF641CE4B2AC42EFD306B03D
:1047E000BDE8F08FF0B50828DDE9056419D280290D
:1047F00017D20CB1D243D2B2FF25761C05FA06F6C9
:10480000C3F10803084F46EA0204DD4007EBC01776
:10481000044B785CB2432C43AA4320401A701043E7
:104820007854F0BDB4000020351F002070B5104D45
:1048300040200024287005F1810600BF04F1B0007B
:10484000C0B2FFF72BFF0020FFF728FF1020FFF773
:1048500025FF06EBC4118022681CFBF7BFFE8121F7
:104860000348FFF70DFF641CE4B2082CE6D370BDCB
:10487000B41E00200648012101804FF4967141804A
:104880004FF42F7181804AF25A51C1807047000065
:10489000C00000200F4800B5C188A1F525425A3A52
:1048A00009D1018839B1F72905D80B4902688A6016
:1048B0004068C86001E0FFF7DDFF0748074908309E
:1048C0000288A1F86220428821F8402F8088488021
:1048D00000BD000000FC0008B8000020B41B002050
:1048E00010B5034C01202070FDF7BCFF606010BDC7
:1048F000B800002070B586B0184D19490024049402
:104900002846B1F86220028031F8402F4280498861
:1049100081804AF25A51C180FDF796FE114E012066
:10492000CDE9026004A900946846FDF7EFFD40B9A7
:1049300035F8142006EB440100230120FDF744FE66
:1049400020B1FDF737FE002006B070BD641CA4B294
:10495000042CEDD3FDF72EFE0120F5E7C00000206A
:10496000B41B002000FC0008012000F0C7FBFBE79F
:1049700010B54FF0E020006901F0C6FD012803D01A
:10498000BDE8104001F0F4BA10BD30B593B0282155
:104990006846FBF792FE14210AA8FBF78EFE00255D
:1049A00001200F9510951195010412958DE82300B3
:1049B00004904FF4E010CDE90810022407946846F3
:1049C000FEF76CFB08B172B6FEE70AA90F2081E87A
:1049D00031004FF48060CDE90D0502210AA8FEF7F1
:1049E00061FA08B172B6FEE74FF4004011900F94DF
:1049F0000FA8FEF7E1F9002801D072B6FEE713B068
:104A000030BD70470148FEF714BE0000740200205C
:104A1000F0B50268194B1A4C1A4D4FF08047984276
:104A200005D0B84203D0A04201D0A84203D122F061
:104A300070064A683243984205D0B84203D0A0427B
:104A400001D0A84203D122F44074CA6822434C69C1
:104A500022F08002224302608A68C2620A6882628F
:104A6000984201D109690163012141610169C907C6
:104A700003D0016921F001010161F0BD002C01406A
:104A8000000400400008004010B5846842EA032298
:104A900024F47F440A432243826010BD826822F0DE
:104AA00070020A4342F007018160704710B5036A43
:104AB000046A24F001040462846924F0F00444EAE6
:104AC000021423F00A020A438461026210BD10B589
:104AD000036A046A24F010040462846923F0A003CA
:104AE00024F4704444EA023243EA01118261016213
:104AF00010BD10B5406A0021C185C184FEF774FE67
:104B000010BD70B5446A2068406994F84110C0F344
:104B1000C0100025212904D118B1E584204600F0F9
:104B20008EF82068406994F84210C0F38010222962
:104B300004D118B1E585204600F05AF8606C40F0C9
:104B4000100060642046FEF74FFE70BD10B50146B0
:104B5000406A096809684FF0000289062ED4C285B0
:104B600001680C3151E8003F23F4807341E80034C0
:104B7000002CF5D10168143151E8003F23F0010306
:104B800041E80034002CF5D10168143151E8003FB0
:104B900023F0400341E80034002CF5D1202180F8B7
:104BA0004210016B012909D101680C3151E8003F25
:104BB00023F0100341E80034002CF5D14263016B6F
:104BC000012902D0FEF7E8FF10BD818DFEF7FCFD44
:104BD00010BD10B5406A01214163016B012902D06B
:104BE000FEF7DBFF10BD818D4908FEF7EDFD10BD1E
:104BF00001680C3151E8002F22F4907241E8002343
:104C0000002BF5D10168143151E8002F22F0010288
:104C100041E80023002BF5D1016B012909D101687E
:104C20000C3151E8002F22F0100241E80023002B44
:104C3000F5D1202180F842100021016370470168FE
:104C40000C3151E8002F22F0C00241E80023002B74
:104C5000F5D1202180F84110704708B590F8421036
:104C6000222901D0022008BD82684FF480539A4265
:104C700001D1016921B1816A9A421BD04AB10AE08F
:104C80000268816A5268C2F308020A80816A891C3C
:104C900008E0026972B10268526802F07F020A708D
:104CA000816A491C8162C18D491E0904090CC185B4
:104CB00003D01BE002685268F1E70168CA6822F07D
:104CC0002002CA600168CA6822F48072CA60016862
:104CD0004A6922F001024A61202180F84210002135
:104CE0004163026B012A03D0FEF756FF002008BD86
:104CF000016301680C3151E8002F22F0100241E8F5
:104D00000023002BF5D101680A68D20602D50A6893
:104D100049680091818DFEF757FDE7E770B50446BD
:104D200000680169E26821F4405111430161216981
:104D3000A0680843616908432168CA6841F20C63AE
:104D40009A430243CA6020684169A26921F4407114
:104D5000114341611E492068884202D1FEF768F97B
:104D600001E0FEF755F900EBC00101EB00126068AD
:104D700064218000B2FBF0F3B3FBF1F36FF018068F
:104D80007343B2FBF0F5B2FBF0F605EB830532237B
:104D900003EB0515B5FBF1F5B6FBF1F605F0F005F3
:104DA00005EB0615B2FBF0F6B2FBF0F0B0FBF1F04C
:104DB0006FF01802504306EB800003EB0010B0FBCD
:104DC000F1F0216800F00F002844886070BD0000F9
:104DD0000038014038B581620446828500201346C0
:104DE0006064222284F84220E56B1B4AAA62E56BCC
:104DF0001A4AEA62E56B1A4A2A63E26B50630A4672
:104E00002168E06B091DFDF737FB206801684068E9
:104E10000090206948B120680C3050E8001F41F430
:104E2000807140E80012002AF5D12068143050E863
:104E3000001F41F0010140E80012002AF5D120686E
:104E4000143050E8001F41F0400140E80012002AF1
:104E5000F5D1002038BD00004D4B0008D34B0008B1
:104E6000034B00082DE9F843984617460D460446C3
:104E7000089E24E0701C22D0FDF7F4FCA0EB080093
:104E8000B0421AD8CEB12068C168490717D5802D25
:104E900015D0402D13D00168C94309070FD401680C
:104EA0000025406800902046FFF7A2FE08206064BD
:104EB00084F840500120BDE8F8830320FBE7206818
:104EC000006835EA000004D00020B842D2D00020AB
:104ED000F1E70120F9E700000148FEF787BC000078
:104EE000A4010020FEE70078010601D401207047EC
:104EF0000621B1EB501F01D1022070470E21B1EB0A
:104F0000101F01D1032070471E21B1EBD00F01D13A
:104F10000420704700207047490050EAC12018BFA4
:104F200004204A0D18BF40F0010040F2FF72B2EBBE
:104F3000515F08BF40F00200012808BF05207047FC
:104F40000907090E002804DB00F1E02080F80014B6
:104F5000704700F00F0000F1E02080F8141D70474A
:104F600030380A2801D20120704700207047000025
:104F7000044900220B685A6209684A6A8242FCD3DB
:104F8000704700005C010020FDF702FEFFF7FDFC0A
:104F9000FFF710F8FEF7E0FFFFF772F8FEF7B4FF37
:104FA000FFF7C2F8FFF78CF84C48FEF77FFA4C4841
:104FB000FCF774FE3220FDF797FAFFF797FAFFF738
:104FC00055F9FFF767FC474D474C4FF4807AB5F829
:104FD00062006081B5F84000A081B5F84200E08130
:104FE000524642494248FEF7CAFB414FF86B0068FF
:104FF000016821F00401016000F08EF8FEF7CAFF9D
:1050000000F09CF8DFF8ECB0A9464FF0000800BFB4
:10501000FDF728FC6169401AB0F57A7F06D3FDF7E9
:1050200021FC6061FCF75EFDFCF7ECFCFCF720FD69
:10503000FDF718FCA169401AB0F5FA7F04D3FDF71B
:1050400011FCA061FFF768F9B9F8620061894D466B
:10505000884209D1B5F84010A289914204D1B5F82F
:105060004210E289914208D06081B5F84000A081E9
:10507000B5F84200E081FFF733FC9BF800005E4684
:1050800058B1FDF7EFFB1C490968401AB0F5FA6FFB
:1050900003D386F80080FFF72DFC20780028B7D0D6
:1050A000464684F80080FFF7FBF8012813D0012062
:1050B000E884554651460D48FBF7DDFAE6802A465E
:1050C0000A490B48FEF75BFBF86B0068016821F0AA
:1050D000040101609CE7EE84EBE700005C01002026
:1050E000D8000020B41B002000000020B41D0020C8
:1050F000A4010020B8000020BC00002010B5EFF390
:10510000058111B16FF0050403E0002408B100F03F
:10511000F5FD204610BD0000EFF3058010B16FF0E3
:10512000050070470448016811B14FF0FF30704727
:1051300001210160002070478400002010B5EFF3CA
:10514000058010B16FF0050010BD08480168012905
:1051500002D04FF0FF3010BD054A002182F8141D27
:105160000221016000F032FE002010BD840000200A
:105170000BE000E02DE9FF414FEA01034FF000058D
:10518000EFF30581039549BB40B380271821002424
:105190004AB3166806B1344696691EB13146761E8A
:1051A000382E02D21679F60703D0002004B0BDE8ED
:1051B000F081566906B1B708D2F808C0BCF1000FFB
:1051C0000DD0D5685C2D18D312693AB136B18DE88F
:1051D00006103A46214601F06CF903900DE0D668BE
:1051E0005EB912694AB903AACDE90012BAB22146E2
:1051F00001F032F9012800D003950398D6E70000AA
:105200002DE9F041134C0F460546E6682068001D65
:1052100000F040FC681C07D137B12168BDE8F041BF
:105220000D48091D00F086BC20683544B542456034
:10523000216805D2A06BBDE8F041091D00F062BCF9
:10524000606B091D00F05EFCA06A854200D2A56279
:10525000BDE8F08134000020D00700202DE9F041A6
:10526000054600F073FC2D4CA068401CA06020682F
:105270002B4F10B1606930B32BE02560A068012886
:1052800027D1002606EB860007EB800000F02CFCFF
:10529000761C382EF6D3234800F026FC2148143023
:1052A00000F022FC1F48283000F01EFC1D483C3056
:1052B00000F01AFC1B48503000F016FC19486063DF
:1052C0001430A06305E02068E96AC06A884200D80B
:1052D0002560606A401C60626864E86A21698842EF
:1052E00000D9206100EB800007EB8000291D00F051
:1052F00021FC00F04BFC606900280CD02068E96AB2
:10530000C06A884207D208494FF080500860BFF356
:105310004F8FBFF36F8FBDE8F08100003400002095
:10532000200300208007002004ED00E038B500F0E5
:105330000DFC104C2068C8B90F4800F0D5FB0E4892
:10534000143000F0D1FB0C48E060143020610A4BAF
:105350000020F03B009003F1500210210A2000F0E1
:105360001DFE206010B105A100F092FCBDE83840A0
:1053700000F00CBC70000020D4080020546D725165
:105380000000000030B4026C0B46002A0BD0C1684C
:105390001144C1608468A14201D30168C16030BC7E
:1053A0001846FBF71BB930BC70472DE9F041856BFF
:1053B000174604460026026C82B1C7B1E068FBF7CD
:1053C0000DF9E168206C091AE1602268914202D26D
:1053D000A168081AE060022F16D017E02068A8B96B
:1053E000A06801F009F906460020A0600EE06068A0
:1053F000FBF7F4F8216C606808446060A16888429B
:1054000004D32068606001E005B16D1E6D1CA563CA
:105410003046BDE8F08110B5044690F8590058B107
:1054200001280CD002280FD0502080F31188BFF340
:105430004F8FBFF36F8FFEE7206B00F0BBFB204662
:10544000BDE8104000F0B6BB10BD000010484FF49E
:105450004061420706D0C01D0D4920F00700411AE7
:10546000C1F540610B4A00230144C2E90003083939
:10547000183A21F0070111604B600B600B1AC0E96C
:10548000001393604FF0004053605061704700007C
:10549000B40F0020A0000020144E154CA6F29C472B
:1054A0004FF08058DFF84C9012E000BF00F04EFB48
:1054B000F068C568281D00F0EDFAA068401EA060E5
:1054C0006068401E606000F061FB2846FFF7A3FFA4
:1054D00060680028EAD138680128F9D9C9F8008045
:1054E000BFF34F8FBFF36F8FF2E70000BC070020C0
:1054F0003400002004ED00E070B51D46049C51B15D
:10550000C4F80020C4E90F010121204600F07AFD13
:1055100084F84C5070BD2460F4E700002DE9F05F82
:105520008846DDE90B941546834691009A460A9E0B
:10553000A522206BFBF797F86FF00301206B01EBBE
:105540008501084420F00707780707D0502080F332
:105550001188BFF34F8FBFF36F8FFEE70025B8F1BF
:10556000000F0FD05FF00000221818F8001082F82A
:10557000341018F8001011B1401C1028F4D384F82E
:10558000435001E084F83450382E00D33726E662C9
:10559000C4E91365201D00F0B2FA04F1180000F010
:1055A000AEFA2461C6F138006462A061656584F8D2
:1055B000585052465946384600F05AFA2060B9F120
:1055C000000F01D0C9F80040BDE8F09F30B5114987
:1055D00000E011460A688242FBD34B685C188442A3
:1055E00003D1406818444860084643681C18944238
:1055F00009D1084C183C2468A24209D052681A44C8
:1056000042600A6812680260814200D0086030BDC2
:105610000460F9E7A000002070B5002441600B4D44
:105620000061914206D8D11A8269914206D2011DC9
:10563000286907E09A4203D2994201D3012403E08A
:10564000011DE86800F05EFA204670BD7000002081
:1056500010B5044600F07AFAA06B28B15FF00004A0
:1056600000F094FA204610BD0124F9E730B589B066
:105670003C4D6EE00498002806DADDE90601059A43
:1056800090470498002864DB069C606910B1201DD7
:1056900000F000FA03A800F0D7F8024604980A28A0
:1056A00057D2DFE800F00505052D334A05052D33F7
:1056B00094F8280040F0010084F828000599A069BA
:1056C000059B01442046FFF7A7FF68B3216A2046E7
:1056D000884794F8280040073BD5002000900598A3
:1056E000A169002342181946204601F08FF8D8B965
:1056F000502080F31188BFF34F8FBFF36F8FFEE709
:1057000014F8280F20F00100207022E094F82800FF
:1057100040F0010084F828000598A06128B18118A4
:1057200013462046FFF778FF13E0502080F31188DE
:10573000BFF34F8FBFF36F8FFEE794F82800810708
:1057400003D4204600F036FA03E020F0010084F88C
:105750002800002204A9286800F0A8FD002889D1AB
:1057600009B030BD700000202DE9FC410F46054610
:1057700000F070FB01A800F067F80446019818B12A
:1057800000F0B2FFBDE8FC81254EAFB13069006882
:10579000D0B30027291B3A46306800F08DFA00F09C
:1057A000A3FF0028EED11F494FF080500860BFF3DF
:1057B0004F8FBFF36F8FE5E7A542EBD800F094FF62
:1057C000F0682746C068C468201D00F063F994F8AB
:1057D0002800410719D5A0692B4641193A462046B1
:1057E000FFF71AFFA8B100200346014600902A46A1
:1057F000204601F00BF860B9502080F31188BFF308
:105800004F8FBFF36F8FFEE707E020F0010084F8B1
:105810002800216A20468847B4E70127BAE700003C
:105820007000002004ED00E00648416B096829B1D2
:10583000416BC968C9684968816270474FF0FF31A0
:10584000FAE700003400002070B5054600F06AFE5B
:10585000064E0446B068844203D200F009F80120E5
:1058600000E0002028602046B46070BD7000002079
:10587000F8B5194D20E0C068C4680668201D00F026
:1058800009F9216A2046884794F82800400713D573
:10589000A0693044B04206D924616060211DE868E7
:1058A00000F030F908E0002003460146009032463F
:1058B000204600F0ABFF38B1E86801680029DAD172
:1058C0002969C5E90310F8BD502080F31188BFF3A2
:1058D0004F8FBFF36F8FFEE77000002008484068CD
:1058E000401C4FF0500080F3118804D0BFF34F8F5D
:1058F000BFF36F8FFEE7BFF34F8FBFF36F8FFEE7EE
:10590000A8000020074CE068016841B1C068002190
:10591000D0F80000FFF728FFFFF7A8FEF3E701210A
:105920000020F7E7700000202DE9F041044600F068
:105930000DF994F9455004F1240609E0606A48B174
:10594000304600F099FE08B100F006FA6D1E6DB207
:10595000002DF3DC4FF0FF3684F8456000F016F9B7
:1059600000F0F4F894F9445004F1100709E02069BC
:1059700048B1384600F080FE08B100F0EDF96D1E28
:105980006DB2002DF3DC84F84460BDE8F04100F016
:10599000FDB800002DE9F0410546002700F05AFA55
:1059A000324E306808B9FFF751FD706905424ED19B
:1059B000C5B3083568070ED005F00700C0F1080030
:1059C0000544680707D0502080F31188BFF34F8F3C
:1059D000BFF36F8FFEE72DB37068854237D8234839
:1059E000183001460C6801E020460C466168A94267
:1059F00002D221680029F7D131688C4227D007688C
:105A00002168016060680837411B10290FD96019AF
:105A1000420708D0502080F31188BFF34F8FBFF3A7
:105A20006F8FFEE713E041606560FFF7CFFD6168AF
:105A30007068401A7060B268904200D2B0607069BD
:105A400001430020C4E90001F068401CF06000F050
:105A50004BFE780707D0502080F31188BFF34F8F9B
:105A6000BFF36F8FFEE73846BDE8F0818800002065
:105A700010B5031F4FF080741C601B1F21F0010143
:105A80001960191F024B0B60143940380A6010BDB1
:105A9000DD580008D0E9013201699A60D0E901239C
:105AA0005A604A68824201D182684A6000220261DB
:105AB0000868401E0860086870470000034B0360D8
:105AC00003F15C000860802010607047FC08002033
:105AD000044B036003F15C0008604FF480701060B9
