:020000040800F2
:10000000500B002089010008CF120008450F00089E
:10001000CD1200081B040008C116000800000000F3
:100020000000000000000000000000005B16000857
:100030001D04000800000000591600085D160008A5
:10004000A3010008A3010008A3010008A301000800
:10005000A3010008A3010008A3010008A3010008F0
:10006000A3010008A3010008A3010008A3010008E0
:10007000A3010008A3010008A3010008A3010008D0
:10008000A3010008A3010008A3010008A3010008C0
:10009000A3010008A3010008A3010008A3010008B0
:1000A000A3010008A3010008A3010008A3010008A0
:1000B000A3010008A3010008A3010008A301000890
:1000C000A3010008A3010008A3010008A301000880
:1000D000A3010008A3010008A3010008A301000870
:1000E000A3010008A3010008A301000800F002F822
:1000F00000F03AF80AA090E8000C82448344AAF188
:100100000107DA4501D100F02FF8AFF2090EBAE885
:100110000F0013F0010F18BFFB1A43F0010318473B
:10012000041D0000241D0000103A24BF78C878C1C7
:10013000FAD8520724BF30C830C144BF04680C60ED
:10014000704700000023002400250026103A28BF35
:1001500078C1FBD8520728BF30C148BF0B60704739
:100160001FB51FBD10B510BD00F01DF91146FFF7FA
:10017000F7FF01F0CFFA00F03BF903B4FFF7F2FF0D
:1001800003BC00F043F900000948804709480047D4
:10019000FEE7FEE7FEE7FEE7FEE7FEE7FEE7FEE737
:1001A000FEE7FEE704480549054A064B7047000094
:1001B000BF160008ED00000850050020500B00207D
:1001C000500700205007002040EA010310B59B07AC
:1001D0000FD1042A0DD310C808C9121F9C42F8D0B1
:1001E00020BA19BA884201D9012010BD4FF0FF3062
:1001F00010BD1AB1D30703D0521C07E0002010BD78
:1002000010F8013B11F8014B1B1B07D110F8013B03
:1002100011F8014B1B1B01D1921EF1D1184610BDE4
:10022000032A40F2308010F0030C00F0158011F822
:10023000013BBCF1020F624498BF11F801CB00F8FA
:10024000013B38BF11F8013BA2F1040298BF00F84E
:1002500001CB38BF00F8013B11F0030300F07180BF
:10026000083AC0F0088051F8043B083A51F804CB32
:10027000A0E80810F5E7121D5CBF51F8043B40F8F8
:10028000043BAFF30080D20724BF11F8013B11F803
:1002900001CB48BF11F8012B24BF00F8013B00F847
:1002A00001CB48BF00F8012B70474FF00002042932
:1002B000C0F0128010F0030C00F01B80CCF1040C95
:1002C000BCF1020F18BF00F8012BA8BF20F8022BC9
:1002D000A1EB0C0100F00DB85FEAC17C24BF00F86F
:1002E000012B00F8012B48BF00F8012B70474FF09D
:1002F000000200B5134694469646203922BFA0E876
:100300000C50A0E80C50B1F12001BFF4F7AF090781
:1003100028BFA0E80C5048BF0CC05DF804EB890072
:1003200028BF40F8042B08BF704748BF20F8022BB5
:1003300011F0804F18BF00F8012B704770477047CD
:10034000704710B5203AC0F00B80B1E81850203A41
:10035000A0E81850B1E81850A0E81850BFF4F5AF65
:100360005FEA027C24BFB1E81850A0E8185044BFEF
:1003700018C918C0BDE810405FEA827C24BF51F85C
:10038000043B40F8043B08BF7047D20728BF31F850
:10039000023B48BF11F8012B28BF20F8023B48BFA1
:1003A00000F8012B7047754600F02CF8AE460500AA
:1003B0006946534620F00700854618B020B5FFF780
:1003C000F1FEBDE820404FF000064FF000074FF06F
:1003D00000084FF0000B21F00701AC46ACE8C00963
:1003E000ACE8C009ACE8C009ACE8C0098D4670476C
:1003F00010B50446AFF300802046BDE81040FFF77B
:10040000BCBE000000487047EC04002001491820E1
:10041000ABBEFEE7260002007047FEE7704772B6EB
:10042000FEE7000070B5044600F004F90546601CC4
:1004300002D004480078044400F0FCF8401BA042BD
:10044000FAD370BD000000202DE9F84FDFF8B89115
:100450000024A9F1040B23460F2709F1040AABF18C
:10046000040EC9E00125A5402A40AA427DD1674E6D
:10047000D1F804C0ACEB0608B44532D014DCBCF1B2
:10048000030F3AD009DCBCF1000F2AD0BCF1010FF8
:100490001CD0BCF1020F31D11DE0BCF1110F17D0FF
:1004A000BCF1120F2AD119E0B8F5881F19D006DC6B
:1004B000B8F5803F15D0B8F5801F1FD111E0B8F511
:1004C000001F0ED0B8F5041F18D10AE0CB6815E064
:1004D000CB681B1D12E0CB6808330FE0CB680C33F0
:1004E0000CE08B682BB1012B4FF0080303D0456162
:1004F00004E0042302E0056100E00023FF2A01D8A4
:10050000064601E000F104064FEA840501D9A5F191
:100510002005D6F8008007FA05FC28EA0C0803FA43
:1005200005F548EA0508C6F800804D68ED0062D57B
:10053000374DAE6946F00106AE61AD6924F00306A1
:1005400005F001050095334D06EB050CDCF808506D
:10055000A607360F07FA06F825EA0805DFF8B8807F
:10056000404503D14FF0000817E044E0DFF8AC80CD
:10057000404502D14FF001080FE0DFF8A48040456C
:1005800002D14FF0020808E0DFF89880404502D120
:100590004FF0030801E04FF0040808FA06F848EAB3
:1005A0000508CCF808804D68D9F80060ED024D468A
:1005B00001D5164300E096432E604D68DAF80060DE
:1005C000AD02554601D5164300E096432E604D68B6
:1005D000DBF80060AD035D4601D5164300E09643AD
:1005E0002E604D68DEF80060ED03754601D51643B8
:1005F00000E096432E60641C0D682A46E5407FF4B7
:1006000031AFBDE8F88F0000080401400000111070
:10061000001002400000014000080140000C0140B1
:1006200000100140001401400AB101617047090443
:10063000FBE70000014880687047000000000020D0
:1006400070B5040025D094F83D00002520B984F849
:100650003C50204600F04EF9242084F83D002068EC
:10066000016821F0010101602068016841F4004146
:1006700001602068016821F40041016000F088FAFF
:100680004D4A6168914201D84C4900E04C4988428A
:1006900001D2012070BD4B492368B0FBF1F15E68C7
:1006A00026F03F060E435E606368934206D94FF41E
:1006B000967359434FF47A73B1FBF3F12368491CE5
:1006C0001E6A26F03F06314319626168914210D8D4
:1006D0004900401EB0FBF1F2521CC2F30B02042A87
:1006E00001D2042022E0B0FBF1F0401CC0F30B006B
:1006F0001CE0A268F2B301EBC10303EB0116431E39
:10070000B3FBF6F35B1C43F480431B0549D092B363
:1007100001EBC10202EB0111401EB0FBF1F0401CE5
:10072000C0F30B0040F4804040F400402168CA69E7
:100730004CF6FF739A431043C861D4E90710014394
:100740002068026822F0C00211430160D4E903016D
:1007500001432068826848F2FF339A431143816065
:10076000D4E9050108432168CA6822F0FF0210435A
:10077000C86001E00EE016E02068016841F0010168
:1007800001602564202084F83D00256384F83E50F4
:10079000002070BD01EB4106431EB3FBF6F35B1C6A
:1007A000B3E70120C2E701EB4101401EB0FBF1F0CD
:1007B000401CC0F30B00B7E7A086010080841E0038
:1007C00000093D0040420F002DE9F84F1F469046BA
:1007D0008A460446DDF82890FFF72CFF054694F87A
:1007E0003D0020287FD11923012240492046009551
:1007F00000F03AFC002876D194F83C00012872D031
:10080000012084F83C0020680168C90703D1016811
:1008100041F0010101602068016821F4006101607C
:10082000212084F83D00102084F83E000026266434
:10083000C4F824806785608D20852D48E0622B46B2
:100840004A465146204600F095FB90B92068416920
:100850008069009036E02A464946204600F0AAFC0E
:1008600050B1206C042804D12068016841F4007163
:1008700001600120BDE8F88F606A21680078086196
:10088000606A401C6062618D491E6185218D491E30
:1008900089B2218522685369DB435B070BD451B1D0
:1008A00000781061606A401C6062608D401E608547
:1008B000208D401E20852A464946204600F0A8FB90
:1008C0000028CED1208D0028C5D154F83D0B0168F9
:1008D00041F400710160202004F81E09E677667774
:1008E0000020C7E7FFE70220C4E700000200100075
:1008F0000000FFFF10B586B0002100910191029128
:10090000039100680F4988421AD10F4CA06940F04A
:100910000800A061A069694600F008000490C020AA
:10092000009012200190032003900848FFF78CFDEF
:10093000E06940F40010E061E06900F40010049008
:1009400006B010BD0054004000100240000C0140F1
:1009500002488168027811448160704700000020DD
:10096000074810B5016841F010010160032000F054
:1009700067F80F2000F006F800F024F8002010BD02
:100980000020024070B50D4D04464FF47A7128786E
:10099000B1FBF0F00A490968B1FBF0F000F0BEFAD3
:1009A00048B9102C07D200222146501E00F028F82A
:1009B00000206C6070BD012070BD000000000020B0
:1009C0000C0000200C4808B5816941F001018161EB
:1009D000816901F001010091C16941F08051C1615B
:1009E000C06900F0805000900448416821F0E06147
:1009F00041F00071416008BD00100240000001405C
:100A0000F0B40E4B1B680C46C3F30223C3F1070579
:100A1000042D00D90425191D072901D2002300E067
:100A2000DB1E012606FA05F1491E214099409E4031
:100A3000761E16403143F0BC00F05CBE0CED00E0C9
:100A4000064900F0070208684FF6FF03184040EA25
:100A50000220034A10430860704700000CED00E0DC
:100A60000000FA052DE9F0470F46050061D0434E1E
:100A7000306800F00700B84209D2306820F0070063
:100A800038433060306800F00700B84251D1286820
:100A90003B4C810712D5400703D5606840F4E06005
:100AA00060602878000703D5606840F4605060609B
:100AB0006068A96820F0F000084360602878C007EB
:100AC00028D06868012810D02168022810D0890732
:100AD00000292EDA616821F0030101436160FFF70C
:100AE000A9FD804641F288390DE021688903EFE7CE
:100AF0008901EDE7FFF79EFDA0EB0801494502D90A
:100B00000320BDE8F0876068696800F00C00B0EB76
:100B1000810FEFD1306800F00700B8420BD9306880
:100B200020F0070038433060306800F00700B8421A
:100B300001D00120E5E72878400705D56068E9681D
:100B400020F4E060084360602878000706D56068FC
:100B5000296920F4605040EAC100606000F028F884
:100B60006168084AC1F30311515CC8400649086036
:100B700006480068FFF706FF0020C2E70020024099
:100B800000100240721700080C0000200400002032
:100B90000448054900684968044AC1F30221515CD0
:100BA000C84070470C000020001002408217000867
:100BB0000E4A51680E4801F00C03042B11D0082B8B
:100BC0000FD10C48C1F38343C903C05C0AD55168F7
:100BD000084AC1F34041921E515C054A5043B0FBA4
:100BE000F1F070470449484370470000001002408C
:100BF00000127A006217000800093D002DE9F84F45
:100C0000040070D02078C04DC00749D06868C0F398
:100C10008100012807D06868C0F38100022809D14B
:100C20006868C00306D52868800339D56068002845
:100C3000E7D035E06068B0F5803F0BD010B1B0F57B
:100C4000A02F11D0286820F480302860286820F474
:100C5000802002E0286840F480302860606890B10D
:100C6000FFF7E8FC06460AE0286840F48020286088
:100C7000F0E700BFFFF7DEFC801B642873D828680C
:100C80008003F7D50CE0FFF7D5FC064605E000BF72
:100C9000FFF7D0FC801B6428F0D828688003F7D4C5
:100CA00020789A4E80074FF001094FF0000839D59F
:100CB000686810F00C0F07D06868C0F38100022844
:100CC00009D16868C00306D42868800714D5206954
:100CD000012808D110E02069B0B1C6F80090FFF7F4
:100CE000A9FC074605E00AE1FFF7A4FCC01B0228A7
:100CF000C4D828688007F7D52868616920F0F80013
:100D000040EAC10028600DE0C6F80080FFF792FCC1
:100D1000074604E0FFF78EFCC01B022823D8286892
:100D20008007F7D4207800072CD57948A169D9B17C
:100D3000C0F80090FFF77EFC074604E0FFF77AFC5E
:100D4000C01B02280FD8686A8007F7D571484FF496
:100D5000FA510068B0FBF1F0009000BF0098411E0E
:100D60000091FAD20EE080E0C0F80080FFF762FC4C
:100D7000074604E0FFF75EFCC01B022875D8686ACE
:100D80008007F7D42078400760D5E8690027C000C5
:100D900008D4E86940F08050E861E869012700F074
:100DA000805000905C480168C90513D401688346EF
:100DB00041F480710160FFF73DFC824606E000BF10
:100DC000FFF738FCA0EB0A0064284ED8DBF80000DF
:100DD000C005F5D5E06801280AD008B1052813D070
:100DE000286A20F001002862286A20F0040002E04E
:100DF000286A40F001002862E06841F2883B98B11F
:100E0000FFF718FC82460BE0286A40F004002862D5
:100E1000EEE700BFFFF70EFCA0EB0A0159455AD8D8
:100E2000286A8007F6D50CE0FFF704FC824605E04F
:100E3000FFF700FCA0EB0A0159454CD8286A80074F
:100E4000F6D41FB1E86920F08050E861E06988B30A
:100E50006968C1F38101022944D00228C6F8608084
:100E600004D0FFF7E7FB044638E034E0FFF7E2FB8D
:100E7000074604E0FFF7DEFBC01B02282BD82868DA
:100E80008001F7D4206AB0F5803F05D16868A16879
:100E900020F4003008436860D4E908010843696819
:100EA00021F4741108436860C6F86090FFF7C2FB34
:100EB000044606E025E000BFFFF7BCFB001B02284C
:100EC00009D828688001F7D51BE000BFFFF7B2FB07
:100ED000001B022802D90320BDE8F88F2868800192
:100EE000F4D40EE00128F7D06868226A00F480315B
:100EF000914204D1616A00F47010884201D001204F
:100F0000EAE70020E8E7000000100240000042424B
:100F1000800442420C0000200070004010B5401ECA
:100F2000B0F1807F01D3012010BD4FF0E02460615B
:100F30000F21601700F0DEFB0020A0610720206178
:100F4000002010BDFEE701684A69D24352050FD464
:100F50006FF480624A61002140F8301F2022427302
:100F60008173026942F0040202610173012070473B
:100F700000207047F8B50446C06A1E460D46174665
:100F8000082807D0012805D010F5803F02D0206B3B
:100F9000122804D12068016841F480710160134671
:100FA00000224FF001112046009600F05DF840B19C
:100FB00020680068C00502D54FF40070206403204B
:100FC000F8BD2069B0F5804F0ED00620216800EAF8
:100FD000D51040F0F000086133463A460B492046F0
:100FE00000F08AF878B902E005F0FE0000E0E8B20F
:100FF00021680861054933463A46891F204600F0BA
:101000007BF80028DCD00120F8BD000008000100BA
:1010100070B516460D4604461EE02046FFF793FFC6
:1010200008B1012070BD681C16D0FFF703FB801BC0
:10103000A84200D885B920684069C04340070BD555
:10104000002044F8300F20216173A073216941F022
:10105000200121612073E4E720684069C043400714
:10106000DBD4002070BD00002DE9F04798461746FC
:101070000D460446C1F30746DDF820902AE000BF84
:10108000B8F1FF3F26D0FFF7D5FAA0EB09014145A3
:1010900002D8B8F1000F1DD12068012E16D080694A
:1010A00025EA00000004000C12D00020B84211D143
:1010B000002044F8300F20216173A073216941F0B2
:1010C0002001216120730120BDE8F0874069E7E736
:1010D0000120EBE72068012E0AD0806925EA000094
:1010E0000004000C06D00020B842C9D00020EBE775
:1010F0004069F3E70120F7E72DE9F04798461646E7
:101100000D4604464FF000094FF0200AC1F307478F
:1011100023E020684069C043400515D42068016879
:1011200041F40071016021686FF480604861C4F887
:10113000309084F83DA084F83E90216C41F0040189
:10114000216484F83C9021E0701C06D0FFF772FA0D
:10115000A0EB0800B04203D816B1012F1FD021E048
:101160002068012F15D0806925EA00000004000CDA
:1011700018D000BF44F8309F84F80DA084F80E907A
:10118000216941F02001216184F80C900120BDE823
:10119000F087406925EA00000004000CEAD12068CD
:1011A000406901E02068806925EA00000004000C25
:1011B000AFD1ECE770B516460D4604461EE020465A
:1011C000FFF7C1FE08B1012070BD681C16D0FFF703
:1011D00031FA801BA84200D885B920684069C04315
:1011E00000060BD5002044F8300F20216173A07356
:1011F000216941F0200121612073E4E72068406902
:10120000C0430006DBD4002070BD000070B586B07E
:1012100000241C480094019402940394816941F0D5
:1012200010018161816901F010010491816941F02F
:1012300020018161816901F020010491816941F0FF
:1012400008018161816901F008010491816941F01F
:10125000040181618069012200F004000A4E5503F7
:10126000049029463046FFF7DFF901200095CDE9CB
:1012700001040220039069463046FFF7E5F806B006
:1012800070BD000000100240000C01400D4810B578
:101290000B4901600C49416000214FF4804281609C
:1012A000C0E9031241618161C1610162FFF7C8F9C0
:1012B000002803D0BDE81040FFF7B1B810BD000012
:1012C0000054004014000020A0860100FEE7FEE765
:1012D00010B5AE2000F0D4F8022000F0D1F81020B4
:1012E00000F0CEF8402000F0CBF8B02000F0C8F8B5
:1012F000812000F0C5F8CF2000F0C2F8A12000F056
:10130000BFF8A62000F0BCF8A82000F0B9F83F20F4
:1013100000F0B6F8AD2000F0B3F88B2000F0B0F884
:10132000332000F0ADF8C82000F0AAF8D32000F078
:10133000A7F8002000F0A4F8D52000F0A1F8C02004
:1013400000F09EF8D92000F09BF81F2000F098F8DC
:10135000DA2000F095F8122000F092F8DB2000F07F
:101360008FF8402000F08CF800F008F800F050F9F9
:10137000BDE81040AF2000F083B800004FF480615A
:101380000148FEF792BF0000E90000203CB51C7840
:10139000059D203ACDE900455D68E41D5B78E408D1
:1013A000544303FB045200F0CBF83CBD2DE9FF4F42
:1013B00018785978C01DC00800254843001D83B027
:1013C0001C46174600F0FF0A2AE07819814600F013
:1013D00078F95FEA000826D000260AE061684846EE
:1013E00006FB0A1B42465946FEF7EEFEF0B1761C9C
:1013F000F6B2207AB042F1D810980090E368B8F1C4
:10140000010F20D0DDE903012022FFF7BFFFE068D4
:10141000417803980844C0B2039005EB080085B2F8
:10142000785D0028D1D107B0BDE8F08F1099207801
:10143000CDE900016378DDE903010BF1040200F05E
:101440007FF86178E5E77A5DDDE90301FFF79EFF4C
:10145000E0686D1CADB2417803980844C0B20390B7
:10146000DEE7000008B54FF0FF3200920B4602465F
:1014700078210248FFF7A8F908BD000014000020F9
:101480000249487002210148FFF7ECBF120000201A
:101490002DE9FC4180460720CDE9000301F0070457
:1014A000CD08164602FA04F01F46C2B22346414652
:1014B000284600F089F8002C0CD0601EC0B2CDE99F
:1014C0000007C4F1080026FA00F2681C0023414618
:1014D00000F07AF8BDE8FC812DE9FC4301F0070635
:1014E0001446CD089846814601F0070106EB080234
:1014F00004FA01F0099F082A16D90721CDE900173F
:10150000C2B233464946284600F05EF808EB0600B2
:101510000938C0B2CDE90007C6F1080024FA00F28C
:10152000681C0023494607E0521ED1B2CDE90017DE
:10153000C2B233464946284600F046F8BDE8FC836F
:101540002DE9FF4F82B01D460F989346C70800F063
:10155000070088460026019018E0029800240BEB53
:10156000060A00EB06090DE004FB05F0109B10F8DD
:101570000A2008EBC400C1B209F0FF00FFF788FFA2
:10158000641CE4B2BC42EFD3761CF6B2AE42E4D3A4
:101590000198002815D005FB07F6002408EBC707C3
:1015A0000DE010980090311902981BF8012020449A
:1015B000F9B2C0B2019BFFF78FFF641CE4B2AC42EA
:1015C000EFD306B0BDE8F08FF0B50828DDE905647B
:1015D00019D2802917D20CB1D243D2B2FF25761C82
:1015E00005FA06F6C3F10803084F46EA0204DD4097
:1015F00007EBC017044B785CB2432C43AA4320404E
:101600001A7010437854F0BD10000020E90000204B
:1016100070B5104D40200024287005F1810600BFF0
:1016200004F1B000C0B2FFF72BFF0220FFF728FF44
:101630001020FFF725FF06EBC4118022681CFEF77F
:10164000EFFD81210348FFF70DFF641CE4B2082C75
:10165000E6D370BD6800002070477047FFF778B987
:1016600030B58FB028216846FEF741FE14210AA844
:10167000FEF73DFE01210804CDE90010002402948C
:1016800002250491CDE907504FF4E0100990684617
:10169000FFF7B4FA08B172B6FEE70F20CDE90A05EC
:1016A0004FF48060CDE90C4002210AA80E94FFF7A8
:1016B000D9F9002801D072B6FEE70FB030BD7047EF
:1016C000FEE70078010601D4012070470621B1EB46
:1016D000501F01D1022070470E21B1EB101F01D124
:1016E000032070471E21B1EBD00F01D104207047B9
:1016F000002070470907090E002804DB00F1E020F4
:1017000080F80014704700F00F0000F1E02080F82E
:10171000141D704708B5FFF723F9FFF7A1FFFFF786
:1017200075FDFFF7B3FD1420FEF77CFEFFF7D0FD3B
:101730005FF00004FFF722FE0021044B04A20846DC
:101740000094FFF733FEFFF763FFF3E7141E000872
:1017500048656C6C6F2C20576F726C642100000020
:10176000010202030405060708090A0B0C0D0E0FFF
:101770001010000000000000000001020304060732
:10178000080900000000010203040000000000003E
:1017900000000000000000000000000000F8000051
:1017A0000000000000333000000000100C06100C98
:1017B0000600000000000000000040C07840C07833
:1017C0004000043F04043F040400007088FC08301B
:1017D0000000001820FF211E0000F008F000E018B3
:1017E000000000211C031E211E0000F0088870006C
:1017F00000001E2123241927211010160E000000BE
:1018000000000000000000000000000000E01804DC
:101810000200000000071820400000020418E00049
:1018200000000040201807000000404080F0804089
:1018300040000202010F01020200000000F000005F
:1018400000000101011F0101010000000000000073
:10185000000080B0700000000000000000000000E8
:101860000000000101010101010100000000000071
:101870000000003030000000000000000000806028
:101880001804006018060100000000E010080810AD
:10189000E000000F102020100F00001010F80000D2
:1018A00000000020203F2020000000700808088869
:1018B0007000003028242221300000300888884839
:1018C00030000018202020110E000000C02010F869
:1018D000000000070424243F240000F8088888083A
:1018E00008000019212020110E0000E0108888183F
:1018F0000000000F112020110E0000380808C83821
:1019000008000000003F0000000000708808088800
:101910007000001C222121221C0000E01008081089
:10192000E0000000312222110F00000000C0C000C2
:1019300000000000003030000000000000800000C7
:1019400000000000806000000000000080402010C7
:1019500008000001020408102000404040404040C0
:101960004000040404040404040000081020408023
:101970000000002010080402010000704808080858
:10198000F0000000003036010000C030C828E81028
:10199000E0000718272423140B000000C038E000E3
:1019A0000000203C23020227382008F8888888702D
:1019B0000000203F202020110E00C0300808080839
:1019C0003800071820202010080008F80808081020
:1019D000E000203F202020100F0008F88888E80849
:1019E0001000203F20202320180008F88888E808ED
:1019F0001000203F200003000000C0300808083815
:101A0000000007182020221E020008F80800000825
:101A1000F808203F210101213F20000808F80808AC
:101A200000000020203F2020000000000808F808E7
:101A30000800C08080807F00000008F888C0281857
:101A40000800203F20012638200008F80800000088
:101A50000000203F20202020300008F8F800F8F88F
:101A60000800203F003F003F200008F830C0000879
:101A7000F808203F200007183F00E0100808081071
:101A8000E0000F10202020100F0008F808080808B8
:101A9000F000203F210101010000E01008080810BB
:101AA000E0000F18242438504F0008F888888888F0
:101AB0007000203F2000030C3020007088080808C8
:101AC00038000038202121221C00180808F80808D6
:101AD00018000000203F2000000008F8080000085F
:101AE000F808001F202020201F000878880000C868
:101AF0003808000007380E010000F80800F8000858
:101B0000F800033C0700073C030008186880806861
:101B1000180820302C03032C30200838C800C8389F
:101B200008000000203F2000000010080808C83806
:101B300008002038262120201800000000FE0202A4
:101B400002000000007F40404000000C30C0000058
:101B50000000000000010638C00000020202FE0082
:101B60000000004040407F0000000000040202022C
:101B70000400000000000000000000000000000061
:101B8000000080808080808080800002020400004D
:101B90000000000000000000000000008080808045
:101BA00000000019242222223F2008F80080800033
:101BB0000000003F112020110E00000000808080F6
:101BC0000000000E112020201100000000808088FD
:101BD000F800000E112020103F200000808080803F
:101BE0000000001F222222221300008080F088883B
:101BF00088180020203F2020000000008080808086
:101C00008000006B94949493600008F800808080BA
:101C10000000203F210000203F2000809898000015
:101C200000000020203F2020000000000080989845
:101C3000000000C08080807F000008F800008080E5
:101C40008000203F24022D302000000808F800000A
:101C500000000020203F20200000808080808080C5
:101C60008000203F20003F20003F80800080808057
:101C70000000203F210000203F2000008080808065
:101C80000000001F202020201F0080800080800096
:101C9000000080FFA12020110E0000000080808045
:101CA0008000000E112020A0FF80808080008080B6
:101CB000800020203F2120000100000080808080E3
:101CC00080000033242424241900008080E08080D8
:101CD00000000000001F2020000080800000008025
:101CE0008000001F202020103F2080808000008086
:101CF000808000010E300806010080800080008096
:101D000080800F300C030C300F000080800080803A
:101D100080000020312E0E31200080808000008065
:101D2000808080818E701806010000808080808015
:101D300080000021302C2221300000000000807C37
:101D4000020200000000003F404000000000FF00D1
:101D5000000000000000FF0000000002027C800084
:101D600000000040403F00000000000601010202A8
:101D70000404000000000000000000001008000043
:101D80008A170008E6B3A2001060020CC000F888B1
:101D90008888FF8888A8180004047C0380601F805E
:101DA000432C102846818000E789B900403C10FF91
:101DB0001010404848487F48C8484000020602FFCB
:101DC000010100020A1242827F020200E5BE8B007E
:101DD000001088C43310545454FF54547C10100025
:101DE000020100FF0010121212FF12121210000066
:101DF000E58AA8004044C4444444401010FF101039
:101E000010F00000103C131014B840300E01408058
:101E1000403F000010100000841D00080400000076
:101E20007C1D0008441E0008000000201400000073
:101E300028010008581E0008140000203C0B000078
:101E40004401000801000000100000000000000034
:081E500000127A0000000000FE
:04000005080000ED02
:00000001FF
