:020000040800F2
:1000000010080020890100084F1C0008051A00088C
:100010004D1C0008E70200088121000800000000D4
:10002000000000000000000000000000531C000859
:100030002B03000800000000511C0008551C00089C
:10004000A3010008A3010008A3010008A301000800
:10005000A3010008A3010008A3010008A3010008F0
:10006000A3010008A3010008A3010008A3010008E0
:10007000A3010008A3010008E9020008F502000836
:10008000A3010008A3010008A3010008A3010008C0
:10009000A3010008A3010008A3010008A3010008B0
:1000A000A3010008A3010008A3010008A3010008A0
:1000B000A3010008A3010008A3010008A301000890
:1000C000A3010008A3010008A3010008A301000880
:1000D000A301000875210008A3010008A30100087E
:1000E000A3010008A3010008A301000800F002F822
:1000F00000F03AF80AA090E8000C82448344AAF188
:100100000107DA4501D100F02FF8AFF2090EBAE885
:100110000F0013F0010F18BFFB1A43F0010318473B
:10012000E420000004210000103A24BF78C878C100
:10013000FAD8520724BF30C830C144BF04680C60ED
:10014000704700000023002400250026103A28BF35
:1001500078C1FBD8520728BF30C148BF0B60704739
:100160001FB51FBD10B510BD00F058F81146FFF7C0
:10017000F7FF02F017F800F076F803B4FFF7F2FF8C
:1001800003BC00F07DF8000009488047094800479B
:10019000FEE7FEE7FEE7FEE7FEE7FEE7FEE7FEE737
:1001A000FEE7FEE704480549054A064B7047000094
:1001B000D11C0008ED0000081002002010080020EB
:1001C00010040020100400204FF0000200B5134678
:1001D00094469646203922BFA0E80C50A0E80C5067
:1001E000B1F12001BFF4F7AF090728BFA0E80C5018
:1001F00048BF0CC05DF804EB890028BF40F8042B11
:1002000008BF704748BF20F8022B11F0804F18BF7D
:1002100000F8012B7047704770477047754600F033
:100220002BF8AE4605006946534620F00700854688
:1002300018B020B5FFF7B6FFBDE820404FF000062C
:100240004FF000074FF000084FF0000B21F00701BE
:10025000AC46ACE8C009ACE8C009ACE8C009ACE801
:10026000C0098D46704710B50446AFF300802046A4
:10027000BDE81040FFF781BF00487047B001002083
:1002800001491820ABBEFEE72600020070470000BF
:1002900070B5044600688168C943C90717D18168F1
:1002A00021F00101816000F0F9FB05460AE000BF82
:1002B00000F0F4FB401B022804D920688068C0438A
:1002C000C00706D020688068C043C007F0D0002077
:1002D00070BDA06A40F01000A062E06A40F001002A
:1002E000E062012070BDFEE7014800F0C9B90000DE
:1002F0006C010020014800F0C3B900002801002073
:1003000030B590F840500124AC40C56B6C60046877
:1003100063604368102B036803D099600068C26073
:1003200030BD9A600068C16030BD704772B6FEE7AC
:10033000F8B50024009490F824202546012A12D014
:10034000012280F824204A681F23072A0DD206685C
:10035000776B521E02EB820293409F430B689340DF
:100360001F43776319E00220F8BD06680D2A0AD200
:10037000376BD21F02EB820293409F430B6893407E
:100380001F43376309E0F76A0D3A02EB820293409C
:100390009F430B6893401F43F7620A680723066870
:1003A0000A2A0AD3F7680A3A02EB420293409F43B3
:1003B0008B6893401F43F76008E0376902EB420205
:1003C00093409F438B6893401F4337610A68102A0C
:1003D00001D0112A20D1124B02689A4217D193689A
:1003E0001B0219D4936843F4000393600968102931
:1003F00012D10C490C4A0968B1FBF2F101EB810101
:10040000490000E0491E00910029FBD104E0816A07
:1004100041F020018162012480F824502046F8BD7B
:10042000002401401000002040420F002DE9F0415F
:100430004FF0000704003D467ED0A06A002628B990
:10044000E66284F82460204600F07EF82046FFF73C
:100450001FFFA16AC90600D420B1A06A40F01000B5
:10046000A06269E0A16A21F4885141F00201A16211
:100470006268E169237B0A4347EA43010A43A168B2
:100480004FF48077B94209D0012907D05FF000010D
:1004900094F814C0BCF1010F02D00AE03946F7E726
:1004A000F3B1A36A43F02003A362E36A43F00103BC
:1004B000E3622368D3F804C02CF4694C4CEA010CC5
:1004C000C3F804C021688B68DFF870C003EA0C032E
:1004D00013438B60A168B9420BD0012909D00CE00D
:1004E000DFF85CC0A3690CEB43330B4343F40061BA
:1004F000DFE7218A0D05A5F580152168CB6A23F475
:1005000070032B43CB62216889680E4B19409142DE
:1005100008D1E662A16A21F0020141F00101A16265
:10052000BDE8F081A06A20F0020040F01000A06257
:10053000E06A40F00100E0620120F1E7FDF7E1FF31
:1005400000E0FFFFFE0E1FFF00B585B00021009107
:1005500001910291039100680E49884218D10E481A
:10056000816941F400718161816901F40071049134
:10057000816941F0040181618069694600F00400ED
:1005800004902020009003200190044800F088F996
:1005900005B000BD002401400010024000080140E9
:1005A00010B590F821100022022905D004218163A2
:1005B00080F82020012010BD01680B6823F00E0395
:1005C0000B6001680B6823F001030B6090F840306A
:1005D000C46B012101FA03F3636080F8211080F8F5
:1005E0002020104610BD000010B590F82110002406
:1005F000022903D00421816301243DE001680A68D7
:1006000022F00E020A6001680A6822F001020A6004
:100610001A4A0168914201D1012121E0174A14329E
:10062000914201D110211BE0144A2832914201D19C
:10063000891515E0114A3C32914201D189140FE02D
:100640000E4A5032914202D14FF4803108E00B4AF9
:100650006432914202D14FF4801101E04FF0807179
:10066000064A083A5160012180F82110002180F8E3
:100670002010416B01B18847204610BD08000240A0
:100680002DE9F05FC16B0C6801680B68D0F840C0C1
:10069000042202FA0CF2494DDFF824A1494E4A4FD8
:1006A000DFF828B1DFF828E122422CD05A072AD5FA
:1006B0000A68920603D40A6822F004020A600168FC
:1006C000A94201D1042219E0514501D1402215E08F
:1006D000B14202D14FF4806210E0B94202D14FF42E
:1006E00080420BE0594502D14FF4802206E071456B
:1006F00002D14FF4800201E04FF080622F490839A7
:100700004A60C16A3BE04FF0020808FA0CF818EAA8
:10071000040F4FF000094FF0010235D05FEA8378F3
:1007200032D50B689B0605D40B6823F00A030B60D7
:1007300080F821200168A94201D1022219E0514527
:1007400001D1202215E0B14202D14FF4007210E035
:10075000B94202D14FF400520BE0594502D14FF497
:10076000003206E0714502D14FF4001201E04FF073
:100770000072124908394A6080F82090816A002985
:100780001AD0BDE8F05F0847082505FA0CF52542A8
:1007900012D01B0710D50B6823F00E030B6090F8E6
:1007A0004010C36B02FA01F15960826380F8212086
:1007B00080F82090016BE2E7BDE8F09F080002405E
:1007C0001C00024030000240440002405800024039
:1007D0006C00024030B528B308C8134914221944EC
:1007E000B1FBF2F18900C1631049816302214177B5
:1007F0001A6843F6F0718A43D0E900142143D0E926
:1008000002452C43214304692143446921438469FF
:10081000214311431960002141630122427701778E
:10082000084630BD012030BDF8FFFDBF000002408A
:1008300070B5044690F82000002501280CD0012056
:1008400084F8200094F821600020012E06D084F85E
:1008500020000225284670BD022070BD022684F8C3
:100860002160A0632068066826F001060660204625
:10087000FFF746FDE06A00282068016802D041F0D9
:100880000E0106E021F0040101602068016841F0DA
:100890000A0101602068016841F001010160D9E7A7
:1008A0002DE9F84FDFF8B8910024A9F1040B234695
:1008B0000F2709F1040AABF1040EC9E00125A54098
:1008C0002A40AA427DD1674ED1F804C0ACEB06089D
:1008D000B44532D014DCBCF1030F3AD009DCBCF1D2
:1008E000000F2AD0BCF1010F1CD0BCF1020F31D196
:1008F0001DE0BCF1110F17D0BCF1120F2AD119E085
:10090000B8F5881F19D006DCB8F5803F15D0B8F5CA
:10091000801F1FD111E0B8F5001F0ED0B8F5041FDD
:1009200018D10AE0CB6815E0CB681B1D12E0CB683C
:1009300008330FE0CB680C330CE08B682BB1012B34
:100940004FF0080303D0456104E0042302E0056191
:1009500000E00023FF2A01D8064601E000F104066A
:100960004FEA840501D9A5F12005D6F8008007FAE1
:1009700005FC28EA0C0803FA05F548EA0508C6F85C
:1009800000804D68ED0062D5374DAE6946F0010636
:10099000AE61AD6924F0030605F001050095334D05
:1009A00006EB050CDCF80850A607360F07FA06F828
:1009B00025EA0805DFF8B880404503D14FF000086C
:1009C00017E044E0DFF8AC80404502D14FF0010869
:1009D0000FE0DFF8A480404502D14FF0020808E0A4
:1009E000DFF89880404502D14FF0030801E04FF056
:1009F000040808FA06F848EA0508CCF808804D68AB
:100A0000D9F80060ED024D4601D5164300E096434B
:100A10002E604D68DAF80060AD02554601D51643E8
:100A200000E096432E604D68DBF80060AD035D4644
:100A300001D5164300E096432E604D68DEF8006055
:100A4000ED03754601D5164300E096432E60641C05
:100A50000D682A46E5407FF431AFBDE8F88F00000D
:100A60000804014000001110001002400000014085
:100A700000080140000C014000100140001401403A
:100A8000C26821EA02030A4043EA02410161704759
:100A90000AB1016170470904FBE700000148806862
:100AA000704700000400002070B5040025D094F8C1
:100AB0003D00002520B984F83C50204600F0B8F8ED
:100AC000242084F83D002068016821F001010160C4
:100AD0002068016841F4004101602068016821F448
:100AE0000041016000F076FA4D4A6168914201D8F8
:100AF0004C4900E04C49884201D2012070BD4B496D
:100B00002368B0FBF1F15E6826F03F060E435E609D
:100B10006368934206D94FF4967359434FF47A733E
:100B2000B1FBF3F12368491C1E6A26F03F063143EE
:100B300019626168914210D84900401EB0FBF1F281
:100B4000521CC2F30B02042A01D2042022E0B0FBA3
:100B5000F1F0401CC0F30B001CE0A268F2B301EB03
:100B6000C10303EB0116431EB3FBF6F35B1C43F416
:100B700080431B0549D092B301EBC10202EB011186
:100B8000401EB0FBF1F0401CC0F30B0040F480406D
:100B900040F400402168CA694CF6FF739A43104341
:100BA000C861D4E9071001432068026822F0C0023E
:100BB00011430160D4E9030101432068826848F2CF
:100BC000FF339A4311438160D4E90501084321684A
:100BD000CA6822F0FF021043C86001E00EE016E090
:100BE0002068016841F0010101602564202084F83B
:100BF0003D00256384F83E50002070BD01EB4106A6
:100C0000431EB3FBF6F35B1CB3E70120C2E701EB25
:100C10004101401EB0FBF1F0401CC0F30B00B7E7F0
:100C2000A086010080841E0000093D0040420F00A4
:100C300010B586B0002100910191029103910068E6
:100C40000F4988421AD10F4CA06940F00800A061FA
:100C5000A069694600F008000490C02000901220AE
:100C60000190032003900848FFF71AFEE06940F462
:100C70000010E061E06900F40010049006B010BDBF
:100C80000054004000100240000C014002488168FE
:100C9000027811448160704704000020074810B5B5
:100CA000016841F010010160032000F075F80F2089
:100CB00000F006F800F024F8002010BD00200240EB
:100CC00070B50D4D04464FF47A712878B1FBF0F001
:100CD0000A490968B1FBF0F000F052FB48B9102C4A
:100CE00007D200222146501E00F036F800206C602A
:100CF00070BD012070BD0000040000201000002025
:100D00000C4808B5816941F001018161816901F0F8
:100D100001010091C16941F08051C161C06900F0D9
:100D2000805000900448416821F0E06141F000717A
:100D3000416008BD0010024000000140002809DBAE
:100D400000F01F02012191404009800000F1E020E5
:100D5000C0F8001170470000F0B40E4B1B680C4641
:100D6000C3F30223C3F10705042D00D90425191D7F
:100D7000072901D2002300E0DB1E012606FA05F157
:100D8000491E214099409E40761E16403143F0BCDA
:100D900001F0F7B90CED00E0064900F00702086821
:100DA0004FF6FF03184040EA0220034A1043086050
:100DB000704700000CED00E00000FA052DE9F84353
:100DC00005460078354CC00754D0E0690026C000C5
:100DD00008D4E06940F08050E061E069012600F04D
:100DE000805000902E480168C90512D401688046E1
:100DF00041F480710160FFF751FE074605E000BF36
:100E0000FFF74CFEC01B642823D8D8F80000C005AB
:100E1000F6D5206A10F4407021D0A98801F4407101
:100E200081421CD0206A1F49012220F440700A60D0
:100E300000220A602062C00711D0FFF72FFE07468C
:100E400041F2883808E000BFFFF728FEC11B41458A
:100E500002D90320BDE8F883206A8007F4D5206A10
:100E6000696820F44070084320621EB1E06920F0F8
:100E70008050E0612878800705D56068A96820F473
:100E80004040084360602878C00605D56068E9687E
:100E900020F48000084360600020DBE7001002407F
:100EA00000700040400442422DE9F0470F46050023
:100EB00061D0434E306800F00700B84209D2306874
:100EC00020F0070038433060306800F00700B84277
:100ED00051D128683B4C810712D5400703D5606883
:100EE00040F4E06060602878000703D5606840F453
:100EF000605060606068A96820F0F000084360609E
:100F00002878C00728D06868012810D021680228F6
:100F100010D0890700292EDA616821F0030101430E
:100F20006160FFF7BBFD804641F288390DE0216822
:100F30008903EFE78901EDE7FFF7B0FDA0EB0801BA
:100F4000494502D90320BDE8F0876068696800F070
:100F50000C00B0EB810FEFD1306800F00700B84211
:100F60000BD9306820F0070038433060306800F05B
:100F70000700B84201D00120E5E72878400705D5F1
:100F80006068E96820F4E060084360602878000742
:100F900006D56068296920F4605040EAC1006060AD
:100FA00000F038F86168084AC1F30311515CC84089
:100FB0000649086006480068FFF782FE0020C2E785
:100FC0000020024000100240EA210008100000202A
:100FD000080000200448054900684968044AC1F334
:100FE0000221515CC84070471000002000100240F0
:100FF000FA2100080448054900684968044AC1F319
:10100000C221515CC840704710000020001002400F
:10101000FA2100080E4A51680E4801F00C03042B17
:1010200011D0082B0FD10C48C1F38343C903C05C16
:101030000AD55168084AC1F34041921E515C054AE5
:101040005043B0FBF1F0704704494843704700003B
:101050000010024000127A00DA21000800093D0069
:101060002DE9F84F040070D02078C04DC00749D05A
:101070006868C0F38100012807D06868C0F3810068
:10108000022809D16868C00306D52868800339D5CD
:1010900060680028E7D035E06068B0F5803F0BD08D
:1010A00010B1B0F5A02F11D0286820F4803028604E
:1010B000286820F4802002E0286840F4803028600E
:1010C000606890B1FFF7EAFC06460AE0286840F441
:1010D00080202860F0E700BFFFF7E0FC801B642859
:1010E00073D828688003F7D50CE0FFF7D7FC0646D5
:1010F00005E000BFFFF7D2FC801B6428F0D8286809
:101100008003F7D420789A4E80074FF001094FF002
:10111000000839D5686810F00C0F07D06868C0F374
:101120008100022809D16868C00306D428688007B6
:1011300014D52069012808D110E02069B0B1C6F8A3
:101140000090FFF7ABFC074605E00AE1FFF7A6FCBD
:10115000C01B0228C4D828688007F7D528686169B1
:1011600020F0F80040EAC10028600DE0C6F80080D9
:10117000FFF794FC074604E0FFF790FCC01B022831
:1011800023D828688007F7D4207800072CD5794821
:10119000A169D9B1C0F80090FFF780FC074604E0D0
:1011A000FFF77CFCC01B02280FD8686A8007F7D5C0
:1011B00071484FF4FA510068B0FBF1F0009000BFA5
:1011C0000098411E0091FAD20EE080E0C0F8008045
:1011D000FFF764FC074604E0FFF760FCC01B022831
:1011E00075D8686A8007F7D42078400760D5E86929
:1011F0000027C00008D4E86940F08050E861E86941
:10120000012700F0805000905C480168C90513D4A4
:101210000168834641F480710160FFF73FFC82461C
:1012200006E000BFFFF73AFCA0EB0A0064284ED8A6
:10123000DBF80000C005F5D5E06801280AD008B148
:10124000052813D0286A20F001002862286A20F0BF
:10125000040002E0286A40F001002862E06841F2E0
:10126000883B98B1FFF71AFC82460BE0286A40F0F1
:1012700004002862EEE700BFFFF710FCA0EB0A01B4
:1012800059455AD8286A8007F6D50CE0FFF706FCC6
:10129000824605E0FFF702FCA0EB0A0159454CD855
:1012A000286A8007F6D41FB1E86920F08050E86111
:1012B000E06988B36968C1F38101022944D002283A
:1012C000C6F8608004D0FFF7E9FB044638E034E05C
:1012D000FFF7E4FB074604E0FFF7E0FBC01B022832
:1012E0002BD828688001F7D4206AB0F5803F05D15B
:1012F0006868A16820F4003008436860D4E90801F8
:101300000843696821F4741108436860C6F8609066
:10131000FFF7C4FB044606E025E000BFFFF7BEFB75
:10132000001B022809D828688001F7D51BE000BF00
:10133000FFF7B4FB001B022802D90320BDE8F88F99
:1013400028688001F4D40EE00128F7D06868226A8A
:1013500000F48031914204D1616A00F47010884237
:1013600001D00120EAE70020E8E700000010024079
:101370000000424280044242100000200070004001
:1013800010B5401EB0F1807F01D3012010BD4FF099
:10139000E02460610F21601700F0F3FE0020A061DF
:1013A00007202061002010BD70B590F83C20012A74
:1013B00026D0012480F83C40022280F83D200368BA
:1013C0005A689D6822F070060A6832435A600D4BD5
:1013D00002689A4208D0B2F1804F05D00A4B9A4277
:1013E00002D00A4B9A4204D1496825F08003194380
:1013F000916080F83D40002180F83C10084670BDA7
:10140000022070BD002C0140000400400008004094
:1014100010B5040003D094F83D0010B107E001209E
:1014200010BD002084F83C00204600F01FF8022088
:1014300084F83D00211D206800F04CFC012084F858
:10144000460084F83E0084F83F0084F8400084F8A9
:10145000410084F8420084F8430084F8440084F892
:10146000450084F83D00002010BD000008B500686C
:101470000649884208D10648C16941F00201C161AC
:10148000C06900F00200009008BD000000040040A8
:101490000010024070B5044690F83C000025012879
:1014A00017D0012684F83C60022084F83D002068B3
:1014B000826822F0770222F47F4282600868502816
:1014C00038D00DDC20284FD005DC90B3102811D186
:1014D0004AE0022070BD302846D040280AD13BE0C7
:1014E00060282FD070280DD0B0F5805F03D0B0F504
:1014F000005F12D0012584F83D60002084F83C0094
:10150000284670BDCB68D1E90121206800F01EFC9F
:101510002068816841F0770109E0CB68D1E90121B9
:10152000206800F013FC2068816841F480418160EC
:10153000E1E719E0CA684968206800F019FC502109
:10154000206806E0CA684968206800F022FC602133
:10155000206800F005FCCEE7CA684968206800F002
:1015600007FC40212068F4E7226801461046F0E7B6
:1015700070477047F8B5016804460868CA684B6947
:1015800010F00F0F4FF0000559D003F0010602F4E0
:101590009077374365D0C10705D0D10503D5616C7D
:1015A00041F001016164410705D5D90703D0616CA1
:1015B00041F002016164810705D5D90703D0616C50
:1015C00041F004016164010707D502F020013143B5
:1015D00003D0616C41F008016164616C00293AD06C
:1015E000800604D5900602D5204600F0BEFC206897
:1015F0004069616CC0F38010090700D460B32046D5
:1016000000F07EFC20684069400621D52068143037
:1016100050E8001F21F0400140E80012002AF5D1F7
:10162000E06BA8B16D494163E06BFEF7DDFF002878
:1016300011D0E06B416B01B0BDE8F0400847830674
:101640000FD593060DD52046BDE8F84000F08DBCBF
:101650002046FFF78EFFF8BD2046FFF78AFF65643E
:10166000F8BD266B2023012E7CD1C6067AD5D6067E
:1016700078D508684868009048694FF0020640062F
:1016800040D5E16B086840680004000CE8D0A28DEA
:101690008242E5D9E085886920282DD020680C3069
:1016A00050E8001F21F4807140E80012002AF5D1B3
:1016B0002068143050E8001F21F0010140E80012BA
:1016C000002AF5D12068143050E8001F21F04001B5
:1016D00040E80012002AF5D184F8423025632068E2
:1016E0000C3050E8001F21F0100140E80012002AE1
:1016F000F5D1E06BFEF754FF6663A08DE18D401AD3
:1017000081B22AE0A08DE18D401A81B2E08D0028DF
:10171000A6D00029A4D022680C3252E8000F20F491
:10172000907042E80007002FF5D12068143050E88F
:10173000002F22F0010240E80027002FF5D184F8A5
:101740004230256320680C3050E8002F22F0100250
:1017500040E80023002BF5D166632046FFF708FF21
:10176000F8BDFFE705062BD5150629D594F84100ED
:101770002128F5D1A068B0F5805F01D12069B0B112
:10178000206A411C2162216800784860E08C401E7C
:101790000004000CE084E3D12068C16821F08001DE
:1017A000C1602068C16841F04001C160D8E7206A8B
:1017B0000088C0F308004860206A801C2062E5E7CA
:1017C0004006CDD55006CBD5CA68204622F040024F
:1017D000CA6084F8413000F013F9C1E7B71D000872
:1017E00070B5040004D094F84100002510B106E063
:1017F000012070BD84F84050204600F023F82420DA
:1018000084F841002068C16821F40051C16020467D
:1018100000F00CFC2068016921F49041016120680E
:10182000416921F02A0141612068C16841F40051F9
:10183000C1606564202084F8410084F8420065633B
:10184000002070BDF0B585B00024064600940194D8
:101850000294039400682D49884254D12C48816930
:1018600041F480418161816901F480410491816981
:1018700041F0040181618069264D00F0040004906C
:101880004FF40070009002200190032003906946FD
:101890002846FFF705F82815CDE9000469462846D3
:1018A0000294FEF7FDFF1D4D1B488027C5E900048B
:1018B000C5E902472C616C61AC612846EC61FEF71A
:1018C00089FF08B1FEF732FDF5636E62134D1248D1
:1018D0004435143801C5102091C5104845F8104909
:1018E00044306C61AC61EC61FEF774FF08B1FEF747
:1018F0001DFDB5630022114625206E62FFF72CFA0C
:101900002520FFF71BFA05B0F0BD000000380140AC
:101910000010024000080140580002402801002049
:1019200090F84230202B01D00220704721B11AB12B
:101930000023036300F0D6BB0120704710B50446B6
:101940004FF400510B48FFF79BF80B492068884281
:1019500009D10A48811C02780A7040784870022236
:10196000074800F011F8BDE810400222034904487E
:10197000FFF7D6BF001001400038014000000020F2
:10198000E00000207047000070B5044690F8410068
:10199000202801D0022070BD49B342B32162A28445
:1019A000E28400206064212384F84130A56B114B50
:1019B000AB62A56B104BEB62A56B104B2B63A36B5B
:1019C0005863256813462A1DA06BFEF731FF216876
:1019D0006FF0400008602068143050E8001F41F0AC
:1019E000800140E80012002AF5D1002070BD0120DE
:1019F00070BD0000B51E0008F71E0008C71D0008D6
:101A000070477047FEE700003EB50024114800947F
:101A1000019402940E4984600160047304750125E9
:101A200005614FF460214460C161FEF7FFFC08B11D
:101A3000FEF77CFC0520CDE90005694602940548C7
:101A4000FEF776FC002801D0FEF770FC3EBD0000DA
:101A500000240140140000200D4808B5416941F000
:101A6000010141614069002200F00100009011462F
:101A70000E20FFF771F90E20FFF760F900221146E2
:101A80000F20FFF769F9BDE808400F20FFF756B9AE
:101A9000001002402DE9F04385B000242F48009447
:101AA000019402940394816941F01001816181697C
:101AB00001F010010491816941F020018161816987
:101AC00001F020010491816941F004018161816983
:101AD00001F004010491816941F00801816180698C
:101AE0001F4F00F008004FF40055049000222946D3
:101AF0003846FEF7CDFFDFF86C8000220221404619
:101B0000FEF7C6FFDFF86090002202214846FEF78C
:101B1000BFFF012211034846FEF7BAFF0126CDE9B7
:101B20000056022569463846CDE90245FEF7B8FE63
:101B3000CDE9005669464046CDE90245FEF7B0FEC4
:101B400041F20200CDE9000669464846CDE902456A
:101B5000FEF7A6FE05B0BDE8F083000000100240CD
:101B60000010014000080140000C01400D4810B574
:101B70000B4901600C49416000214FF480428160B3
:101B8000C0E9031241618161C1610162FEF78CFF0E
:101B9000002803D0BDE81040FEF7C8BB10BD000010
:101BA0000054004044000020A086010010B586B01B
:101BB0000024174800940194029403940494134958
:101BC000059401604721C0E901144FF6FF71C0E997
:101BD00003148461FFF71CFC08B1FEF7A7FB4FF468
:101BE0008050009069460A48FFF754FC08B1FEF7A0
:101BF0009DFB049404A906480594FFF7D5FB002833
:101C000001D0FEF793FB06B010BD000000040040B9
:101C1000980000200C4810B50A4901604FF4165195
:101C20004160002181600C22C160C0E90412816121
:101C3000C161FFF7D5FD002803D0BDE81040FEF7D5
:101C400075BB10BD00380140E0000020FEE7FEE754
:101C500070477047FFF71AB830B593B0282168462F
:101C6000FEF7B2FA14210AA8FEF7AEFA0025012009
:101C70000F9510951195010412958DE8230004909D
:101C80004FF4E010CDE90810022407946846FFF7EE
:101C9000E7F908B172B6FEE70AA90F2081E8310022
:101CA0004FF48060CDE90D0502210AA8FFF7FCF88A
:101CB00008B172B6FEE74FF4004011900F940FA8E0
:101CC000FFF77CF8002801D072B6FEE713B030BDF4
:101CD00070470000F0B50268194B1A4C1A4D4FF0CE
:101CE0008047984205D0B84203D0A04201D0A84214
:101CF00003D122F070064A683243984205D0B842B8
:101D000003D0A04201D0A84203D122F44074CA6893
:101D100022434C6922F08002224302608A68C26238
:101D20000A688262984201D1096901630121416117
:101D30000169C90703D0016921F001010161F0BD0A
:101D4000002C0140000400400008004010B58468E9
:101D500042EA032224F47F440A432243826010BDF6
:101D6000826822F070020A4342F0070181607047E6
:101D700010B5036A046A24F001040462846924F043
:101D8000F00444EA021423F00A020A438461026266
:101D900010BD10B5036A046A24F01004046284695B
:101DA00023F0A00324F4704444EA023243EA011110
:101DB0008261016210BD10B5406A0021C185C184F5
:101DC000FFF7D7FB10BD70B5446A2068406994F8EE
:101DD0004110C0F3C0100025212904D118B1E584B9
:101DE000204600F0B4F82068406994F84210C0F32F
:101DF0008010222904D118B1E585204600F080F832
:101E0000606C40F0100060642046FFF7B2FB70BDCC
:101E100010B50146406A096809684FF0000289065A
:101E20002ED4C28501680C3151E8003F23F4807341
:101E300041E80034002CF5D10168143151E8003F2D
:101E400023F0010341E80034002CF5D1016814317E
:101E500051E8003F23F0400341E80034002CF5D165
:101E6000202180F84210016B012909D101680C3151
:101E700051E8003F23F0100341E80034002CF5D175
:101E80004263016B012902D0FFF758FD10BD818D1F
:101E9000FFF76EFB10BD10B5406A01214163016B75
:101EA000012902D0FFF76EFD10BD818D4908FFF7B3
:101EB0005FFB10BD10B50146406A096809688906D4
:101EC00016D40021C1840168143151E8002F22F09A
:101ED000800241E80023002BF5D101680C3151E864
:101EE000002F42F0400241E80023002BF5D110BD45
:101EF000FFF786FD10BD10B5406AFFF782FD10BDEB
:101F000001680C3151E8002F22F4907241E800235F
:101F1000002BF5D10168143151E8002F22F00102A5
:101F200041E80023002BF5D1016B012909D101689B
:101F30000C3151E8002F22F0100241E80023002B61
:101F4000F5D1202180F8421000210163704701681B
:101F50000C3151E8002F22F0C00241E80023002B91
:101F6000F5D1202180F84110704708B590F8421053
:101F7000222901D0022008BD82684FF480539A4282
:101F800001D1016921B1816A9A421BD04AB10AE0AC
:101F90000268816A5268C2F308020A80816A891C59
:101FA00008E0026972B10268526802F07F020A70AA
:101FB000816A491C8162C18D491E0904090CC185D1
:101FC00003D01BE002685268F1E70168CA6822F09A
:101FD0002002CA600168CA6822F48072CA6001687F
:101FE0004A6922F001024A61202180F84210002152
:101FF0004163026B012A03D0FFF7A0FC002008BD5B
:10200000016301680C3151E8002F22F0100241E811
:102010000023002BF5D101680A68D20602D50A68B0
:1020200049680091818DFFF7A3FAE7E770B5044690
:1020300000680169E26821F440511143016121699E
:10204000A0680843616908432168CA6841F20C63CB
:102050009A430243CA6020684169A26921F4407131
:10206000114341611E492068884202D1FEF7C2FF38
:1020700001E0FEF7AFFF00EBC00101EB001260686A
:1020800064218000B2FBF0F3B3FBF1F36FF01806AC
:102090007343B2FBF0F5B2FBF0F605EB8305322398
:1020A00003EB0515B5FBF1F5B6FBF1F605F0F00510
:1020B00005EB0615B2FBF0F6B2FBF0F0B0FBF1F069
:1020C0006FF01802504306EB800003EB0010B0FBEA
:1020D000F1F0216800F00F002844886070BD000016
:1020E0000038014038B581620446828500201346DD
:1020F0006064222284F84220E56B1B4AAA62E56BE9
:102100001A4AEA62E56B1A4A2A63E26B50630A468E
:102110002168E06B091DFEF78BFB206801684068B1
:102120000090206948B120680C3050E8001F41F44D
:10213000807140E80012002AF5D12068143050E880
:10214000001F41F0010140E80012002AF5D120688B
:10215000143050E8001F41F0400140E80012002A0E
:10216000F5D1002038BD0000111E0008971E0008A0
:10217000C71D00080148FFF7FDB90000E00000207E
:10218000FEE70907090E002804DB00F1E02080F8D3
:102190000014704700F00F0000F1E02080F8141DDB
:1021A00070470000FEF77AFDFFF756FDFFF772FC5F
:1021B000FFF752FCFFF7DAFCFFF726FCFFF72AFDDA
:1021C000FFF7F4FC022202490248FFF7A9FBFEE7F1
:1021D00000000020E00000200102020304050607C1
:1021E00008090A0B0C0D0E0F101000000000000073
:1021F00000000102030406070809000000000102B4
:102200000304000024220008000000201400000045
:10221000280100083822000814000020FC070000F4
:102220004401000800000000010000001000000050
:082230000000000000127A001A
:04000005080000ED02
:00000001FF
