:020000040800F2
:10000000B80F002091010008D12D00081B2700081F
:100010001D2C0008E50700087937000800000000E3
:100020000000000000000000000000002332000873
:10003000EB0900080000000021320008253200080A
:10004000AB010008AB010008AB010008AB010008E0
:10005000AB010008AB010008AB010008AB010008D0
:10006000AB010008AB010008AB010008AB010008C0
:10007000AB010008AB010008A9090008B509000898
:10008000AB010008AB010008AB010008AB010008A0
:10009000AB010008AB010008AB010008AB01000890
:1000A000AB010008AB010008AB010008AB01000880
:1000B000AB010008AB010008AB010008AB01000870
:1000C000AB010008AB010008AB010008AB01000860
:1000D000AB0100086D370008AB010008AB01000858
:1000E000AB010008AB010008AB01000800F002F80A
:1000F00000F03FF80AA090E8000C82448344AAF183
:100100000107DA4501D100F034F8AFF2090EBAE880
:100110000F0013F0010F18BFFB1A43F0010318473B
:100120002042000040420000103A24BF78C878C145
:10013000FAD8520724BF30C830C144BF04680C60ED
:10014000704700000023002400250026103A28BF35
:1001500078C1FBD8520728BF30C148BF0B60704739
:10016000642900F07180002070471FB51FBD10B5D5
:1001700010BD00F092FA1146FFF7F7FF03F03AFBCB
:1001800000F0B0FA03B4FFF7F2FF03BC00F0B8FAD6
:100190000948804709480047FEE7FEE7FEE7FEE71B
:1001A000FEE7FEE7FEE7FEE7FEE7FEE70448054957
:1001B000054A064B70470000A1320008ED00000818
:1001C000B8090020B80F0020B80B0020B80B0020A1
:1001D0000FB41CB5074B06AA7B44694600900598EE
:1001E00000F011FA0020694600F020FA1CBC5DF80E
:1001F00014FB00005104000070B5044685690068D6
:10020000C10601D5302600E02026C00707D070BD0A
:10021000D4E9012130469047206A401C20626D1EBF
:10022000F6D570BD70B5044685690078C00707D162
:1002300070BDD4E9012120209047206A401C206233
:100240006D1EF6D570BD00002DE9F0410646002474
:1002500010687529314616A510D0AFF3008000282C
:1002600002DA404213A507E031688A0701D512A5DA
:1002700002E0490704D511A5012401E0AFF3008095
:1002800000210A2206F1240709E0B0FBF2FCB0FBD2
:10029000F2F302FB1C00303078541846491C002849
:1002A000F3D123462A463046BDE8F04100F04CB970
:1002B000000000002D0000002B00000020000000C6
:1002C0002DE9F0474FF0000A89460446C0F820A007
:1002D0002046E1688847002876D0252806D0D4E952
:1002E00001219047206A401C2062F1E7E168204626
:1002F00000258847C4F81CA006460027C4F818A0AB
:100300002A2E09D0304603F061FA38B304EB87088F
:10031000303EC8F8186019E059F8041B204604EB79
:1003200087029161E1688847012F064618D1E0698C
:10033000002820DA25F020051DE0D8F8180000EB91
:10034000800006EB40003038C8F818002046E1680D
:100350008847064603F03AFA0028EED1012F0AD06A
:100360002E2E08D12046E16888477F1C0646022FC2
:1003700045F02005C4DBA069002803DA404245F0BF
:100380000105A061E80701D025F01005B6B1A6F17E
:100390004100192802D8203645F400654A46314606
:1003A000204625604D46FFF7DBFE58B1012806D0F8
:1003B000ED1D25F0070000F1080989E704E005F1CB
:1003C000040985E730468AE7206ABDE8F08740EAFD
:1003D000010310B59B070FD1042A0DD310C808C91B
:1003E000121F9C42F8D020BA19BA884201D90120C4
:1003F00010BD4FF0FF3010BD1AB1D30703D0521C0F
:1004000007E0002010BD10F8013B11F8014B1B1B49
:1004100007D110F8013B11F8014B1B1B01D1921EB3
:10042000F1D1184610BD032A40F2308010F0030CC1
:1004300000F0158011F8013BBCF1020F624498BF37
:1004400011F801CB00F8013B38BF11F8013BA2F1D4
:10045000040298BF00F801CB38BF00F8013B11F04F
:10046000030300F0E880083AC0F0088051F8043B2C
:10047000083A51F804CBA0E80810F5E7121D5CBF5C
:1004800051F8043B40F8043BAFF30080D20724BF8F
:1004900011F8013B11F801CB48BF11F8012B24BF23
:1004A00000F8013B00F801CB48BF00F8012B704772
:1004B0004FF000020429C0F0128010F0030C00F08D
:1004C0001B80CCF1040CBCF1020F18BF00F8012B0B
:1004D000A8BF20F8022BA1EB0C0100F00DB85FEAD9
:1004E000C17C24BF00F8012B00F8012B48BF00F8A5
:1004F000012B70474FF0000200B513469446964614
:10050000203922BFA0E80C50A0E80C50B1F1200126
:10051000BFF4F7AF090728BFA0E80C5048BF0CC0D4
:100520005DF804EB890028BF40F8042B08BF704732
:1005300048BF20F8022B11F0804F18BF00F8012BA4
:1005400070477047704770472DE9F0470D46994650
:100550009246044600F124080168880604D5E06943
:1005600021F01001216000E00120A84201DD471BBD
:1005700000E00027A1697A1902EB0900081AA061BE
:100580002078C00602D42046FFF736FE002608E099
:10059000D4E901211AF806009047206A401C761C15
:1005A00020624E45F4DB2078C0060AD52046FFF7CE
:1005B00023FE06E0D4E9012130209047206A401C48
:1005C0002062381EA7F10107F4DC07E0D4E901211D
:1005D00018F805009047206A401C2062281EA5F1EB
:1005E0000105F3DC2046FFF71DFE2078000602D54A
:1005F0000220BDE8F0870120FBE7000001694A1CEA
:1006000002610878704700B58FB0CDE90131002153
:10061000059105497944CDE9031011466846FFF775
:100620004FFE0FB000BD0000E5FFFFFF0A6802F8B3
:10063000010B0A60704710B5203AC0F00B80B1E89A
:100640001850203AA0E81850B1E81850A0E8185007
:10065000BFF4F5AF5FEA027C24BFB1E81850A0E810
:10066000185044BF18C918C0BDE810405FEA827C2A
:1006700024BF51F8043B40F8043B08BF7047D20741
:1006800028BF31F8023B48BF11F8012B28BF20F8E2
:10069000023B48BF00F8012B7047754600F02CF86C
:1006A000AE4605006946534620F00700854618B05F
:1006B00020B5FFF77BFDBDE820404FF000064FF06E
:1006C00000074FF000084FF0000B21F00701AC4687
:1006D000ACE8C009ACE8C009ACE8C009ACE8C009A6
:1006E0008D46704710B50446AFF300802046BDE844
:1006F0001040FFF747BD0000004870475809002030
:1007000001491820ABBEFEE726000200704700003A
:1007100070B5044600688168C943C90717D181686C
:1007200021F00101816000F01DFF05460AE000BFD5
:1007300000F018FF401B022804D920688068C043DD
:10074000C00706D020688068C043C007F0D00020F2
:1007500070BDA06A40F01000A062E06A40F00100A5
:10076000E062012070BD0000F8B500260446009646
:1007700000688168C943C9072DD0816841F0010133
:100780008160164816490068B0FBF1F000E0401E99
:1007900000900028FBD100F0E5FE054616E000BF02
:1007A00000F0E0FE401B022810D920688068C0439A
:1007B000C0070BD0A06A40F01000A062E06A40F0D1
:1007C0000100E06284F824600120F8BD20688068A0
:1007D000C043C007E4D10020F8BD00002000002085
:1007E00040420F00FEE7000030B503464FF6FF70B1
:1007F0004AF201040DE000BF13F8012B5040002223
:10080000C5074FEA500000D06040521CD2B2082AFF
:10081000F6D3491E89B2EFD230BD00002DE9F04178
:100820000025DFF8548007462C4601267821002059
:1008300000F0A0F8E8B9232002F0D0FF02214046E2
:1008400000F086FE0128C4F1070006FA00F008D087
:100850008543641CE4B2082CE8D33D700020BDE859
:10086000F081C0B205437821012000F083F8002810
:10087000EFD00120F3E70000000801402DE9FF411F
:10088000022500260127CDE90057DFF8E080CDE9F9
:10089000026504466946404600F06AFD00220221D6
:1008A000404600F05AFE142000F050FD01220221C3
:1008B000404600F052FE1E2002F090FF8DE8E0005E
:1008C00069464046039500F053FD1E2002F086FF66
:1008D0000221404600F03CFE40BB7821002000F0A1
:1008E00049F818BB7821012000F044F8F0B92046FF
:1008F000FFF794FFD0B9601CFFF790FFB0B9A01CC0
:10090000FFF78CFF90B9E01CFFF788FF70B9201D3E
:10091000FFF784FF50B921786078A678E5780A1847
:1009200073191A442379D2B2934203D0012004B040
:10093000BDE8F08101EBC10202EB011100EB810087
:1009400003F0B4F80A4F394602F0CEFFA06006EB80
:10095000C60000EB061005EB800003F0A7F839464F
:1009600002F0C2FFE0600020E1E700000008014063
:100970000000C8422DE9F0410E4605460024094F0B
:1009800008E0012002F02AFF641CB44202D30120D7
:10099000BDE8F0810221384600F0DAFDA842F0D02F
:1009A0000020F5E700080140014800F0BFBB00004F
:1009B00090010020014800F0B9BB00004C0100206C
:1009C00030B590F840500124AC40C56B6C600468B1
:1009D00063604368102B036803D099600068C260AD
:1009E00030BD9A600068C16030BD70470B4800217F
:1009F000A0F860100188B0F84020914202D901218E
:100A0000A0F860104188B0F84220914204D930F833
:100A1000601F41F00201018070470000560600206F
:100A200010B50B4C0B484FF40051228C0AB1002238
:100A300000E0012200F091FD628C07484FF48051E4
:100A40000AB1002200E00122BDE8104000F085BD9F
:100A50005606002000100140000C01402DE9F04135
:100A60001E4800F093FA4FF0FF311C4800F0F0F9F7
:100A70001A4800F02FF91A4C85B22846A58003F0D9
:100A800015F8184902F030FF174903F023F8A06069
:100A9000164C1749A58003F01DF802F0E7FFE0802F
:100AA0001448FFF7EBFE002528B125806580012062
:100AB000A084BDE8F0810F4E0F4F3946F06803F077
:100AC00009F802F0D3FF20803946B06803F002F83D
:100AD00002F0CCFF6080A584EBE700003800002026
:100AE0000000002000F07F453333534056060020BD
:100AF0000000C842280000200000204172B6FEE736
:100B0000F8B500250446009590F8240001280BD084
:100B1000012084F824002046FFF7FAFD2046FFF765
:100B200023FE060002D050E00220F8BDA06A20F4A7
:100B3000885040F00200A062022000F039FF2549F1
:100B40000968B1FBF0F0400000E0401E0090002872
:100B5000FBD12068816841F00801816000F002FD4E
:100B6000074608E000F0FEFCC01B0A2803D92068F5
:100B70008068000715D4206880680007F2D42068D8
:100B8000816841F00401816000F0ECFC074612E04E
:100B900000F0E8FCC01B0A280DD9206880684007D7
:100BA00009D5A06A20F0020040F01000A06284F88D
:100BB00024500120F8BD206880684007E8D4A06A6E
:100BC00020F0020040F00100A06284F8245030467A
:100BD000F8BD000020000020F8B50024009490F833
:100BE00024202546012A12D0012280F824204A68B8
:100BF0001F23072A0DD20668776B521E02EB820272
:100C000093409F430B6893401F43776319E0022092
:100C1000F8BD06680D2A0AD2376BD21F02EB82029A
:100C200093409F430B6893401F43376309E0F76A83
:100C30000D3A02EB820293409F430B6893401F439F
:100C4000F7620A68072306680A2A0AD3F7680A3A8D
:100C500002EB420293409F438B6893401F43F7602F
:100C600008E0376902EB420293409F438B68934050
:100C70001F4337610A68102A01D0112A20D1124B74
:100C800002689A4217D193681B0219D4936843F4FF
:100C9000000393600968102912D10C490C4A0968B5
:100CA000B1FBF2F101EB8101490000E0491E009126
:100CB0000029FBD104E0816A41F020018162012416
:100CC00080F824502046F8BD002401402000002078
:100CD00040420F000068C06C704700002DE9F041F1
:100CE0004FF0000704003D467ED0A06A002628B9D8
:100CF000E66284F82460204600F07EF82046FFF784
:100D000007FDA16AC90600D420B1A06A40F0100016
:100D1000A06269E0A16A21F4885141F00201A16258
:100D20006268E169237B0A4347EA43010A43A168F9
:100D30004FF48077B94209D0012907D05FF0000154
:100D400094F814C0BCF1010F02D00AE03946F7E76D
:100D5000F3B1A36A43F02003A362E36A43F0010303
:100D6000E3622368D3F804C02CF4694C4CEA010C0C
:100D7000C3F804C021688B68DFF870C003EA0C0375
:100D800013438B60A168B9420BD0012909D00CE054
:100D9000DFF85CC0A3690CEB43330B4343F4006101
:100DA000DFE7218A0D05A5F580152168CB6A23F4BC
:100DB00070032B43CB62216889680E4B1940914226
:100DC00008D1E662A16A21F0020141F00101A162AD
:100DD000BDE8F081A06A20F0020040F01000A0629F
:100DE000E06A40F00100E0620120F1E7FDF7E1FF79
:100DF00000E0FFFFFE0E1FFF00B585B0002100914F
:100E000001910291039100680E49884218D10E4861
:100E1000816941F400718161816901F4007104917B
:100E2000816941F0040181618069694600F0040034
:100E300004902020009003200190044800F098FACC
:100E400005B000BD00240140001002400008014030
:100E50002DE9F84300270D460446009700F082FB79
:100E6000804620688168C90508D5A06A40F0200046
:100E7000A06284F824700120BDE8F8834168C905A8
:100E800003D4C06A10F4700F2AD0022000F090FD45
:100E90003B490968B1FBF0F62068036939490B4208
:100EA0004FEA61014FEAA1121FD1C3684FEA611CEA
:100EB00013EA0C0F19D103690B4225D1C068104207
:100EC00022D1142023E0681C0AD02DB100F04AFB87
:100ED000A0EB0800A84203D920680068800725D548
:100EE000206800688007EED52DE003690B4202D12F
:100EF000C168114206D0026923490A4206D1C0687E
:100F0000084203D1542002E0292000E0FC2046439F
:100F1000009816E0681C11D02DB100F023FBA0EB67
:100F20000800A8420AD90098B04207D2A06A40F04F
:100F30000400A06284F8247003209DE70098401C00
:100F40000090B042E6D321686FF012000860A06AFA
:100F500040F40070A06220688068C0F34240072817
:100F60000CD1207B50B9A06A20F48070A062A06AE6
:100F7000C00403D4A06A40F00100A06200207BE717
:100F800020000020244992244992240070B5044690
:100F900090F8240001280DD0012084F82400204678
:100FA000FFF7E2FB02004FF0000005D084F82400B8
:100FB000104670BD022070BDA16A40F20123994322
:100FC00041F48071A1621F4D23681F49AB4218D1C3
:100FD0000E6816F4702F14D0A66A46F48016A66226
:100FE0000E68760505D5A66A26F4005646F48056A6
:100FF000A662A66AF6040AD5E66A26F00606E66246
:1010000006E0A66A26F48016A6625E68E9E7E0625A
:1010100084F824006FF00200186020688368C3F32E
:101020004243072B05D1A84208D1096811F4702F5B
:1010300004D0816841F480118160B9E7816841F48E
:10104000A001F9E7002801400424014010B590F800
:1010500021100022022905D00421816380F820207C
:10106000012010BD01680B6823F00E030B600168BE
:101070000B6823F001030B6090F84030C46B012132
:1010800001FA03F3636080F8211080F820201046F5
:1010900010BD000010B590F821100024022903D0E3
:1010A0000421816301243DE001680A6822F00E02F8
:1010B0000A6001680A6822F001020A601A4A01689F
:1010C000914201D1012121E0174A1432914201D10C
:1010D00010211BE0144A2832914201D1891515E0F4
:1010E000114A3C32914201D189140FE00E4A50322C
:1010F000914202D14FF4803108E00B4A64329142B0
:1011000002D14FF4801101E04FF08071064A083A95
:101110005160012180F82110002180F82010416BDE
:1011200001B18847204610BD080002402DE9F05F5C
:10113000C16B0C6801680B68D0F840C0042202FA49
:101140000CF2494DDFF824A1494E4A4FDFF828B18F
:10115000DFF828E122422CD05A072AD50A689206E5
:1011600003D40A6822F004020A600168A94201D18E
:10117000042219E0514501D1402215E0B14202D1CB
:101180004FF4806210E0B94202D14FF480420BE08C
:10119000594502D14FF4802206E0714502D14FF447
:1011A000800201E04FF080622F4908394A60C16A2D
:1011B0003BE04FF0020808FA0CF818EA040F4FF071
:1011C00000094FF0010235D05FEA837832D50B6811
:1011D0009B0605D40B6823F00A030B6080F82120DE
:1011E0000168A94201D1022219E0514501D1202212
:1011F00015E0B14202D14FF4007210E0B94202D1C1
:101200004FF400520BE0594502D14FF4003206E092
:10121000714502D14FF4001201E04FF00072124903
:1012200008394A6080F82090816A00291AD0BDE808
:10123000F05F0847082505FA0CF5254212D01B0778
:1012400010D50B6823F00E030B6090F84010C36BB1
:1012500002FA01F15960826380F8212080F8209021
:10126000016BE2E7BDE8F09F080002401C0002406D
:101270003000024044000240580002406C0002402E
:1012800030B528B308C8134914221944B1FBF2F150
:101290008900C16310498163022141771A6843F6CE
:1012A000F0718A43D0E900142143D0E902452C4370
:1012B0002143046921434469214384692143114343
:1012C000196000214163012242770177084630BD51
:1012D000012030BDF8FFFDBF0000024070B504469C
:1012E00090F82000002501280CD0012084F820006F
:1012F00094F821600020012E06D084F820000225F9
:10130000284670BD022070BD022684F82160A063CB
:101310002068066826F0010606602046FFF750FBAD
:10132000E06A00282068016802D041F00E0106E062
:1013300021F0040101602068016841F00A010160A8
:101340002068016841F001010160D9E770B50446E9
:1013500000F008F90546601C02D0044800780444F7
:1013600000F000F9401BA042FAD370BD1400002029
:101370002DE9F84FDFF8B8910024A9F1040B2346BA
:101380000F2709F1040AABF1040EC9E00125A540BD
:101390002A40AA427DD1674ED1F804C0ACEB0608C2
:1013A000B44532D014DCBCF1030F3AD009DCBCF1F7
:1013B000000F2AD0BCF1010F1CD0BCF1020F31D1BB
:1013C0001DE0BCF1110F17D0BCF1120F2AD119E0AA
:1013D000B8F5881F19D006DCB8F5803F15D0B8F5F0
:1013E000801F1FD111E0B8F5001F0ED0B8F5041F03
:1013F00018D10AE0CB6815E0CB681B1D12E0CB6862
:1014000008330FE0CB680C330CE08B682BB1012B59
:101410004FF0080303D0456104E0042302E00561B6
:1014200000E00023FF2A01D8064601E000F104068F
:101430004FEA840501D9A5F12005D6F8008007FA06
:1014400005FC28EA0C0803FA05F548EA0508C6F881
:1014500000804D68ED0062D5374DAE6946F001065B
:10146000AE61AD6924F0030605F001050095334D2A
:1014700006EB050CDCF80850A607360F07FA06F84D
:1014800025EA0805DFF8B880404503D14FF0000891
:1014900017E044E0DFF8AC80404502D14FF001088E
:1014A0000FE0DFF8A480404502D14FF0020808E0C9
:1014B000DFF89880404502D14FF0030801E04FF07B
:1014C000040808FA06F848EA0508CCF808804D68D0
:1014D000D9F80060ED024D4601D5164300E0964371
:1014E0002E604D68DAF80060AD02554601D516430E
:1014F00000E096432E604D68DBF80060AD035D466A
:1015000001D5164300E096432E604D68DEF800607A
:10151000ED03754601D5164300E096432E60641C2A
:101520000D682A46E5407FF431AFBDE8F88F000032
:1015300008040140000011100010024000000140AA
:1015400000080140000C014000100140001401405F
:101550008068084000D0012070470AB101617047DF
:101560000904FBE701488068704700001400002070
:1015700070B5040025D094F83D00002520B984F80A
:101580003C50204600F04EF9242084F83D002068AD
:10159000016821F0010101602068016841F4004107
:1015A00001602068016821F40041016000F05EFBE9
:1015B0004D4A6168914201D84C4900E04C4988424B
:1015C00001D2012070BD4B492368B0FBF1F15E6888
:1015D00026F03F060E435E606368934206D94FF4DF
:1015E000967359434FF47A73B1FBF3F12368491CA6
:1015F0001E6A26F03F06314319626168914210D895
:101600004900401EB0FBF1F2521CC2F30B02042A47
:1016100001D2042022E0B0FBF1F0401CC0F30B002B
:101620001CE0A268F2B301EBC10303EB0116431EF9
:10163000B3FBF6F35B1C43F480431B0549D092B324
:1016400001EBC10202EB0111401EB0FBF1F0401CA6
:10165000C0F30B0040F4804040F400402168CA69A8
:101660004CF6FF739A431043C861D4E90710014355
:101670002068026822F0C00211430160D4E903012E
:1016800001432068826848F2FF339A431143816026
:10169000D4E9050108432168CA6822F0FF0210431B
:1016A000C86001E00EE016E02068016841F0010129
:1016B00001602564202084F83D00256384F83E50B5
:1016C000002070BD01EB4106431EB3FBF6F35B1C2B
:1016D000B3E70120C2E701EB4101401EB0FBF1F08E
:1016E000401CC0F30B00B7E7A086010080841E00F9
:1016F00000093D0040420F002DE9F84F1F4690467B
:101700008A460446DDF82890FFF72CFF054694F83A
:101710003D0020287FD11923012240492046009511
:1017200001F08EF8002876D194F83C00012872D0A0
:10173000012084F83C0020680168C90703D10168D2
:1017400041F0010101602068016821F4006101603D
:10175000212084F83D00102084F83E0000262664F5
:10176000C4F824806785608D20852D48E0622B4673
:101770004A465146204600F0E9FF90B92068416989
:101780008069009036E02A464946204601F0FEF87E
:1017900050B1206C042804D12068016841F4007124
:1017A00001600120BDE8F88F606A21680078086157
:1017B000606A401C6062618D491E6185218D491EF1
:1017C00089B2218522685369DB435B070BD451B191
:1017D00000781061606A401C6062608D401E608508
:1017E000208D401E20852A464946204600F0FCFFF9
:1017F0000028CED1208D0028C5D154F83D0B0168BA
:1018000041F400710160202004F81E09E677667734
:101810000020C7E7FFE70220C4E700000200100035
:101820000000FFFF10B586B00021009101910291E8
:10183000039100680F4988421AD10F4CA06940F00B
:101840000800A061A069694600F008000490C0206B
:10185000009012200190032003900848FFF788FDB4
:10186000E06940F40010E061E06900F400100490C9
:1018700006B010BD0054004000100240000C0140B2
:10188000024881680278114481607047140000208A
:10189000074810B5016841F010010160032000F015
:1018A00075F80F2000F006F800F024F8002010BDB5
:1018B0000020024070B50D4D04464FF47A7128782F
:1018C000B1FBF0F00A490968B1FBF0F000F0A4FBAD
:1018D00048B9102C07D200222146501E00F036F8DD
:1018E00000206C6070BD012070BD0000140000205D
:1018F000200000200C4808B5816941F00101816198
:10190000816901F001010091C16941F08051C1611B
:10191000C06900F0805000900448416821F0E06107
:1019200041F00071416008BD00100240000001401C
:10193000002809DB00F01F020121914040098000CE
:1019400000F1E020C0F8001170470000F0B40E4B29
:101950001B680C46C3F30223C3F10705042D00D90D
:101960000425191D072901D2002300E0DB1E0126F2
:1019700006FA05F1491E214099409E40761E164008
:101980003143F0BC01F012BF0CED00E0064900F05D
:10199000070208684FF6FF03184040EA0220034A96
:1019A00010430860704700000CED00E00000FA05ED
:1019B00010B501460020234C012922D0022939D03C
:1019C00010291DD161682268D20119D51E48C1F3C2
:1019D0008342C903805C0AD561681B4AC1F3404158
:1019E000921E515C194AB2FBF1F1484301E01849DB
:1019F00048436168490203D440000321B0FBF1F081
:101A000010BD226AC2F30121012903D1920701D539
:101A1000C80310BD022905D1626A920702D549F6B2
:101A2000404010BD0329FCD121688903F9D54FF24C
:101A3000244010BD00F02AF96168C1F38131491CCE
:101A40004900DBE700100240803C000800127A00E9
:101A500000093D002DE9F84305460078354CC007E4
:101A600054D0E0690026C00008D4E06940F08050FE
:101A7000E061E069012600F0805000902E48016886
:101A8000C90512D40168804641F480710160FFF7F6
:101A900069FD074605E000BFFFF764FDC01B642831
:101AA00023D8D8F80000C005F6D5206A10F440709D
:101AB00021D0A98801F4407181421CD0206A1F49BD
:101AC000012220F440700A6000220A602062C007F0
:101AD00011D0FFF747FD074641F2883808E000BF04
:101AE000FFF740FDC11B414502D90320BDE8F88343
:101AF000206A8007F4D5206A696820F440700843A2
:101B000020621EB1E06920F08050E06128788007F3
:101B100005D56068A96820F44040084360602878D3
:101B2000C00605D56068E96820F48000084360605D
:101B30000020DBE7001002400070004040044242F9
:101B40002DE9F0470F46050061D0434E306800F0A4
:101B50000700B84209D2306820F0070038433060EF
:101B6000306800F00700B84251D128683B4C81072B
:101B700012D5400703D5606840F4E06060602878C3
:101B8000000703D5606840F4605060606068A96831
:101B900020F0F000084360602878C00728D068680B
:101BA000012810D02168022810D0890700292EDAD8
:101BB000616821F0030101436160FFF7D3FC8046B7
:101BC00041F288390DE021688903EFE78901EDE7EB
:101BD000FFF7C8FCA0EB0801494502D90320BDE886
:101BE000F0876068696800F00C00B0EB810FEFD1FE
:101BF000306800F00700B8420BD9306820F00700C9
:101C000038433060306800F00700B84201D001204E
:101C1000E5E72878400705D56068E96820F4E060CA
:101C2000084360602878000706D56068296920F4B9
:101C3000605040EAC100606000F038F86168084A0E
:101C4000C1F30311515CC8400649086006480068AA
:101C5000FFF730FE0020C2E70020024000100240E3
:101C6000903C00082000002018000020044805498E
:101C700000684968044AC1F30221515CC8407047BA
:101C80002000002000100240A03C00080448054944
:101C900000684968044AC1F3C221515CC8407047DA
:101CA0002000002000100240A03C00080E4A5168AD
:101CB0000E4801F00C03042B11D0082B0FD10C4857
:101CC000C1F38343C903C05C0AD55168084AC1F314
:101CD0004041921E515C054A5043B0FBF1F0704701
:101CE00004494843704700000010024000127A0087
:101CF0006E3C000800093D002DE9F84F040070D04B
:101D00002078C04DC00749D06868C0F38100012821
:101D100007D06868C0F38100022809D16868C00351
:101D200006D52868800339D560680028E7D035E0FB
:101D30006068B0F5803F0BD010B1B0F5A02F11D086
:101D4000286820F480302860286820F4802002E091
:101D5000286840F480302860606890B1FFF702FC8A
:101D600006460AE0286840F480202860F0E700BFBB
:101D7000FFF7F8FB801B642873D828688003F7D529
:101D80000CE0FFF7EFFB064605E000BFFFF7EAFBBC
:101D9000801B6428F0D828688003F7D420789A4EF6
:101DA00080074FF001094FF0000839D5686810F03E
:101DB0000C0F07D06868C0F38100022809D1686859
:101DC000C00306D42868800714D52069012808D1EB
:101DD00010E02069B0B1C6F80090FFF7C3FB0746DA
:101DE00005E00AE1FFF7BEFBC01B0228C4D8286843
:101DF0008007F7D52868616920F0F80040EAC10043
:101E000028600DE0C6F80080FFF7ACFB074604E051
:101E1000FFF7A8FBC01B022823D828688007F7D447
:101E2000207800072CD57948A169D9B1C0F8009075
:101E3000FFF798FB074604E0FFF794FBC01B02285E
:101E40000FD8686A8007F7D571484FF4FA510068D7
:101E5000B0FBF1F0009000BF0098411E0091FAD253
:101E60000EE080E0C0F80080FFF77CFB074604E04E
:101E7000FFF778FBC01B022875D8686A8007F7D483
:101E80002078400760D5E8690027C00008D4E869D9
:101E900040F08050E861E869012700F08050009030
:101EA0005C480168C90513D40168834641F4807118
:101EB0000160FFF757FB824606E000BFFFF752FBC9
:101EC000A0EB0A0064284ED8DBF80000C005F5D569
:101ED000E06801280AD008B1052813D0286A20F04C
:101EE00001002862286A20F0040002E0286A40F01D
:101EF00001002862E06841F2883B98B1FFF732FBAD
:101F000082460BE0286A40F004002862EEE700BF3A
:101F1000FFF728FBA0EB0A0159455AD8286A800729
:101F2000F6D50CE0FFF71EFB824605E0FFF71AFB33
:101F3000A0EB0A0159454CD8286A8007F6D41FB196
:101F4000E86920F08050E861E06988B36968C1F30E
:101F50008101022944D00228C6F8608004D0FFF72E
:101F600001FB044638E034E0FFF7FCFA074604E0E2
:101F7000FFF7F8FAC01B02282BD828688001F7D495
:101F8000206AB0F5803F05D16868A16820F4003070
:101F900008436860D4E908010843696821F47411B2
:101FA00008436860C6F86090FFF7DCFA044606E074
:101FB00025E000BFFFF7D6FA001B022809D82868E1
:101FC0008001F7D51BE000BFFFF7CCFA001B022809
:101FD00002D90320BDE8F88F28688001F4D40EE010
:101FE0000128F7D06868226A00F48031914204D158
:101FF000616A00F47010884201D00120EAE70020F5
:10200000E8E7000000100240000042428004424223
:10201000200000200070004010B5401EB0F1807F0D
:1020200001D3012010BD4FF0E02460610F21601743
:1020300001F0BCFB0020A06107202061002010BD42
:1020400070B590F83C20012A26D0012480F83C404D
:10205000022280F83D2003685A689D6822F07006CD
:102060000A6832435A600D4B02689A4208D0B2F1B6
:10207000804F05D00A4B9A4202D00A4B9A4204D1B3
:10208000496825F080031943916080F83D400021A4
:1020900080F83C10084670BD022070BD002C014045
:1020A000000400400008004010B5040003D094F87C
:1020B0003D0010B107E0012010BD002084F83C0075
:1020C000204600F01FF8022084F83D00211D206802
:1020D00001F0E8F8012084F8460084F83E0084F816
:1020E0003F0084F8400084F8410084F8420084F8FE
:1020F000430084F8440084F8450084F83D00002043
:1021000010BD000008B500680649884208D106489D
:10211000C16941F00201C161C06900F00200009094
:1021200008BD0000000400400010024090F83D107F
:10213000012901D001207047022180F83D1000687C
:102140000B49884208D0B0F1804F05D00949884238
:1021500002D00949884204D1816801F007010629AB
:1021600003D0016841F001010160002070470000C8
:10217000002C0140000400400008004070B50446F7
:1021800090F83C000025012817D0012684F83C6017
:10219000022084F83D002068826822F0770222F451
:1021A0007F4282600868502838D00DDC20284FD04C
:1021B00005DC90B3102811D14AE0022070BD302810
:1021C00046D040280AD13BE060282FD070280DD09F
:1021D000B0F5805F03D0B0F5005F12D0012584F820
:1021E0003D60002084F83C00284670BDCB68D1E9F2
:1021F0000121206801F092F82068816841F07701A0
:1022000009E0CB68D1E90121206801F087F8206856
:10221000816841F480418160E1E719E0CA6849685A
:10222000206801F08DF85021206806E0CA684968EE
:10223000206801F096F86021206801F079F8CEE777
:10224000CA684968206801F07BF840212068F4E7FB
:10225000226801461046F0E738B5044690F842007F
:10226000202801D0022038BD51B14AB1012020639D
:1022700000206063204601F0F7F9216B012901D0AD
:10228000012038BD21680A684968009121680C3135
:1022900051E8002F42F0100241E80023002BF5D155
:1022A00038BD00000068054A904205D1002903D0DE
:1022B000034841800121017070470000003801404F
:1022C0000000002070470000F8B501680446086867
:1022D000CA684B6910F00F0F4FF0000559D003F09A
:1022E000010602F49077374365D0C10705D0D105C8
:1022F00003D5616C41F001016164410705D5D9073F
:1023000003D0616C41F002016164810705D5D907F2
:1023100003D0616C41F004016164010707D502F04C
:102320002001314303D0616C41F008016164616CAC
:1023300000293AD0800604D5900602D5204601F047
:10234000D6F820684069616CC0F38010090700D49A
:1023500060B3204601F096F820684069400621D518
:102360002068143050E8001F21F0400140E80012BE
:10237000002AF5D1E06BA8B16D494163E06BFEF72F
:1023800089FE002811D0E06B416B01B0BDE8F04040
:10239000084783060FD593060DD52046BDE8F840C3
:1023A00001F0A5B82046FFF78DFFF8BD2046FFF7E6
:1023B00089FF6564F8BD266B2023012E7CD1C606FB
:1023C0007AD5D60678D508684868009048694FF0F5
:1023D0000206400640D5E16B086840680004000C26
:1023E000E8D0A28D8242E5D9E085886920282DD0E9
:1023F00020680C3050E8001F21F4807140E8001282
:10240000002AF5D12068143050E8001F21F00101A6
:1024100040E80012002AF5D12068143050E8001F6F
:1024200021F0400140E80012002AF5D184F8423042
:10243000256320680C3050E8001F21F0100140E8AF
:102440000012002AF5D1E06BFEF700FE6663A08D56
:10245000E18D401A81B22AE0A08DE18D401A81B24F
:10246000E08D0028A6D00029A4D022680C3252E8C2
:10247000000F20F4907042E80007002FF5D120688B
:10248000143050E8002F22F0010240E80027002F0E
:10249000F5D184F84230256320680C3050E8002FD5
:1024A00022F0100240E80023002BF5D1666320469D
:1024B000FFF7F8FEF8BDFFE705062BD5150629D571
:1024C00094F841002128F5D1A068B0F5805F01D1D2
:1024D0002069B0B1206A411C2162216800784860FF
:1024E000E08C401E0004000CE084E3D12068C16849
:1024F00021F08001C1602068C16841F04001C160E5
:10250000D8E7206A0088C0F308004860206A801C71
:102510002062E5E74006CDD55006CBD5CA682046F7
:1025200022F04002CA6084F8413000F0F5F8C1E7BB
:102530008733000870B5040004D094F841000025EA
:1025400010B106E0012070BD84F84050204600F034
:1025500023F8242084F841002068C16821F4005148
:10256000C160204601F024F82068016921F49041FF
:1025700001612068416921F02A0141612068C16838
:1025800041F40051C1606564202084F8410084F862
:1025900042006563002070BDF0B585B0002406469A
:1025A000009401940294039400682D49884254D108
:1025B0002C48816941F480418161816901F4804145
:1025C0000491816941F0040181618069264D00F028
:1025D000040004904FF4007000900220019003204A
:1025E000039069462846FEF7C3FE2815CDE900048E
:1025F000694628460294FEF7BBFE1D4D1B48802706
:10260000C5E90004C5E902472C616C61AC6128464C
:10261000EC61FEF735FE08B1FEF770FAF5636E6205
:10262000134D12484435143801C5102091C5104887
:1026300045F8104944306C61AC61EC61FEF720FE56
:1026400008B1FEF75BFAB5630022114625206E62E1
:10265000FFF77CF92520FFF76BF905B0F0BD00000E
:1026600000380140001002400008014058000240BC
:102670004C010020704770472DE9F843044690F85C
:102680004100984616460D46202802D00220BDE89B
:10269000F88385B17EB100206064212084F8410078
:1026A000FEF760FFA6848146E684A0682027B0F587
:1026B000805F02D003E00120E9E7206910B12E46D7
:1026C00000250EE000260CE08021204601F014F8E1
:1026D000A8B9C6B116F8010B21684860E08C401E0D
:1026E000E084E08C4B464FF00002CDF800800028DB
:1026F000EAD14FF04001204600F0FEFF40B184F8DF
:1027000041700320C3E735F8020BC0F30800E3E78C
:1027100084F841700020BAE77047FEE701684A6913
:10272000D24352050FD46FF480624A61002140F811
:10273000301F202242738173026942F00402026159
:10274000017301207047002070470000F8B504466F
:10275000C06A1E460D461746082807D0012805D036
:1027600010F5803F02D0206B122804D12068016848
:1027700041F480710160134600224FF001112046A0
:10278000009600F05DF840B120680068C00502D5F1
:102790004FF4007020640320F8BD2069B0F5804F2D
:1027A0000ED00620216800EAD51040F0F000086144
:1027B00033463A460B49204600F08AF878B902E0E1
:1027C00005F0FE0000E0E8B22168086105493346E3
:1027D0003A46891F204600F07BF80028DCD0012013
:1027E000F8BD00000800010070B516460D4604460D
:1027F0001EE02046FFF792FF08B1012070BD681C63
:1028000016D0FEF7AFFE801BA84200D885B920681D
:102810004069C04340070BD5002044F8300F202109
:102820006173A073216941F0200121612073E4E705
:1028300020684069C0434007DBD4002070BD000021
:102840002DE9F047984617460D460446C1F3074662
:10285000DDF820902AE000BFB8F1FF3F26D0FEF758
:1028600081FEA0EB0901414502D8B8F1000F1DD14E
:102870002068012E16D0806925EA00000004000CB3
:1028800012D00020B84211D1002044F8300F20218E
:102890006173A073216941F020012161207301203F
:1028A000BDE8F0874069E7E70120EBE72068012EEB
:1028B0000AD0806925EA00000004000C06D0002040
:1028C000B842C9D00020EBE74069F3E70120F7E701
:1028D0002DE9F047984616460D4604464FF000098C
:1028E0004FF0200AC1F3074723E020684069C04346
:1028F000400515D42068016841F400710160216829
:102900006FF480604861C4F8309084F83DA084F88A
:102910003E90216C41F00401216484F83C9021E058
:10292000701C06D0FEF71EFEA0EB0800B04203D8D4
:1029300016B1012F1FD021E02068012F15D080692A
:1029400025EA00000004000C18D000BF44F8309FB6
:1029500084F80DA084F80E90216941F020012161D6
:1029600084F80C900120BDE8F087406925EA00005A
:102970000004000CEAD12068406901E02068806909
:1029800025EA00000004000CAFD1ECE770B5164654
:102990000D4604461EE02046FFF7C0FE08B10120A8
:1029A00070BD681C16D0FEF7DDFD801BA84200D864
:1029B00085B920684069C04300060BD5002044F863
:1029C000300F20216173A073216941F02001216142
:1029D0002073E4E720684069C0430006DBD4002090
:1029E00070BD00003EB5002411480094019402948B
:1029F0000E498460016004730475012505614FF47C
:102A000060214460C161FEF769F908B1FEF776F80C
:102A10000520CDE90005694602940548FEF7DCF87B
:102A2000002801D0FEF76AF83EBD000000240140F6
:102A3000380000200D4808B5416941F001014161AD
:102A40004069002200F00100009011460E20FEF7C0
:102A50007DFF0E20FEF76CFF002211460F20FEF7CF
:102A600075FFBDE808400F20FEF762BF001002406E
:102A70002DE9F04786B000242C480094019402947C
:102A80000394816941F010018161816901F01001B5
:102A90000491816941F020018161816901F0200187
:102AA0000491816941F004018161816901F00401AF
:102AB0000491816941F0080181618069012200F07F
:102AC0000800DFF86C805503049029464046FEF765
:102AD00044FDDFF86090002202214846FEF73DFDEC
:102AE0000122DFF854A0170339465046FEF735FDA2
:102AF0000126CDE90056022569464046CDE902454A
:102B0000FEF736FCCDE9005669464846CDE9024558
:102B1000FEF72EFCCDE9007669465046CDE9024528
:102B2000FEF726FC06B0BDE8F0870000001002406A
:102B30000010014000080140000C01400D4810B594
:102B40000B4901600C49416000214FF480428160D3
:102B5000C0E9031241618161C1610162FEF708FDB4
:102B6000002803D0BDE81040FDF7C8BF10BD00002D
:102B70000054004068000020A086010010B586B017
:102B80000024174800940194029403940494134978
:102B9000059401604721C0E901144FF6FF71C0E9B7
:102BA00003148461FFF780FA08B1FDF7A7FF4FF423
:102BB0008050009069460A48FFF7E0FA08B1FDF737
:102BC0009DFF049404A906480594FFF739FA0028EC
:102BD00001D0FDF793FF06B010BD000000040040D7
:102BE000BC0000200C4810B50A4901604FF4165192
:102BF0004160002181600C22C160C0E90412816142
:102C0000C161FFF797FC002803D0BDE81040FDF735
:102C100075BF10BD0038014004010020FEE7000030
:102C2000F0B520490324C1B0488842BA888840BA28
:102C3000002835D015184FF480739D4230D80525F3
:102C400005EB40059D422BD80B788DF80030497874
:102C50008DF8011041008DF8021000216D46124FD1
:102C60000BE0531837F81360330A2B55641CA3B2DA
:102C7000EE545B1C491C9CB289B28142F1D32146BF
:102C80002846FDF7B1FD2855641CA1B2000A68541E
:102C9000491C8AB24FF0FF3369460448FFF7ECFC49
:102CA00041B0F0BD56080020560600200401002067
:102CB0001CB5124A508841BA9088FF2943BA1CD8E3
:102CC000084600F021F8002817D00D4820F81130F0
:102CD000106800909088ADF8040006216846FDF762
:102CE00083FD8DF80600000A8DF807004FF0FF33D2
:102CF000082269460348FFF7BFFC1CBD56080020A8
:102D0000560600200401002020280BD004DC1028E7
:102D100008D0112804D105E0212803D0312801D0A2
:102D2000002070470120704710B54FF400710A4829
:102D3000FDF7BEFB084800214FF4967220F8201FD3
:102D400041808180C18002844FF44872428420F81F
:102D5000401F0121418010BD5606002070B5194D5D
:102D60002888042827D31848184C90F86200217846
:102D7000814220D128882988204410F8020C21445F
:102D800011F8011C40EA01262888801E81B22046E5
:102D9000FDF72AFD86420ED16078032802D006286E
:102DA00009D105E02888082805D1FFF739FF06E09A
:102DB0002888082801D0002070BDFFF779FF012086
:102DC00070BD0000020000205606002056080020BA
:102DD000FEE7000070B588B000F0B4F8214C0A2579
:102DE0002088B0FBF5F1B0FBF5F205FB11031EA145
:102DF00001A8FDF7EDF900261E4B01AA3146304629
:102E0000009600F0B7F86088B0FBF5F1B0FBF5F282
:102E100005FB110318A101A8FDF7DAF9154B01AA6A
:102E200010210020009600F0A5F8A28815A101A8A5
:102E3000FDF7CEF90F4B01AA20210020009600F0EB
:102E400099F8638C228C11A101A8FDF7C1F9094BF7
:102E500001AA30210020009600F08CF800F0BCF9A7
:102E600008B070BD56060020543A25642E256443F0
:102E70000000000030430008483A25642E256425F0
:102E8000250000004144433A253464004C3A25644F
:102E900020423A256400000010B56420FEF756FA7F
:102EA000AE2000F0D1F8D52000F0CEF8802000F060
:102EB000CBF8A82000F0C8F83F2000F0C5F8D320D8
:102EC00000F0C2F8002000F0BFF8402000F0BCF88D
:102ED0008D2000F0B9F8142000F0B6F8202000F0A2
:102EE000B3F8022000F0B0F8A12000F0ADF8C8203F
:102EF00000F0AAF8DA2000F0A7F8122000F0A4F8F9
:102F0000812000F0A1F8CF2000F09EF8D92000F039
:102F10009BF8F12000F098F8DB2000F095F84020B5
:102F200000F092F8A42000F08FF8A62000F08CF8B2
:102F300000F008F800F050F9BDE81040AF2000F0B4
:102F400083B800004FF480610148FDF7B1BA00007A
:102F5000550200203CB51C78059D203ACDE900457E
:102F60005D68E41D5B78E408544303FB045200F001
:102F7000CBF83CBD2DE9FF4F18785978C01DC0082B
:102F800000254843001D83B01C46174600F0FF0A89
:102F90002AE07819814600F0F0FB5FEA000826D0AD
:102FA00000260AE06168484606FB0A1B424659466D
:102FB000FDF70DFAF0B1761CF6B2207AB042F1D8E6
:102FC00010980090E368B8F1010F20D0DDE903010B
:102FD0002022FFF7BFFFE068417803980844C0B2A1
:102FE000039005EB080085B2785D0028D1D107B0C9
:102FF000BDE8F08F10992078CDE900016378DDE914
:1030000003010BF1040200F07FF86178E5E77A5DD7
:10301000DDE90301FFF79EFFE0686D1CADB241786A
:1030200003980844C0B20390DEE7000008B54FF0F3
:10303000FF3200920B46024678210248FEF75CFB05
:1030400008BD0000680000200249487002210148C4
:10305000FFF7ECBF260000202DE9FC418046072049
:10306000CDE9000301F00704CD08164602FA04F08A
:103070001F46C2B223464146284600F089F8002C7C
:103080000CD0601EC0B2CDE90007C4F1080026FADA
:1030900000F2681C0023414600F07AF8BDE8FC818C
:1030A0002DE9FC4301F007061446CD0898468146F9
:1030B00001F0070106EB080204FA01F0099F082A53
:1030C00016D90721CDE90017C2B233464946284632
:1030D00000F05EF808EB06000938C0B2CDE9000741
:1030E000C6F1080024FA00F2681C0023494607E0F4
:1030F000521ED1B2CDE90017C2B233464946284626
:1031000000F046F8BDE8FC832DE9FF4F82B01D4674
:103110000F989346C70800F00700884600260190E4
:1031200018E0029800240BEB060A00EB06090DE0FC
:1031300004FB05F0109B10F80A2008EBC400C1B294
:1031400009F0FF00FFF788FF641CE4B2BC42EFD334
:10315000761CF6B2AE42E4D30198002815D005FBE8
:1031600007F6002408EBC7070DE01098009031190E
:1031700002981BF801202044F9B2C0B2019BFFF76E
:103180008FFF641CE4B2AC42EFD306B0BDE8F08F11
:10319000F0B50828DDE9056419D2802917D20CB1F1
:1031A000D243D2B2FF25761C05FA06F6C3F1080316
:1031B000084F46EA0204DD4007EBC017044B785C79
:1031C000B2432C43AA4320401A7010437854F0BDF8
:1031D000240000205502002070B5104D402000242E
:1031E000287005F1810600BF04F1B000C0B2FFF7FE
:1031F0002BFF0020FFF728FF1020FFF725FF06EB2D
:10320000C4118022681CFDF70EF981210348FFF7E5
:103210000DFF641CE4B2082CE6D370BDD40100207D
:1032200070477047FEF72CBB30B593B02821684635
:10323000FDF760F914210AA8FDF75CF900250120CB
:103240000F9510951195010412958DE823000490B7
:103250004FF4E010CDE90810022407946846FEF709
:103260004BFD08B172B6FEE70AA90F2081E83100D4
:103270004FF48060CDE90D0502210AA8FEF760FC3D
:1032800008B172B6FEE74FF4004011900F940FA8FA
:10329000FEF7E0FB002801D072B6FEE713B030BDA8
:1032A00070470000F0B50268194B1A4C1A4D4FF0E8
:1032B0008047984205D0B84203D0A04201D0A8422E
:1032C00003D122F070064A683243984205D0B842D2
:1032D00003D0A04201D0A84203D122F44074CA68AE
:1032E00022434C6922F08002224302608A68C26253
:1032F0000A688262984201D1096901630121416132
:103300000169C90703D0016921F001010161F0BD24
:10331000002C0140000400400008004010B5846803
:1033200042EA032224F47F440A432243826010BD10
:10333000826822F070020A4342F007018160704700
:1033400010B5036A046A24F001040462846924F05D
:10335000F00444EA021423F00A020A438461026280
:1033600010BD10B5036A046A24F010040462846975
:1033700023F0A00324F4704444EA023243EA01112A
:103380008261016210BD10B5406A0021C185C1840F
:10339000FEF798FF10BD70B5446A2068406994F844
:1033A0004110C0F3C0100025212904D118B1E584D3
:1033B000204600F08EF82068406994F84210C0F36F
:1033C0008010222904D118B1E585204600F05AF872
:1033D000606C40F0100060642046FEF773FF70BD23
:1033E00010B50146406A096809684FF00002890675
:1033F0002ED4C28501680C3151E8003F23F480735C
:1034000041E80034002CF5D10168143151E8003F47
:1034100023F0010341E80034002CF5D10168143198
:1034200051E8003F23F0400341E80034002CF5D17F
:10343000202180F84210016B012909D101680C316B
:1034400051E8003F23F0100341E80034002CF5D18F
:103450004263016B012902D0FFF70CF910BD818D89
:10346000FEF720FF10BD10B5406A01214163016BDA
:10347000012902D0FFF7FFF810BD818D4908FEF742
:1034800011FF10BD01680C3151E8002F22F4907239
:1034900041E80023002BF5D10168143151E8002FD9
:1034A00022F0010241E80023002BF5D1016B012934
:1034B00009D101680C3151E8002F22F0100241E8D7
:1034C0000023002BF5D1202180F842100021016358
:1034D000704701680C3151E8002F22F0C00241E82A
:1034E0000023002BF5D1202180F84110704708B54A
:1034F00090F84210222901D0022008BD82684FF4C2
:1035000080539A4201D1016921B1816A9A421BD04C
:103510004AB10AE00268816A5268C2F308020A806E
:10352000816A891C08E0026972B10268526802F07F
:103530007F020A70816A491C8162C18D491E09049B
:10354000090CC18503D01BE002685268F1E70168ED
:10355000CA6822F02002CA600168CA6822F4807238
:10356000CA6001684A6922F001024A61202180F89C
:10357000421000214163026B012A03D0FFF77AF861
:10358000002008BD016301680C3151E8002F22F0D2
:10359000100241E80023002BF5D101680A68D20629
:1035A00002D50A6849680091818DFEF77BFEE7E746
:1035B00070B5044600680169E26821F44051114386
:1035C00001612169A0680843616908432168CA68EC
:1035D00041F20C639A430243CA6020684169A269C0
:1035E00021F44071114341611E492068884202D193
:1035F000FEF74CFB01E0FEF739FB00EBC00101EBED
:103600000012606864218000B2FBF0F3B3FBF1F3B9
:103610006FF018067343B2FBF0F5B2FBF0F605EB62
:103620008305322303EB0515B5FBF1F5B6FBF1F687
:1036300005F0F00505EB0615B2FBF0F6B2FBF0F075
:10364000B0FBF1F06FF01802504306EB800003EB83
:103650000010B0FBF1F0216800F00F0028448860F2
:1036600070BD00000038014038B581620446828593
:10367000002013466064222284F84220E56B1B4A36
:10368000AA62E56B1A4AEA62E56B1A4A2A63E26BA0
:1036900050630A462168E06B091DFDF71FFE206894
:1036A000016840680090206948B120680C3050E8FB
:1036B000001F41F4807140E80012002AF5D1206813
:1036C000143050E8001F41F0010140E80012002AC8
:1036D000F5D12068143050E8001F41F0400140E867
:1036E0000012002AF5D1002038BD0000E1330008A7
:1036F00067340008973300082DE9F84398461746C9
:103700000D460446089E24E0701C22D0FDF72AFFD7
:10371000A0EB0800B0421AD8CEB12068C1684907B2
:1037200017D5802D15D0402D13D00168C943090746
:103730000FD401680025406800902046FFF7A2FEE4
:103740000820606484F840500120BDE8F88303201D
:10375000FBE72068006835EA000004D00020B8428A
:10376000D2D00020F1E70120F9E700000148FEF780
:10377000ABBD000004010020FEE70078010601D483
:10378000012070470621B1EB501F01D10220704784
:103790000E21B1EB101F01D1032070471E21B1EBA8
:1037A000D00F01D104207047002070470907090E8F
:1037B000002804DB00F1E02080F80014704700F0DE
:1037C0000F0000F1E02080F8141D704730380A28FF
:1037D00001D20120704700207047000004490022F8
:1037E0000B685A6209684A6A8242FCD3704700003B
:1037F000BC000020FEF74CF8FFF716FDFFF738F984
:10380000FFF718F9FFF79AF9FFF7ECF8FFF7EAF975
:10381000FFF7B4F92E48FEF789FC2E48FDF770F942
:103820003220FDF793FDFFF737FBFFF77DFA4FF4EA
:1038300080773A4628492948FEF70EFD274EF06B5F
:103840000068016821F004010160DFF89480254CD4
:103850004FF47A794FF4FA7A002500BFFDF782FE23
:10386000E168401A484508D3FDF77CFEE060FDF7AB
:10387000F5F8FDF7BBF8FDF7D3F8FDF773FE216906
:10388000401A504504D3FDF76DFE2061FFF7A2FA00
:1038900020780028E2D02570FFF760FA012813D0C5
:1038A0000121A8F8261039460B48FCF701FE658077
:1038B0003A4609490948FEF7CFFCF06B00680168F9
:1038C00021F004010160C9E7A8F82650EBE70000E9
:1038D000BC00002038000020560800200401002011
:1038E00056060020000000204FF47F0C1CEAD01286
:1038F0001EBF1CEAD11392EA0C0F93EA0C0F00F0E2
:10390000858090EA010F48BF42F4807240F4000CB9
:1039100041F400002CF07F4120F07F4000B581424F
:10392000A2EB03020FF2081CACEB504EC0F10000FA
:103930009EF800E04FEA4E0E00FB0EFC38BF490037
:103940004FEA2C1C02F5FA020CFB0EF34FEACE1ED6
:103950004FEA112C4FEAC1210EEB635E42EB22428B
:103960000EFB0CFC4FEA1C5300FB03114FEA112C19
:103970004FEA01310EFB0CFC4FEADC4C00FB0C1152
:10398000C14228BF09184CEB03335DF804EB10EB80
:10399000410143EBC250B2F57C0F38BF704729D5C7
:1039A00012F0F00F1CBF00F1C04000F00040704763
:1039B000008182838485868788898B8C8D8E8F9108
:1039C0009293959697999A9C9D9FA0A2A3A5A7A82C
:1039D000AAACAEB0B2B3B5B7B9BCBEC0C2C5C7C958
:1039E000CCCED1D4D7D9DCDFE2E6E9ECF0F3F7FABC
:1039F000FE0000004FEA400C0CF1807CBCF17E4FD1
:103A000028BF7047B0F1C04000F02BB990EA010F19
:103A10000CEAD11348BF42F48072624538BF634557
:103A200007D213F47F0F16D080EA010000F00040A7
:103A3000704710B500F0CFF8097EFC3E00F005B8E5
:103A400080EA010000F00040704780EA010000F0C9
:103A5000004000F006B912F47F0F04BF024870471F
:103A600080EA010000F0FDB80000C07FC10DD1F177
:103A70009E0206DB4FEA002343F0004323FA02F0E4
:103A80007047004207D54FEA4001B1F1FE4F02D224
:103A90004FF00000704710B500F09DF84992248067
:103AA000002070476FEA200070470000B0FA80F3F2
:103AB00010FA03F2C3F19D030AD0D90501EB1220DD
:103AC000530638BF704700F1010008BF20F0010025
:103AD000704700004FF47F0C1CEAD0121EBF1CEA96
:103AE000D11392EA0C0F93EA0C0F00F0478090EA92
:103AF000010F48BF42F480724FF0004C4CEA0020A6
:103B00004CEA012102EB0302A0FB0113A2F5000223
:103B1000002918BF43F001035B0028BF4FEA3303BD
:103B200042EB22425FEA132C4CEBC2502EBFBCEB9F
:103B3000436FB2F57C0F70474FEA036CBCF1004F46
:103B400008BF20F00100B2F57C0F38BF70470BD5DD
:103B500082F0FF0212F5803FC8BF704700F1C040FD
:103B6000D8BF00F00040704700F5000C5FEA4C0C35
:103B700048BF7047B0F1C04000F073B890EA010F41
:103B80000CEAD11348BF42F48072624538BF6345E6
:103B900004D280EA010000F00040704710B500F048
:103BA0001AF800BF8900013E00F007B800F009B81C
:103BB0005FEA410C5FEA1C6C08D080EA010000F06B
:103BC00050B85FEA400C5FEA1C6CF6D14FF0004041
:103BD000A0F5800070470EF1020E2EF0030E5EF885
:103BE000044B244204D44FEA4102B2F17F4F11D872
:103BF0004FEA4003B3F17F4F0CD80ED14FEAD07C8F
:103C0000B2F17F4F0CEB4C0C0CF1020C08BF4CEBEB
:103C1000D17C04E04FF0080C01E04FEAD17C0CEBC2
:103C20004C0324FA03F404F00704B4F1040C06D2A4
:103C30000EEB840CBDE810404CF0010C6047DFE84F
:103C40000CF0070802024FF00040A0F5800010BD04
:103C50000846420018BFD2F1807288BF00F00040D1
:103C600010BDFF2141EAD050C00570470102020398
:103C70000405060708090A0B0C0D0E0F10100102AF
:103C800002030405060708090A0B0C0D0E0F10109D
:103C900000000000000000000102030406070809FC
:103CA000000000000102030400000000000000000A
:103CB0000000000000000000000000F8000000000C
:103CC000000000333000000000100C06100C06004D
:103CD000000000000000000040C07840C0784000B4
:103CE000043F04043F040400007088FC0830000016
:103CF000001820FF211E0000F008F000E01800006E
:103D000000211C031E211E0000F008887000000026
:103D10001E2123241927211010160E000000000078
:103D20000000000000000000000000E01804020095
:103D3000000000071820400000020418E000000006
:103D40000040201807000000404080F08040400004
:103D50000202010F01020200000000F0000000005A
:103D60000101011F0101010000000000000000002E
:103D700080B07000000000000000000000000000A3
:103D8000000101010101010100000000000000002C
:103D900000303000000000000000000080601804C7
:103DA000006018060100000000E010080810E000A4
:103DB000000F102020100F00001010F8000000006D
:103DC0000020203F202000000070080808887000B4
:103DD0000030282422213000003008888848300034
:103DE0000018202020110E000000C02010F8000054
:103DF00000070424243F240000F8088888080800ED
:103E00000019212020110E0000E010888818000001
:103E1000000F112020110E0000380808C8380800D3
:103E20000000003F00000000007088080888700053
:103E3000001C222121221C0000E010080810E000D4
:103E40000000312222110F00000000C0C00000005D
:103E50000000003030000000000000800000000082
:103E6000000080600000000000008040201008007A
:103E70000001020408102000404040404040400043
:103E8000040404040404040000081020408000001E
:103E90000020100804020100007048080808F00023
:103EA0000000003036010000C030C828E810E000F3
:103EB0000718272423140B000000C038E00000007E
:103EC000203C23020227382008F8888888700000E8
:103ED000203F202020110E00C030080808083800BC
:103EE000071820202010080008F808080810E00033
:103EF000203F202020100F0008F88888E8081000D4
:103F0000203F20202320180008F88888E8081000A7
:103F1000203F200003000000C030080808380000DF
:103F200007182020221E020008F808000008F808E0
:103F3000203F210101213F20000808F80808000067
:103F40000020203F2020000000000808F80808009A
:103F5000C08080807F00000008F888C02818080012
:103F6000203F20012638200008F80800000000004B
:103F7000203F20202020300008F8F800F8F8080042
:103F8000203F003F003F200008F830C00008F8083C
:103F9000203F200007183F00E01008080810E0004C
:103FA0000F10202020100F0008F808080808F00063
:103FB000203F210101010000E01008080810E00086
:103FC0000F18242438504F0008F88888888870001B
:103FD000203F2000030C30200070880808083800BB
:103FE0000038202121221C00180808F808081800B1
:103FF0000000203F2000000008F808000008F80832
:10400000001F202020201F000878880000C83808E2
:10401000000007380E010000F80800F80008F8005A
:10402000033C0700073C03000818688080681808F4
:1040300020302C03032C30200838C800C838080072
:104040000000203F2000000010080808C8380800C1
:104050002038262120201800000000FE0202020065
:104060000000007F40404000000C30C00000000015
:10407000000000010638C00000020202FE0000003D
:10408000004040407F0000000000040202020400E3
:104090000000000000000000000000000000000020
:1040A0008080808080808080000202040000000008
:1040B0000000000000000000000080808080000000
:1040C0000019242222223F2008F8008080000000EE
:1040D000003F112020110E000000008080800000B1
:1040E000000E112020201100000000808088F800C0
:1040F000000E112020103F200000808080800000F2
:10410000001F222222221300008080F08888881855
:104110000020203F20200000000080808080800060
:10412000006B94949493600008F8008080800000F5
:10413000203F210000203F200080989800000000D0
:104140000020203F20200000000000809898000000
:1041500000C08080807F000008F800008080800020
:10416000203F24022D302000000808F80000000045
:104170000020203F20200000808080808080800000
:10418000203F20003F20003F808000808080000092
:10419000203F210000203F20000080808080000020
:1041A000001F202020201F00808000808000000051
:1041B00080FFA12020110E00000000808080800080
:1041C000000E112020A0FF80808080008080800071
:1041D00020203F212000010000008080808080009E
:1041E0000033242424241900008080E08080000013
:1041F0000000001F20200000808000000080800060
:10420000001F202020103F208080800000808080C0
:1042100000010E3008060100808000800080808050
:104220000F300C030C300F00008080008080800075
:104230000020312E0E3120008080800000808080A0
:1042400080818E7018060100008080808080800050
:104250000021302C2221300000000000807C02026E
:1042600000000000003F404000000000FF00000090
:1042700000000000FF0000000002027C800000003F
:104280000040403F0000000000060101020204045B
:10429000000000000000000010080000A83C00081A
:1042A000E6B3A2001060020CC000F8888888FF887E
:1042B00088A8180004047C0380601F80432C102809
:1042C00046818000E789B900403C10FF101040484B
:1042D00048487F48C8484000020602FF010100022A
:1042E0000A1242827F020200E5BE8B00001088C4E1
:1042F0003310545454FF54547C101000020100FF3A
:104300000010121212FF121212100000E58AA8000B
:104310004044C4444444401010FF101010F000000A
:10432000103C131014B840300E014080403F000094
:1043300010100000A042000804000000984200088D
:104340006043000800000020280000002801000849
:104350008843000828000020900F00004401000856
:10436000000000000000000000000000000000004D
:10437000000000000100000010000000000000002C
:0843800000127A0000000000A9
:04000005080000ED02
:00000001FF
